:100000000C9456020C9473020C9473020C942D20E1
:100010000C9473020C9473020C9473020C9473028C
:100020000C9473020C9473020C94EA250C94BE2673
:100030000C94AA1E0C9473020C9473020C94730219
:100040000C9473020C9473020C9473020C9473025C
:100050000C9473020C944D1F0C9473020C94730255
:100060000C9473020C9473020C9473020C9473023C
:100070000C9473020C9473020C9473020C9473022C
:100080000C9473020C9473020C9473020C9473021C
:100090000C9473020C9473020C9473020C9473020C
:1000A0000C9473020C9473020C94730200002900E8
:1000B0001E001F0020002100220000004900140043
:1000C0001A0008001500170000002B00040016009D
:1000D000070009000A0049001D001B000600190066
:1000E00005002000E100E000E200E3002C002C41CC
:1000F0001E000000230024002500260027002A00FF
:1001000000001C0018000C00120013002A00000060
:100110000B000D000E000F002D0028002100110023
:10012000100036003700520038001F002C422C000F
:10013000E400500051004F00000029001E001F0085
:1001400020002100220000002B001E001F002000C4
:10015000210022000000E0001E021F0220022102F6
:10016000220200005700560055005400670020008E
:10017000E100E000E200E3002C002C411E00000042
:10018000230024002500260027002A000000230069
:1001900024002500260027002A0000002302240254
:1001A0002502260227022800210035003A002F12DE
:1001B00030122D12E5001F002C422C00E4005000EC
:1001C00051004F00000029001E001F0020002100E8
:1001D000220000002B003A003B003C003D003E00A6
:1001E0000000E0001F023100330033123400000031
:1001F000207821782378247825782000E100E00019
:10020000E200E3002C002C411E000000230024002B
:100210002500260027002A0000003F004000410082
:10022000420043004C0000005000510052004F00BB
:100230002E0028002100267827782F003000380073
:10024000E5001F002C422C00E400500051004F003C
:1002500000000000000000002A2B28000000000021
:100260000000000000000000000000290000000065
:100270002C1E3420212224342627252E362D3738D3
:10028000271E1F202122232425263333362E3738DC
:100290001F0405060708090A0B0C0D0E0F1011129A
:1002A000131415161718191A1B1C1D2F3130232D66
:1002B000350405060708090A0B0C0D0E0F10111264
:1002C000131415161718191A1B1C1D2F3130354C15
:1002D000000000000000000000000000000000001E
:1002E000000000000000000000000000000000000E
:1002F000000000007E0F00D4FFFFFFC70000007861
:10030000100363006F006F006C003600360034008D
:1003100000000A036D002E006B006900000004035A
:10032000090409025B00030100A0FA0904000001AE
:100330000301010009211101000122440007058188
:100340000308000109040100020300000009211153
:100350000100012222000705820320000107050396
:10036000032000010904020001030000000921111B
:1003700001000122B60007058403200001120100DC
:100380000200000008434D6406000101020001065E
:1003900060FF0961A1010962150026FF0095207523
:1003A0000881020963150026FF0095207508910257
:1003B000C005010902A10185020901A10005091971
:1003C000012908150025019508750181020501091B
:1003D0003009311581257F95027508810609381588
:1003E00081257F950175088106050C0A3802158163
:1003F000257F950175088106C0C005010980A1010E
:10040000850319012AB700150126B700950175105B
:100410008100C0050C0901A101850419012AA0026F
:10042000150126A002950175108100C0050109067D
:10043000A1018506050719E029E7150025019508A2
:10044000750181020507190029EF1500250195F0B6
:1004500075018102050819012905950575019102AB
:10046000950175039101C005010906A10105071950
:10047000E029E715002501950875018102950175B0
:100480000881010507190029FF150026FF009506C0
:100490007508810005081901290515002501950534
:1004A00075019102950175039101C00011241FBED1
:1004B000CFEFDAE0DEBFCDBF11E0A0E0B1E0EEE3C8
:1004C000F3E502C005900D92A23CB107D9F723E0F5
:1004D000A2ECB1E001C01D92A730B207E1F70E9483
:1004E00054140C944B290C9400008330B8F46A30F7
:1004F000A8F4473098F450E097E0699F400D511DF3
:100500001124FA0196E4899FE00DF11D1124EE0FEC
:10051000FF1FE455FF4F85919491089581E090E08D
:10052000089581E008950E949102089581E0089560
:100530000E94910208950E949802089508950E94D1
:100540009E020895A6E0B0E0E8EAF2E00C94A72845
:1005500049835A839E833091C90189819A813111DF
:100560001AC03E81332399F0222389F00E94150896
:10057000182F682F89819A810E94F10769817A81F9
:10058000812F0E94300F2696E3E00C94C3280E942E
:100590000308182FF3CF0E94150869817A81F1CFE3
:1005A000FC01262F40815181628173818481958174
:1005B0000E94A2020895CF93DF93EC0161E00E94B4
:1005C000D002BE010E949302DF91CF910895CF9394
:1005D000DF93EC0160E00E94D002BE010E949F0206
:1005E000DF91CF91089581E008950E94F30208956C
:1005F000CF93C82F0E94ED068C2F0E94F5022FEF9B
:1006000084E39CE0215080409040E1F700C000006E
:10061000CF91089581E00E94F8020E94711F089511
:1006200080E00E94F8020E94821F08950F931F939A
:10063000CF93DF938C0161E00E94D002EC01B801FE
:100640000E94D41B811106C080E0DF91CF911F91E1
:100650000F910895B801CE010E949B028823A1F357
:10066000B801CE010E94E11A882371F3B801CE01CE
:100670000E944816882341F3B801CE010E941E163D
:10068000882311F3B801CE010E94251B8823E1F2D3
:10069000F8018581882361F0C330FCE7DF07E9F0CA
:1006A00058F4C115ECE7DE07A9F0C130DC47B9F01A
:1006B000C8010E949602C9CFCB358CE7D807A9F0B4
:1006C000CC35ECE7DE0771F0CA35DC4789F70E94CC
:1006D0007E0CEECF0E940A03B7CF0E94860C0E94C8
:1006E0001003B2CF0E94740CE3CF0E94820CE0CFC3
:1006F0000E94871E0E949F0308950E94A3030E94E8
:100700008C1E0895089581E008950895CF93DF9396
:10071000D82F0E948303C82F882319F08D2F0E94A1
:1007200085038C2FDF91CF9108950895CF93C82F23
:100730000E9482038C2F0E948603CF91089580E04F
:100740000E94960308950E94C01C0E94960308957B
:10075000CF930E94C01CC82F8091C4018C1779F0E0
:10076000C093C4010E94161F6093C5017093C60117
:100770008093C7019093C8018C2F0E949603CF915C
:100780000895ADE0B0E0E7ECF3E00C94A8284887CA
:1007900059876A877B878C879D8791110E94840B7C
:1007A0001F8286E0FE013896DE01119601900D92BF
:1007B0008A95E1F78D8181110DC029813A814B81A4
:1007C0005C816D817E818F810E94CE0A2D96E2E050
:1007D0000C94C428CE0101960E94DB028111EDCF5A
:1007E000F5CFFC012481213021F4808191810E9488
:1007F00042080895662329F00E94A9170E948E18C6
:1008000008950E941518FACFCF93C82F882399F026
:100810008CEF8C0F813A88F48C2F0E94671D8823FF
:1008200029F08C2F0E94071E0E94180C8C2F0E940A
:10083000F01D0E94180CCF91089580E28C0F883033
:1008400048F4C77081E001C0880FCA95EAF70E949A
:10085000670BEFCFEBE5EC0FE33040F4F0E0E75946
:10086000FE4F808190E00E94FB1CE5CFE8E5EC0F95
:10087000EB3150F4F0E0EE0FFF1FED5CFE4F808196
:1008800091810E94201DD7CF83E38C0F833198F68E
:1008900061E08C2F0E94FA03CECF882381F19CEF78
:1008A000980F913A28F40E94071E0E94180C089590
:1008B00090E2980F983050F4877091E001C0990F42
:1008C0008A95EAF7892F0E946D0BEFCF9BE5980F71
:1008D000933028F490E080E00E94FB1C089598E596
:1008E000980F9B3128F490E080E00E94201D08952D
:1008F00093E3980F933118F460E00E94FA0308958F
:100900001F93CF93DF93182FEB010E9404042097CD
:1009100039F4812F0E944D04DF91CF911F910895EA
:100920008FE99FE00197F1F700C000002197EFCF1A
:1009300070E060E0893311F460E570E00E948004AB
:100940000895882321F00E94670B0E94180C0895D7
:10095000882321F00E946D0B0E94180C0895B0E0CE
:10096000A0E0E5EBF4E00C94A1286C01D62FC72F92
:10097000FC011581068102950F700E945D0BE82E27
:100980008823F9F0E12E1123E1F08C2F807F803451
:1009900061F080E28D0F883008F18C2F807E8032EC
:1009A00021F4D230D8F00023C9F08091DF0282FF19
:1009B00015C082E00E94480C0E945D0B91E0E82E79
:1009C000E926BC2EB2949FE0B922FBE0FB15B8F1FA
:1009D000EB2DF0E0E35BF64D0C948B28E12CF1CF8E
:1009E0000C2F0F70C07F11F00295007F112399F03A
:1009F000002359F080E28D0F883010F0D11107C02C
:100A0000802F0E94670B0E94180C8D2F5AC0802FD8
:100A10000E94770BF8CF8D2F0E944D04002379F0B0
:100A200080E28D0F883010F0D11104C0802F0E9419
:100A30006D0B03C0802F0E947D0B0E94180CEB2DC4
:100A4000E850FF0B349720F40E94C01C0E949603CC
:100A5000EE2089F00E94590B80FD0DC0F601158231
:100A60000E94530B0E946507C6010E94B4060E94B3
:100A7000530B0E947107CDB7DEB7E9E00C94BD2897
:100A80002C2F2F70F22EC07FC03219F0F29480EF1D
:100A9000F822DD2341F0D130D1F1112309F444C013
:100AA0000023F1F0B2CF8091DF0282FD15C0112347
:100AB00059F0FF2029F08F2D0E94670B0E94180C1F
:100AC00080E00E940404BBCF80E00E944D04FF2020
:100AD00009F4B5CF8F2DABCF112369F0011104C0FC
:100AE0008F2D0E94A104ABCF013009F0A8CF8F2D2C
:100AF0000E949B0BA4CF0111A2CF8F2D0E94A804AE
:100B00008F2D0E94A70B8F2D0E948B0B98CF112346
:100B100021F0063008F093CFE3CF053008F08FCFF7
:100B20008F2D0E94A8048BCF0023D1F3D93349F431
:100B30003FEF87EE93E0315080409040E1F700C0F6
:100B400000008D2F0E944D047ACF8C2F86958695BC
:100B5000837069F0813009F072CF8D2F9C2F9370D4
:100B6000111102C080E090E00E94201D68CF8D2FFF
:100B70009C2F9370111102C080E090E00E94FB1C3A
:100B80005ECF612F8D2F0E94FA0359CF8C2F837077
:100B900079F5111154CF4D2F429546954770440F6A
:100BA000440F8D2F8F70042E01C0880F0A94EAF72E
:100BB0002D2F2071D4FF07C02FE030E001C0220F9D
:100BC0004A95EAF72095C695C695C370822BC23028
:100BD00049F058F4C13019F00E94410730CF0E940B
:100BE0003B072DCF0E9447072ACF0E94380727CF07
:100BF0008695112311F08C2F8170882309F41FCF63
:100C00004D2F429546954770440F440F8D2F8F709E
:100C1000042E01C0880F0A94EAF72D2F2071D4FF0B
:100C200007C02FE030E001C0220F4A95EAF7209577
:100C3000C695C695C370822BC23049F058F4C130B6
:100C400019F00E949007FBCE0E948A07F8CE0E94FE
:100C50009607F5CE0E945307F2CECF70112329F0EC
:100C60008C2F0E9465078D2F3CCF8D2F0E94A804EA
:100C70008C2F0E947107E3CED23F41F160F4D03F48
:100C8000B9F0D13F81F0112309F446C00111BDCE66
:100C90008C2F8F711FC0D33F01F1D43FA1F78091FA
:100CA000DF0282FD24C08C2F8F71112311F312C03B
:100CB000112341F0053008F0C2CE8C2F8F710E94B5
:100CC0007E07BDCE063008F0BACEF7CF8C2F8F71DD
:100CD0001111CFCF0E946507B2CE112329F08C2FBE
:100CE0008F710E945C07ABCE0E945807A8CE1123DB
:100CF00049F0CF718C2F0E94650763E08C2F0E9412
:100D00002A0C9DCE81E00E94480C023008F497CE58
:100D100082E00E94480C93CE002359F0D93309F0A9
:100D200010CFEFEFF7EE23E0E150F0402040E1F785
:100D300006CF8C2F8F719DCF0F931F93CF93DF938F
:100D4000EC01688179818D810E944D088C010E949F
:100D50009C070E943707B801CE010E94AF04DF91C3
:100D6000CF911F910F910895CF93DF93EC018C8168
:100D7000882399F0CE010E941603811111C00E94B0
:100D80005D0B882351F08D81882339F08091DF023B
:100D900082FF03C082E00E94480CDF91CF9108954A
:100DA000CE010E949C06CE010E94E702F6CF90E0A1
:100DB00080E00E94FB1C90E080E00E94201D0E94C9
:100DC000840B0E94180C0E94AA180E948E18089585
:100DD0000E941E1E0E94D70608950E94740B0E9456
:100DE000E806089592959F70963091F058F4925FBE
:100DF0009F70923058F4803F19F030F4883E30F400
:100E000081E008959A5FF4CF843FD1F380E00895A4
:100E1000883EB0F3813FD1F7F3CFFC012481222338
:100E200039F0808191810E9442080E94F206089563
:100E300080E00895A6E0B0E0E0E2F7E00C94A82896
:100E40002696E2E00C94C428A7E0B0E0EAE2F7E0DE
:100E50000C94A8282796E2E00C94C42808950E94D8
:100E60002E0708950E942F078093E60108950895A4
:100E70000E94320708959091E601892B0E94320763
:100E800008959091E60189230E9432070895909178
:100E9000E60189270E94320708950E942E070895CF
:100EA0000E944D0708950E9450078093E501089520
:100EB00080E00E945307089591E001C0990F8A9540
:100EC000EAF7892F0E945307089521E030E001C01E
:100ED000220F8A95EAF78091E501822B0E94530741
:100EE000089521E030E001C0220F8A95EAF72095AD
:100EF0008091E50182230E945307089521E030E0AC
:100F000001C0220F8A95EAF78091E50182270E94AD
:100F1000530708959091E501892B0E945307089586
:100F20009091E50189230E94530708959091E5016E
:100F300089270E94530708950895262F277091E06E
:100F400001C0990F2A95EAF723E0769567952A95CF
:100F5000E1F7FB01EE0FFF1FE60FF71FE40FF51F90
:100F600050E040E0682F70E08191DF0111979B0114
:100F7000042E02C0369527950A94E2F72170219538
:100F80002827292328272C934F5F5F4F4330510593
:100F900059F70895A82FA77023E0969587952A956D
:100FA000E1F7FC01EE0FFF1FE80FF91FE60FF71F37
:100FB00050E040E080E0219130E00A2E02C03695FA
:100FC00027950A94E2F721703327042E01C0220FDF
:100FD0000A94EAF7822B4F5F5F4F4330510559F770
:100FE0000895262F9A3070F4873060F4682F70E0EF
:100FF00087E0989F600D711D11244AEC51E0822F0B
:101000000E949D070895292F9A3068F4873058F47C
:1010100090E06AEC71E037E0239F800D911D112470
:101020000E94CA07089580E00895CF92DF92FF9250
:101030000F931F93CF93DF936C010091E501809193
:10104000E601082BC3E0D0E010E0FC2EC8010C2E16
:1010500002C0959587950A94E2F780FD0CC0219710
:10106000A0F7F12C8F2DDF91CF911F910F91FF9061
:10107000DF90CF900895B6018C2F0E943C0F01970E
:1010800071F3F0CFCF93DF93EC010E941508BE01FE
:101090000E943C0FDF91CF9108951F93CF93DF9370
:1010A000EB019091C901992339F0CB010E944208CC
:1010B000DF91CF911F910895882369F0CB010E94A1
:1010C0001508182F682FCE010E94F107BE01812F4D
:1010D0000E943C0FEDCFCB010E940308182FF6CFE2
:1010E000E1E0F0E0DF0102C0AA0FBB1F6A95E2F762
:1010F000BD01DF0102C0AA0FBB1F4A95E2F76A2BB0
:1011000001C0EE0F2A95EAF7962F9823961302C096
:101110008E2B0895E0958E230895242F462F682F57
:101120008091E5010E9470080E94530708951F9363
:10113000CF93DF93C091E70117E08091E8018C1312
:1011400004C0DF91CF911F910895D0E01C9FF00162
:101150001D9FF00D1124E751FE4F20813181428106
:1011600053816481758186810E9424072196C7700E
:10117000E4CF20912102309122024091230250912C
:1011800024026091250270912602809127020E941C
:1011900024070895CF93DF9380912702807F09F081
:1011A0004DC080912602882309F448C0E091E701F0
:1011B0005091E801C0912202D09121026091230256
:1011C0007091240247E05E17C9F18E2F90E0E49FF2
:1011D000F0011124E751FE4F2481222391F1489F11
:1011E000F001499FF00D1124DF01A751BE4F119668
:1011F0002C9111972C1325C02C912D1322C01596DC
:101200002C91159721111DC012962D913C91261BF2
:10121000370B283C3105A8F4809127028F7080613C
:1012200080932702E151FE4F80818F70806180831F
:1012300081E292E00E94B4060E949708DF91CF916C
:101240000895FC013196E770BECF482F2091E70149
:101250009091E80157E0291302C080E0089530E042
:10126000529FF001539FF00D1124E751FE4F8181F1
:10127000681306C08081481303C085818111EECFB9
:101280002F5F3F4F2770E7CFA4E1B0E0EAE4F9E039
:101290000C949E288C0186E0F801DE011F960190D7
:1012A0000D928A95E1F7F8018481E58091E2A92EFB
:1012B00092E0B92E9091250291111FC08823D1F0A0
:1012C000EE20A9F0C8010E940D07F82E882379F0BE
:1012D00087E0F801D50101900D928A95E1F7C501EB
:1012E0000E94F1030E94CA080E94B9085FC0C801A9
:1012F0000E94B406FF24F39459C0C080D18082803C
:101300009380F09026022091230230912402A401C0
:10131000421B530BFF2009F4F9C0483C510508F06B
:10132000A7C0882309F442C090912202809127022D
:10133000282F207F09F05CC09D1116C090912102DA
:10134000C91212C0E1104EC08F70806180932702D5
:101350000E94B90881E292E00E94B40680912702BF
:10136000F8018683F12C22C0E1103CC06D2D8C2D3C
:101370000E9425096D2D8C2D0E942509E82E8111D2
:10138000F1CFCF86D88A8F8598890E944208292F6D
:1013900022952F70243078F49F702230A8F0992382
:1013A000B9F0F8019681907F99F4FE2C8F2D649608
:1013B000ECE00C94BA282A5F2F70223068F0C80144
:1013C0000E94B406EF2CF1CF992311F0882369F322
:1013D000805E883050F3F3CF803F38F3815F8330F5
:1013E00070F7E3CF80912702816080932702BACF04
:1013F0009D1113C090912102C9120FC0E1100DC0C0
:101400008683C8010E94B40687E0F801A1E2B2E039
:1014100001900D928A95E1F767CFC8010E940D07F0
:10142000882309F464CFEE2009F461CF809127026C
:10143000803288F02091210230912202398728875A
:101440009B868A86909125029C871D868E87CE0179
:1014500008960E94B40687E0F801A1E2B2E001908C
:101460000D928A95E1F70E94CA080E94B90842CFFE
:1014700090912702292F207FA1F4682D9A8A898ACA
:10148000A6017A899E2D0E941A0781E292E00E94AD
:10149000B40687E0F50111928A95E9F70E94B90830
:1014A00061CF882309F482CF809122028D1110C070
:1014B00080912102C8120CC0E1100AC09683C801B5
:1014C0000E94B40687E0F50111928A95E9F76ECF84
:1014D000C8010E940D07882309F409CFEE2009F402
:1014E00006CF80912702803208F4B5CF20912102E7
:1014F000309122023A8329839C828B82909125022B
:101500009D831E828F83CE010196A3CF483C510557
:10151000B8F5882309F4EECEFE2CEE2009F4E7CED0
:10152000809122028D111EC080912102C8121AC022
:101530008091270280FD0DC0982F907F51F0868307
:10154000903F09F45ECF982F907F905F8F70892B2A
:1015500057CF87E0F801A1E2B2E001900D928A95A1
:10156000E1F724CFC8010E940D07811174CF80914B
:101570002702816080932702C8010E94B40616CF1B
:10158000682D9A8A898AA6017A899E2D0E941A0757
:1015900087E0F50111928A95E9F7A6CEAEE0B0E0BA
:1015A000E4EDFAE00C94A728288739874A875B87FF
:1015B0006C877D878E87CE0108960E944409882318
:1015C000B1F06C85662341F0288539854A855B85B5
:1015D0007D858E850E94240717E08091E701909118
:1015E000E80189133DC02E96E3E00C94C32887E000
:1015F000FE013896DE01119601900D928A95E1F771
:101600008C85882349F32091E80130E0C9010196D7
:10161000877099274091E7014817190699F097E0DC
:10162000929FD001939FB00D1124A751BE4FFE0190
:10163000319601900D929A95E1F78093E8010E940E
:101640009708CACF0E94ED061092E8011092E701B8
:1016500087E0E1E2F2E0DF011D928A95E9F7BCCF75
:10166000819FC001112487519E4F0E944409882305
:1016700009F4B9CFE091E7011E9FF0011124E75171
:10168000FE4F208131814281538164817581868141
:101690000E9424078091E70190E0019687709927C6
:1016A0008093E7019ACF8091500286958695869522
:1016B000089580915002877008959091500297701C
:1016C00081E009F480E0089580917C020895909172
:1016D0007C02892B80937C020895809590917C02F6
:1016E000982390937C02089510927C020895909123
:1016F0007B02892B80937B020895809590917B02D9
:10170000982390937B02089510927B020895089588
:101710000E94870B089590915102292F282331F0C0
:1017200080958923809351020E94880B0895089523
:101730000E94970B089590915202292F2823281771
:1017400029F0982B909352020E94980B0895909143
:101750005202292F282331F0809589238093520249
:101760000E94980B089580915202882329F01092CC
:10177000520280E00E94980B0895CF93C0917C02A2
:1017800080917B02C82B80915202882331F0C82BB4
:101790000E94451D81110E94B30B8C2FCF9108959B
:1017A000CF93DF93C0910201D09103010E94BD0B42
:1017B0008883C0910201D091030148E050E068E4C1
:1017C00072E0CE010E94E328892B59F088E0FE01E7
:1017D000A8E4B2E001900D928A95E1F7CE010E9453
:1017E000D41CDF91CF910895CF93DF93C091000176
:1017F000D09101010E94BD0B8983C0910001D0915D
:10180000010140E250E068E272E0CE010E94E3286C
:10181000892B59F080E2FE01A8E2B2E001900D921E
:101820008A95E1F7CE010E94DF1CDF91CF910895E8
:1018300080913201882339F08091DE0287FF03C056
:101840000E94F40B08950E94D00B089508950E9401
:10185000260C08959091DF0292FF11C098E0899FB5
:1018600090011124622B609350020E9465078091C1
:1018700050028695869586950E94270C08950E94B1
:10188000650708951092500280E00E94270C089589
:10189000909150028095892380935002282F2770C1
:1018A00069F4891759F09091DF0292FF07C086957D
:1018B000869586950E9471070E94420C089590912A
:1018C000DF0292FB222720F9281769F080FB92F9AA
:1018D0009093DF028091DE029091DF020E94A80CBB
:1018E00082E00E94480C08958091DF0282FB8827E5
:1018F00080F991E089270E945F0C089581E00E94A1
:101900005F0C089580E00E945F0C08956FEF7FEFF9
:1019100090E080E00E943529089590E080E00E94E8
:101920000129863E9E4F19F40E946E1B089580E0A7
:10193000089582E090E00E94F928089583E090E005
:101940000E94F928089584E090E00E9401290895FA
:10195000BC0184E090E00E9435290895AB01BC01F0
:101960008FE090E00E9429290895AB01BC0183E13A
:1019700090E00E942929089560E070E0CB010E9468
:10198000B50C089560E070E0CB010E94AE0C0E949F
:10199000BC0C0895A8E0B0E0E0EDFCE00C94A828B1
:1019A00066EE7EEF90E080E00E94352960E082E004
:1019B00090E00E94172981E08093E60161E083E0D6
:1019C00090E00E94172960E074E184E090E00E94BA
:1019D000352960E086E090E00E9417296FEF87E0EC
:1019E00090E00E94172940E050E0BA0188E090E0C2
:1019F0000E94292960E084E290E00E94172960E0BB
:101A000087E190E00E94172960E08CE090E00E945E
:101A1000172960E08DE090E00E94172919821A8250
:101A20001B821C821D821E821F82188648E050E0A5
:101A300068E170E0CE0101960E94072940E050E085
:101A4000BA0180E290E00E94292980E00E94871B71
:101A50000E94B61B0E94C20C2896E2E00C94C42897
:101A60000E94CA0C0895682F8EE090E00E9417290A
:101A70000895A6E0B0E0EFE3FDE00C94A6280E94F4
:101A80000A1F8C0180917D0290917E028017910740
:101A900081F019821A820E940A1F682F49815A8197
:101AA000792F80E090E00E94C10310937E020093A2
:101AB0007D022696E4E00C94C2280E9458106093A0
:101AC0008D0270938E0280938F02909390026093A8
:101AD000890270938A0280938B0290938C020895FE
:101AE000089508950E94700D089508950E94750D3F
:101AF000089581E0089582E790E10E9461140E94B8
:101B0000710D0E94720D08950E945D12089508954E
:101B100008950E94870D0E94880D08950E949110DB
:101B20000E94950308950E94011F0E9432100E9496
:101B3000C61B0E9463120E94B4110E948E0D0E9467
:101B400066140E9475120E94760D0895A6E0B0E01A
:101B5000ECEAFDE00C949F280E94790D81110CC0E5
:101B60000E94390D0E945D120E94CC180E94A803A9
:101B70002696EBE00C94BB280E94D7118FE7A82E85
:101B800082E0B82E750110E0F70101917F01812FED
:101B90000E94B4101F5F1A3009F441C00817A1F366
:101BA0008091910281FD0E94BA100E94840DC82E7E
:101BB00010E099249394812F0E94B410082FF5010E
:101BC00081915F01081729F1D02ED826F12CEE243F
:101BD000E3948D2D8E21A9F0CC2099F0F9821A83FF
:101BE0000E940A1F9C838B839D8291E0802F8E210F
:101BF00009F490E049815A816B817C818D810E943A
:101C0000C103F394EE0CF7E0FF12E3CFF501319737
:101C100000831F5F1A3079F60E945D0DA3CF081371
:101C2000BFCF9ECF1F93CF93DF930E94410FEC0154
:101C3000C11580E5D807F0F5C11580E4D80708F094
:101C40009CC0C03ED10520F5CD3CD10508F082C036
:101C5000C83AD10578F4C53AD10508F073C0C1304F
:101C6000D10519F1209709F1C430D105F0F4D0E085
:101C7000C0E01BC0C33CD105D0F7C85AD0E0CC0FA0
:101C8000DD1FC459DE4F0990D881C02DD4640DC02A
:101C9000C11580E2D80708F0D1C0C11581E0D8078E
:101CA00008F05AC0C83ED10510F7CE01DF91CF91A0
:101CB0001F910895C03682E5D80718F5C03482E533
:101CC000D80708F06BC0C03282E5D80708F05FC0C3
:101CD000C11582E5D80708F497C02C2F26952695C4
:101CE00080E2289F900111248C2F8370C1E0D0E006
:101CF00002C0CC0FDD1F8A95E2F7C22BD32BDD6823
:101D0000D4CFC03A82E5D80760F4C03882E5D8075E
:101D100008F459C0CF71D0E0DC2FCC27C46FD06A53
:101D2000C4CFC03C82E5D80708F462C0C03E82E55B
:101D3000D80708F09CCFDC2FCC27CC27DF71C06FF1
:101D4000D06AB3CFC55AD0E0CE55DE4FC881D0E0BF
:101D5000D064ABCFD065A9CF8D2F0E94E30F182F91
:101D6000CE0199270E94410FC12FD0E0DC2FCC2754
:101D7000CC27DF71C82BD92B98CFCE0199270E9491
:101D8000410FCC27DF70C82BD92BD06A8ECFCF71F3
:101D9000D0E0DC2FCC27C16FD06A87CF2C2F2695BF
:101DA0002695277080E2289F900111248C2F837044
:101DB000C1E0D0E002C0CC0FDD1F8A95E2F7C22B54
:101DC000D32BDC6872CF2C2F26952695277080E2C6
:101DD000289F900111248C2F8370C1E0D0E002C0B5
:101DE000CC0FDD1F8A95E2F7C22BD32BDA685DCFCB
:101DF0008C2F8F710E94E30FC82FD0E0DC2FCC27EF
:101E0000CC27DF71D06251CF8C2F8F710E94E30FEE
:101E100055E0D695C7955A95E1F7CF70D0E0DC2F05
:101E2000CC27282F30E084FF05C044E0220F331F69
:101E30004A95E1F7C22BD32BD06937CF8D2F8F7105
:101E40000E94E30F182FCE0199270E94410FC12F46
:101E5000D0E0DC2FCC27CC27DF71C82BD92BD2CFF9
:101E6000462F7A3030F4673020F4672F0E94361501
:101E7000089590E080E008950E94300F0E94120EB5
:101E8000089582389105B9F1B0F48133910509F4D0
:101E90007DC048F48932910509F46DC08A329105FC
:101EA00009F47BC008958533910509F45FC0893337
:101EB000910509F10895833E9105D9F138F4803EEA
:101EC000910529F1823E910579F10895863E9105AB
:101ED000D9F1873E910509F43EC0843E910541F554
:101EE0002091DF0221FF24C08091DE0284FD19C011
:101EF00087EE90E008952091DE02237009F05AC029
:101F00002091DF0223FF14C089E290E00895209120
:101F1000DE0220FD38C03091DF0230FF09C024FF0F
:101F200043C090E080E008952091DE0222FDF7CFCB
:101F300008952091DE0222FD3AC03091DF0230FD8B
:101F400039C024FFF5CFEDCF2091DE0223FFF0CF83
:101F500024FDE7CFCDCF2091DE0223FD2EC03091AE
:101F6000DF0231FFEECF84EE90E008952091DE0293
:101F700025FFDECFC9CF2091DE0225FD21C02091B3
:101F8000DF0223FFD5CF89E390E0D2CF2091DE029C
:101F900026FFCECF8AE290E008952091DE0226FF50
:101FA000C7CF81E390E0089583EE90E0089582EE3C
:101FB00090E0089580EE90E0089586EE90E0089518
:101FC00085E390E008959091DE0292FF10C041E019
:101FD000282F2471243009F040E031E0282F2871A7
:101FE000283009F030E0431711F02CE0822793FFEE
:101FF00010C041E0282F2471243109F040E031E085
:10200000282F2871283109F030E0431711F02CE017
:1020100082273091DF0230FF10C051E0282F21715C
:10202000213009F050E041E0282F2871283009F0D4
:1020300040E0541711F029E0822731FF10C041E041
:10204000282F2171213109F040E031E0282F28713B
:10205000283109F030E0431711F029E0822794FD80
:10206000877E08951092DA021092DB021092DC0251
:102070001092DD020895CF92DF92EF92FF926B01F2
:102080007C010E945D1281110EC00E94161FC61AAB
:10209000D70AE80AF90AC092DA02D092DB02E0928B
:1020A000DC02F092DD02FF90EF90DF90CF90089578
:1020B0000F931F930E945D12882329F00E94161F20
:1020C0001F910F9108950E94161F0091DA0210913E
:1020D000DB022091DC023091DD02600F711F821F54
:1020E000931FEECF80E008950E94860C08950E9411
:1020F000D7112FEF86E791E0215080409040E1F723
:1021000000C000000E94D71180E00E94B41080FF40
:1021100004C00E9474100E94711F08950E947710DD
:1021200008950E948D0C811102C00E94300D0E9402
:10213000990C809391020E94A30C9093DF028093EC
:10214000DE020E948E100E949E0C0E943807809131
:10215000E5010E945007089508950E94AC1008956B
:1021600008950E94B0100895E82FF0E0E551FD4F6A
:1021700080810895089580EA8A95F1F7089500C056
:1021800008950E94BB10089508950E94C4100895F8
:10219000A5E0B0E0EEECF0E10C94A4280E945D1202
:1021A000F82E6091F502882309F440C085E0E82EFE
:1021B0008E010F5F1F4FF8018E2D11928A95E9F75E
:1021C000862F90E0B80185519D4F0E94831288238D
:1021D000B9F08091E00290E045E050E0B80185510F
:1021E0009D4F0E94E32821E020939202892B91F4D5
:1021F000F12C0E94B1108F2D2596E6E00C94C0289A
:10220000809192028823A1F3F8011192EA94E9F7F0
:1022100010929202A091E002B0E0A551BD4F85E07E
:10222000F80101900D928A95E1F7E3CF70E06551D6
:102230007D4F8091E00290E085519D4F0E940A13EE
:102240000E94C510D8CFF894E82FE295EF70F0E027
:1022500031A1282F2F7081E090E001C0880F2A95CE
:10226000EAF7982F9095932391A392A1892B82A3AB
:1022700078940895CF93DF93CCEAD1E089918F3F92
:1022800011F00E94231181E0C13BD807B9F7C5EADC
:10229000D1E089918F3F11F00E94231181E0CC3A67
:1022A000D807B9F7DF91CF910895B0E0A0E0EBE552
:1022B000F1E10C94A228EC01D62E062F10E0C80103
:1022C00084559E4F7C01FC0180818F3F09F445C0FD
:1022D000F894E82FE295EF70F0E091A18F7021E083
:1022E00030E001C0220F8A95EAF7892F822B81A363
:1022F00082A12095282322A378940E94BF10E5EAAA
:10230000F1E04CEA51E031E0C12C21912F3F51F135
:10231000A22FA295AF70B0E090968C9190E02F70B4
:1023200002C0959587952A95E2F780FD1BC0832F03
:10233000C82A330F4E175F0741F7F70180818F3F9F
:1023400011F00E94231161E0C11001C060E08D2DE9
:102350000E94C110C00FD11FC882CDB7DEB7E8E020
:102360000C94BE2880E0E4CF8091040180910401A8
:1023700095E0811190E09093F50285E0891B8093B0
:10238000E0020E943A118AE0EBEEF2E0DF01982FC2
:102390001D929A95E9F7E1EEF2E0DF011D928A9530
:1023A000E9F785E00E9415120E94AD100895AAE099
:1023B000B0E0EDEDF1E10C94A5288E010F5F1F4F09
:1023C0008AE0F80111928A95E9F7F12C6F2DC80186
:1023D0000E945511F394F5E0FF12F8CF4AE050E067
:1023E000B80181EE92E00E94E32821E0009709F411
:1023F00020E0892B41F08AE0F801A1EEB2E00190E3
:102400000D928A95E1F76091F50270E065517D4F7C
:1024100045E081EE92E00E941612182F0E94C8102B
:10242000812B2A96E5E00C94C1280895B0E0A0E045
:10243000ECE1F2E10C94A2286C017B01042FC22F85
:10244000222379F081E0809395020E940A1F9093E5
:1024500094028093930280E0CDB7DEB7E8E00C945D
:10246000BE28D0919502DD23B1F380919302909123
:1024700094020E94221F059770F310E0A801B60194
:10248000C7010E94E328892B31F0A801B601C701DA
:102490000E94F028CD2F109295028C2FDDCFCF9384
:1024A0000E946A28C82F811102C00E9465288C2FC3
:1024B000CF9108958091990208958091980208958E
:1024C0000E945D1208950E944F12809398020E940C
:1024D0006012809399020E945A12809304010E9414
:1024E0005D1281110E94B91208950E945D1281113E
:1024F00002C00E94BC12089581E090919A029A3025
:1025000008F080E008950F931F93CF93DF93EC01C1
:102510008B0180919A028A30B8F4B801CE010E94F2
:102520000713C82F811122C080919A028F3FB9F4FE
:102530000E940A1F90939702809396028C2FDF913E
:10254000CF911F910F9108958091960290919702DB
:102550000E94221F843F914000F7C0E0EFCF8F5FC1
:1025600080939A028A3020F7C1E0E8CF10929A0255
:10257000E5CF0E94E71F08950E94EA1F0895B0E08A
:10258000A0E0E5ECF2E10C94A3287901C82F880FB4
:10259000DD0B41155105A9F0FE0193E0EE0FFF1F81
:1025A0009A95E1F7EB5FFE4F8181928185569D4FB1
:1025B000208130E04217530708F49A01A9010E94D4
:1025C000F028CE010E94D320D82E8823D1F0011507
:1025D0001105B9F083E0CC0FDD1F8A95E1F7FE010C
:1025E000EB5FFE4F438150E00417150708F4A80184
:1025F000CB5FDE4F6C817D8165567D4FC7010E94A8
:10260000F0288D2DCDB7DEB7E7E00C94BF280E94EF
:10261000F91308950E9410140895A4E0B0E0E3E1D6
:10262000F3E10C94A6286091B2027091B3028091FC
:10263000B4029091B5020E94311F11E06436710519
:102640008105910518F10E9458106E5F7F4F8F4FE2
:102650009F4F69837A838B839C8310E000E030E096
:1026600020E044E050E0BE016F5F7F4F82E00E94B7
:10267000BF12182F882351F00E94161F6093B202D8
:102680007093B3028093B4029093B502812F249685
:10269000E4E00C94C228B0E0A0E0E1E5F3E10C94A2
:1026A000A0287C015B016A010E947C1201E010E01D
:1026B000882311F00AE010E0C1E0D0E0B501C701C5
:1026C000F6010995811104C021960C171D072CF401
:1026D000CDB7DEB7EAE00C94BC28CC9F9001CD9F2B
:1026E000300D300D112490E080E045E34A95F1F77C
:1026F0000000019682179307C1F7E0CFA6E0B0E093
:10270000E4E8F3E10C94A0287B01C090B101D090E3
:10271000B20101E010E09E012A5F3F4F50E040E02F
:1027200070E060E080E00E94BF12182F882309F457
:1027300048C056018FEFA81AB80A6091AE02709196
:10274000AF028091B0029091B1020E94311F6436B5
:1027500071058105910568F105E010E09E012F5F8C
:102760003F4F50E040E070E060E081E00E94BF1227
:10277000D82E65E070E0C5010E94671411E09E81CB
:10278000981310E01D2141F10E94161F6093AE02C4
:102790007093AF028093B0029093B10285E0FE0186
:1027A0003196A9EAB2E001900D928A95E1F711E025
:1027B00013C065E070E0C5010E9467149E81891313
:1027C000CBCF85E0F6013196DE01119601900D9296
:1027D0008A95E1F71111E2CF85E0E9EAF2E0D7014D
:1027E00001900D928A95E1F7812F2696EAE00C94EC
:1027F000BC280F931F93CF93DF93EC018B014EE71F
:1028000053E10E944B13882331F04DE053E1B801AE
:10281000CE010E944B13DF91CF911F910F9108952C
:102820000F931F93CF93DF93C091B101D091B20169
:10283000CE01019625E0FB01DC0101900D922A9565
:10284000E1F765E070E00E94671488836E817F8104
:10285000888599850091A5021091A6022091A70272
:102860003091A802601771078207930751F06093B7
:10287000A5027093A6028093A7029093A8020E94DB
:102880003B10DF91CF911F910F9108950E94BF22BD
:102890000E94930D0E94CC2208950E94D1220E9492
:1028A000A60D0E94EB2208950E94A31E0E94A5225D
:1028B0000E947B0D0E9446140E944D140E94890DB7
:1028C000FBCF9093C3018093C20108950895FC014A
:1028D000680F791F8FEF91E36E177F0709F4089552
:1028E0002191822728E030E087FF06C0880F8927E2
:1028F00021503109C9F7F0CF880FFACF84E008954D
:1029000050E0440F551F9EE0699F400D511D11245A
:102910009CE8899F400D511D1124CA018996089594
:102920000F931F93CF93DF938430C8F46A30B8F4C9
:102930004730A8F40E9480148C010E94F928C82F07
:10294000D0E0DC2FCC27C80101960E94F9289E0117
:10295000282BC901DF91CF911F910F91089590E02D
:1029600080E0F8CF0F931F93CF93DF93122F032FA5
:10297000843078F46A3068F4473058F40E94801448
:10298000EC01602F0E941729612FCE0101960E9451
:102990001729DF91CF911F910F9108951F93CF9326
:1029A000DF93D0E0C0E011C0412F6C2F8D2F0E942B
:1029B00075029C01412F6C2F8D2F0E94B2141F5F56
:1029C000173091F7CF5FCA3011F010E0EDCFDF5F25
:1029D000D43041F7DF91CF911F910895EF92FF928C
:1029E0000F931F93CF93DF93EC018A017C01E60ED6
:1029F000F71ECE018996CE15DF0529F4CDB7DEB7D7
:102A0000E6E00C94C028C03322E0D20740F40E94D4
:102A1000F928F80180830F5F1F4F2196EACFF80154
:102A20001082F9CFB0E0A0E0E8E1F5E10C94A22833
:102A30007C016A018C01060F171FEC01CE018996FB
:102A4000C017D10729F4CDB7DEB7E8E00C94BE2853
:102A5000C03322E0D20740F4FE01EE19FF09EC0D6D
:102A6000FD1D60810E9417292196E8CF843038F43B
:102A70006A3028F4473018F40E949014089590E0CA
:102A800080E0089580E1089587EA91E00895EF924B
:102A9000FF920F931F93CF93DF93EC018A017C0188
:102AA000E60EF71ECE01875A9D4FCE15DF0529F49D
:102AB000CDB7DEB7E6E00C94C028C73A21E0D207D4
:102AC00040F40E94F928F80180830F5F1F4F219680
:102AD000E9CFF8011082F9CFB0E0A0E0E2E7F5E13C
:102AE0000C94A2287C016A018C01060F171FEC01CF
:102AF000CE01875A9D4FC017D10729F4CDB7DEB755
:102B0000E8E00C94BE28C73A21E0D20740F4FE0169
:102B1000EE19FF09EC0DFD1D60810E941729219619
:102B2000E7CFCF93DF93C9E5D2E060E0CE010E940A
:102B300017292196C11584E0D807B9F7DF91CF9105
:102B40000895A8E0B0E0E7EAF5E10C94A028F82E9B
:102B50008FE08F1508F46EC08FEF93E00E94F92884
:102B6000811168C009E512E0F11035C0FE0131960F
:102B70006F0188E011928A95E9F77801FFEFEF1A6B
:102B8000FF0AC8010E94F92889831A82882309F460
:102B900051C08130D1F4580182E0A80EB11CC701A8
:102BA0000E94F9288A83882309F444C09FEF980F74
:102BB0009330F0F4780193E0E90EF11CC5010E9416
:102BC000F9288B838823B1F11C8260E0C6010E9442
:102BD000171A8701D2CF011594E0190759F1C801DE
:102BE0000E94F928811101C0FA940F5F1F4FBCCFDA
:102BF0007501843051F702E010E07501EFEFEE1A35
:102C0000FE0AC5010E94F928F601E00FF11F80833A
:102C1000882381F08C3741F4E2E0F0E0EC0FFD1FF7
:102C2000E00FF11F1082D1CF0F5F1F4F5701073008
:102C3000110519F72896EAE00C94BC28CF93DF938E
:102C4000EB0186319C4711F50E94640B9D8199230D
:102C500099F08A7A91E009F490E09093B60281119C
:102C600009C089E20E94F01D0E94180C80E0DF91EB
:102C7000CF91089585E3F6CF8091B602811104C00B
:102C800089E20E94071EF0CF85E3FBCF81E0EFCF02
:102C9000CF93DF93EC01FB018581882309F4D2C037
:102CA0009E0130572332310508F0B2C00E94A30CB8
:102CB0009093DF028093DE02FE01E150F047E232A2
:102CC000F10520F4E75AF64D0C948B288091DE0232
:102CD00081608093DE0293C08091DF0288608093E0
:102CE000DF028DC08091DE028260F3CF8091DE0230
:102CF0008460EFCF8091DE028860EBCF8091DF02AD
:102D00008160EDCF8091DF028260E9CF8091DE02A9
:102D10008061DFCF8091DE028062DBCF8091DE02B6
:102D20008064D7CF0E94ED068091DE028068D1CF0B
:102D30008091DE028C60CDCF8091DF028360CFCFA7
:102D40008091DE028E7FC5CF8091DF02877FC7CF63
:102D50008091DE028D7FBDCF8091DE028B7FB9CF67
:102D60008091DE02877FB5CF8091DF028E7FB7CF63
:102D70008091DF028D7FB3CF8091DE028F7EA9CF5D
:102D80008091DE028F7DA5CF8091DE028F7BA1CF67
:102D90000E94ED068091DE028F779BCF8091DE024C
:102DA000837F97CF8091DF028C7F99CF8091DE0265
:102DB00082FB992790F921E0922790FB82F990FB02
:102DC00083F987CF8091DF02982F909591708E7F45
:102DD000892B90FB81F983CF9091DE02892F8F7B25
:102DE00096FF806476CF0E94ED069091DE02892FD7
:102DF00097FB87F980586DCF81E00E94330D809159
:102E0000DE029091DF020E94A80C0E94ED0680E095
:102E1000DF91CF91089580E0F0CF9091DE02892F6D
:102E20008F7E94FF806155CF9091DE02892F8E7F37
:102E300090FF81604ECF9091DF02892F877F93FFB3
:102E400088604DCF81E0E4CF282F35EB2303C0010C
:102E5000112497FF04C080589109892F0895805844
:102E60009F4FFBCF8091BD0280FF0DC0609122017A
:102E700070E0660F771F6038710570F56115710598
:102E800069F1862F089581FF07C06091220184E0D7
:102E9000689FB0011124EFCF6091220182FD0AC02A
:102EA0008091BC028823A9F0209121016091220128
:102EB000821710F088E0ECCF869FC001112433E028
:102EC000880F991F3A95E1F7622F70E00E947728EA
:102ED000D2CF68E070E0D5CF8FE7089581E0089504
:102EE0008091BD0280FF0CC060911E0170E075955D
:102EF0006795759567956115710549F1862F089558
:102F000081FF06C060911E0170E075956795F3CF53
:102F100060911E0182FD0BC09091BB029923A1F02C
:102F200060911D0180911E01961738F0682F70E0A6
:102F30006038710500F38FE70895899FC00111245F
:102F400070E00E947728F4CF61E070E0D7CF81E095
:102F500008959091C0022091C102922B2091C3024A
:102F6000922B2091C202922B31F098E09093BC02F8
:102F700091E09093BB028D3C31F40E943217819511
:102F80008093C10208958E3C19F40E943217F8CF45
:102F90008F3C31F40E94321781958093C0020895CE
:102FA000803D19F40E943217F8CF893D29F40E9420
:102FB00070178093C20208958A3D21F40E94701711
:102FC0008195F7CF8B3D31F40E94701781958093E6
:102FD000C30208958C3D19F40E947017F8CF9FE248
:102FE000980F983070F4815D990B21E030E001C0BA
:102FF000220F8A95EAF78091BF02822B8093BF024D
:1030000008958D3D31F48091BD0281608093BD02B1
:1030100008958E3D21F48091BD028260F7CF8F3DEF
:10302000B9F78091BD028460F1CF4091C0028D3C20
:1030300059F48091C10287FF0DC01092C102411165
:103040000BC01092BC0208C08E3C81F48091C1027A
:1030500018169CF3442381F08091C2029091C30220
:10306000892B09F05AC01092BB0208958F3C49F495
:1030700047FFF0CF1092C0028091C1028111ECCFC6
:10308000E0CF803D19F41416ACF3E4CF9091C20266
:10309000893D29F41916F4F61092C202DBCF8A3D5D
:1030A00019F497FFD7CFF8CF9091C3028B3D29F445
:1030B00097FFD0CF1092C302CDCF8C3D19F41916D3
:1030C000CCF3C8CF9FE2980F983090F4815D990BB4
:1030D00021E030E0B90102C0660F771F8A95E2F760
:1030E000CB0180959091BF0289238093BF02B2CF1C
:1030F0008D3D31F48091BD028E7F8093BD02AACFB9
:103100008E3D21F48091BD028D7FF7CF8F3D09F078
:10311000A1CF8091BD028B7FF0CF08950E940A1F3E
:103120009C019091C0028091C102982B21F03093B4
:10313000BA022093B9029091C2028091C302982BE7
:1031400021F03093B8022093B7028EEB92E00E94F8
:10315000ED1C089586E0EEEBF2E0DF011D928A950A
:10316000E9F71092BC021092BB021092BD020895C2
:10317000FC01828181110EC0838181110BC0848189
:10318000811108C091E08581811101C090E0892FF3
:103190008170089581E0FCCFA6E0B0E0E2EDF8E1B7
:1031A0000C94A72886E0EEEBF2E0DE011196019088
:1031B0000D928A95E1F71092C0021092C10210920E
:1031C000C2021092C3028B819C81892B89F080916D
:1031D000B9029091BA020E94221FAC019091BC02E8
:1031E0009923C9F1809123018417150608F440C082
:1031F0008D819E81892B91F08091B7029091B802C8
:103200000E94221FAC019091BB02992309F46AC06D
:1032100080911F018417150608F472C0BE016F5F0C
:103220007F4F8EEB92E00E94381E811105C08EEB1D
:1032300092E00E94B81881110E948E1886E0FE016B
:103240003196AEEBB2E001900D928A95E1F72696A9
:10325000E3E00C94C328209124018AE0289F900188
:1032600011242417350720F69F5F9093BC0202C0FB
:103270009F3FD1F71B81112359F00E9432179FEF16
:1032800011160CF491E0899F802D11248093C002C7
:103290001C81112359F00E9432179FEF11160CF474
:1032A00091E0899F802D11248093C1028091C002FA
:1032B000882309F49DCF1091C102112309F498CFFE
:1032C0000E942417882351F08093C002812F0E940E
:1032D0002417882329F08093C1028ACF81E0F4CF9C
:1032E00081E0F9CF209120018AE0289F90011124EC
:1032F0002417350708F092CF9F5F9093BB0202C05E
:103300009F3FD1F71D81112359F00E9470179FEF45
:1033100011160CF491E0899F802D11248093C20234
:103320001E81112359F00E9470179FEF11160CF4A3
:1033300091E0899F802D11248093C3028091C20265
:10334000882309F46BCF1091C302112309F466CFCF
:103350000E942417882351F08093C202812F0E947B
:103360002417882329F08093C30258CF81E0F4CF3B
:1033700081E0F9CFB0E0A0E0E0ECF9E10C94A32803
:10338000E82FF0E0E05BFD4FD490282F269526959E
:10339000269530E0F901E051FD4F0491877010E06F
:1033A000082E02C0159507950A94E2F701701127BF
:1033B000F901E052FD4FE490F12C082E02C0F59483
:1033C000E7940A94E2F791E0E922FF24F901E0533F
:1033D000FD4FC491D0E002C0D595C7958A95E2F71C
:1033E000C170DD270115110519F081EE0E9404045A
:1033F000E114F10419F086EE0E9404048D2D0E9460
:103400009804E114F10419F086EE0E944D040115B0
:10341000110519F081EE0E944D04CD2B19F08CE2BC
:103420000E949804CDB7DEB7E7E00C94BF28EF9276
:10343000FF920F931F93CF93DF93EC01162F0AE0B7
:103440008881882309F454C0813009F04EC08981F5
:10345000813099F47E0122E0E20EF11C8A810E9403
:103460009804E7012196812F815050F3EFE9FFE0A6
:103470003197F1F700C00000F7CF823041F47E01B0
:1034800082E0E80EF11C8A810E940404EACF8330B6
:1034900041F47E01E2E0EE0EF11C8A810E944D04AF
:1034A000E0CF843011F02196DDCF2A81229690E082
:1034B00080E0AE014F5F5F4F2053330B2A30310560
:1034C00048F0019778F2EFE9FFE03197F1F700C09B
:1034D0000000F7CF089FB001099F700D1124C901AA
:1034E000860F971F2981EA01E4CF0E94BA19BACF4B
:1034F000CDB7DEB7E6E00C94C0280F931F93CF93AF
:10350000DF93C42FD22FFC0185818823C9F040931B
:10351000C6020E940A1F9093C5028093C40280E2F3
:103520008C0F883040F4C77081E001C0880FCA95C5
:10353000EAF70E94A104DF91CF911F910F910895A6
:103540001091C602141332C08091C4029091C5023A
:103550000E94221F883C910548F5C0E2CD0F1D173F
:10356000B9F080E2810F883040F4177081E001C02B
:10357000880F1A95EAF70E94A804C83048F481E041
:103580009D2F977001C0880F9A95EAF70E94A104B9
:10359000802F0E949804C83070F6D77081E001C077
:1035A000880FDA95EAF70E94A804C5CF80E28C0F55
:1035B000883008F6C77081E001C0880FCA95EAF725
:1035C000F2CF0F93DB0188519C4787309105A0F51E
:1035D000FC01E558F64D0C948B2806E221EE41EEF5
:1035E0006AE17CE7CD010E947D1A80E00F91089589
:1035F00007E225EE45EE6BE17CE7F4CF06E221EE33
:1036000040EE68E17CE7EECF07E225EE44EE69E1AB
:103610007CE7E8CF06E221EE42EE6CE17CE7E2CF08
:1036200007E225EE46EE6DE17CE7DCCF08E221E023
:1036300045EE6EE17CE7D6CF15968C91882319F084
:103640001092C602D3CF81E0D1CF1F93CF93DF93E7
:1036500087372CE7920759F0C1E088379C47E1F49F
:10366000FB01C581CC2371F10E94681B06C0FB01E0
:10367000C581CC23B1F00E94651B0E9465070E94A2
:103680006B1BD82F0E94681BC82F0E94651B4D2FF3
:103690006C2F0E948D08C0E08C2FDF91CF911F917D
:1036A00008950E94651B0E9471070E946B1B182FD2
:1036B0000E94681BD82F0E94651B412F6D2F0E940E
:1036C0008D08EACF0E94681BEECF809127010895F4
:1036D00080912601089580912501089585E290E06A
:1036E0000E94F928843289F486E290E00E94F92849
:1036F000823059F487E290E00E94F92891E083310A
:1037000009F090E0892F8170089580E0FCCFCF937D
:10371000C82F6FEF811164E285E290E00E941729C3
:103720006FEFC11162E086E290E00E9417296FEF0F
:10373000C11163E187E290E00E941729CF910895BB
:10374000089588E290E00E94F928682F70E090E0E8
:1037500080E008950895CF93C62F0E94AA1B6C2F76
:1037600088E290E00E941729CF91089580E00E949E
:10377000871B60E070E0CB010E94AB1B0E94CE145F
:103780000E94911581E00E94871B08950E94A01B52
:103790000E94A11B0E94AA1B0E946E1B811102C0E5
:1037A0000E94B61B089508959C01FB018581882322
:1037B00051F0A90157574038510530F4822F0E942B
:1037C000A11580E0089581E008952FEFFC0120838A
:1037D00008950E94E51B089580E00895B0E0A0E000
:1037E000E4EFFBE10C94A228EC01E62E0E94EC1B16
:1037F000811110C0E881E150E331B8F4F0E0EE57F8
:10380000F64D0C948B2819828CE08A836E2DCE01A4
:103810000E949921CDB7DEB7E8E00C94BE288981DB
:103820008230C1F028F4813061F08FEF8883EECFD1
:10383000833099F08430C9F71A821B821C821D8262
:10384000E5CF0E94161F0E9491286A837B838C8398
:103850009D83DCCF0E94A11BF6CF8A81082F10E048
:103860006E0193E0C90ED11C9CE1F92EF80E0A30CE
:10387000110560F6802F0E94B410F60181936F014C
:103880000F5F1F4FF012F3CFC1CF8981823031F02B
:10389000853059F68A810E94D31BB8CF6A817B811B
:1038A0008C819D810E9491280E94AB1BAFCF4B81E0
:1038B0006A8189810E9490149827892798279D837F
:1038C0008C83A4CF2C813D813227232732274B8143
:1038D0006A8189810E94B21499CF0E94CE1496CF3A
:1038E0006E2DCE010E94E91B91CF0E944215898363
:1038F0008DCF0E9444159827892798279A8389831A
:1039000085CF6B8170E089819A81AE014C5F5F4FFA
:103910009827892798270E94471578CF6B8170E0F8
:1039200089819A81AE014C5F5F4F9827892798273C
:103930000E946C156BCF0E94911568CF0E947E1477
:10394000D6CF6B8170E089819A81AE014C5F5F4F69
:103950009827892798270E94EE1458CF6B8170E032
:1039600089819A81AE014C5F5F4F982789279827FC
:103970000E9412154BCF9093CD028093CC020895F4
:103980000E945D12811103C08091C7020895E091E9
:10399000CC02F091CD02309729F00190F081E02D1A
:1039A0000995089580E00895E091CC02F091CD0250
:1039B000309721F00280F381E02D09950895E09180
:1039C000CC02F091CD02309739F026E0DC012C9347
:1039D0000480F581E02D09950895E091CC02F091E5
:1039E000CD02309739F022E0DC012C930680F7817C
:1039F000E02D09950895A3E0B0E0E1E0FDE10C942D
:103A0000A8282091CA023091CB0228173907A1F0CB
:103A10009093CB028093CA02E091CC02F091CD0248
:103A2000309751F023E029839B838A830084F185BA
:103A3000E02DCE01019609952396E2E00C94C4286E
:103A4000A3E0B0E0E6E2FDE10C94A8282091C802D2
:103A50003091C90228173907A1F09093C9028093C9
:103A6000C802E091CC02F091CD02309751F024E0F1
:103A700029839B838A830084F185E02DCE01019602
:103A800009952396E2E00C94C4282091020130911C
:103A900003012E5F3F4F80913201882379F080919E
:103AA000DE0287FF0BC020910001309101012E5FE3
:103AB0003F4F9EE180E0915018F4089596E0FACFD0
:103AC000F90141919F014423B1F38F5FF4CF882323
:103AD00021F190913201992311F19091DE0297FF2B
:103AE0001EC0E82FE695E695E695EE31B0F42091FC
:103AF000000130910101E20FF32FF11D228130E02E
:103B0000877041E050E002C0440F551F8A95E2F7EC
:103B10002423352381E0232B91F480E00895209124
:103B2000020130910301F9013296285F3F4F9191D4
:103B3000981721F0E217F307D1F7EFCF81E008954E
:103B40009C01FC0132969FEF80E04191461751F0B5
:103B50009F3F19F4411101C0982F8F5F8630A9F75C
:103B60009F3F09F40895290F311D97FD3A95F901FA
:103B700062830895FC01329608962191261303C0B2
:103B8000DF0111971C92E817F907B9F70895E62F9E
:103B9000E695E695E695EE3168F4E80FF92FF11D0C
:103BA000677021E030E001C0220F6A95EAF7828158
:103BB000822B82830895E62FE695E695E695EE3111
:103BC00070F4E80FF92FF11D677021E030E001C0BB
:103BD000220F6A95EAF7209582812823228308958F
:103BE000682F80913201882359F08091DE0287FF8F
:103BF00007C080910001909101010E94C71D0895A6
:103C000080910201909103010E94A01D0895682FE8
:103C100080913201882359F08091DE0287FF07C02E
:103C200080910001909101010E94DB1D0895809117
:103C30000201909103010E94BA1D08958091320102
:103C4000882379F08091DE0287FF0BC0E0910001AC
:103C5000F091010132968EE1DF011D928A95E9F71C
:103C60000895E0910201F0910301329686E0F4CFCD
:103C7000DC01FB0111969C9111978181981322C060
:103C800012968C911297882319F0928189131AC089
:103C900013968C911397882319F09381891312C07E
:103CA00015968C911597882319F0958189130AC070
:103CB00014969C91992321F081E02481291303C05B
:103CC00080E001C081E08170089508950E94651E22
:103CD0000895811106C081E08093CE020E94661E85
:103CE000089582E0F9CF83E08093CE020E94661EA1
:103CF00008950E94691E089581E08093CE020E947B
:103D0000661E08950E947C1E0895089508950E94DD
:103D1000861E0895089508950E94851E0895CF93E4
:103D20000E948A1E0E94D7110E948B1EC0E08C2F19
:103D30000E94B410811105C0CF5FCA30C1F7CF9186
:103D4000089581E0FCCF85B7806885BF85B780681E
:103D500085BF08951F921FB61F9211248F939F93C2
:103D6000AF93BF938091CF02811113C08091F6026F
:103D70009091F702A091F802B091F9024196A11D2D
:103D8000B11D8093F6029093F702A093F802B093CE
:103D9000F902BF91AF919F918F911F901FBE1F900D
:103DA00018958091FE02843031F10E9478031092C0
:103DB000CF0288E190E020E40FB6F894A8958093B4
:103DC00060000FBE2093600083B7817F846083BF53
:103DD00083B7816083BF7894889583B78E7F83BFD4
:103DE0000FB6F894A8958091600088618093600078
:103DF000109260000FBE08950E94ED060E947D03A0
:103E0000089582E084BD93E095BD9AEF97BD8093BD
:103E10006E0008952FB7F8948091F6029091F70202
:103E2000A091F802B091F9022FBF08952FB7F8942E
:103E30006091F6027091F7028091F8029091F90278
:103E40002FBF08959C014FB7F8948091F60290918E
:103E5000F702A091F802B091F9024FBF821B930BB9
:103E60000895CF92DF92EF92FF922FB7F894C0900F
:103E7000F602D090F702E090F802F090F9022FBF1E
:103E8000A7019601261B370B480B590BCA01B90134
:103E9000FF90EF90DF90CF90089578941F921FB617
:103EA0001F9211248F939F93AF93BF938091F6023B
:103EB0009091F702A091F802B091F9020196A11D2C
:103EC000B11D8093F6029093F702A093F802B0938D
:103ED000F902BF91AF919F918F911F901FBE1F90CC
:103EE000189587E797E7909301088093000888E189
:103EF0009AE00FB6F894A895809360000FBE909357
:103F00006000FFCF88E19AE00FB6F894A8958093FF
:103F100060000FBE90936000FFCF8EE14A9B02C00D
:103F20008150E1F74A9BFECF08955A9880E28A9526
:103F3000F1F75A9A0895FC013BE03A95F1F798E0C1
:103F400020E080E031E040E14A95F1F7880F4A9B9C
:103F500002C08160232742E04A95F1F7000040E16A
:103F60004A95F1F7915079F790E19A95F1F799B167
:103F700032E03A95F1F7000040E14A95F1F792FB03
:103F8000992790F992272081920F90830895A1E0BC
:103F9000B0E0EDECFFE10C94A42819828C017C01C7
:103FA000E60EF11C0E151F0541F481E09981911177
:103FB00080E02196E6E00C94C0280E948D1FCE017F
:103FC00001960E949B1FF80181938F01EBCF529ABB
:103FD0005A9A089552985A9AEA9AE9E6F0E080814E
:103FE0008F7C808308956150770B91E001C0990F19
:103FF0006A95EAF720E031E0911108C0222391F0A0
:104000005A9A80E28A95F1F75A980895492F4823E1
:1040100039F05A9A232740E24A95F1F79695ECCF6A
:104020005A98F9CF5A98EDCFFF920F931F93CF93E1
:10403000DF93EC018C01060F111DC017D10729F485
:10404000CDB7DEB7E5E00C94C128F9900E94951F2A
:1040500068E08F2D0E94F31FF0CF1F920F920FB6D2
:104060000F9211240F931F932F933F934F935F93BE
:104070006F937F938F939F93AF93BF93EF93FF9330
:10408000CF93DF930F92CDB7DEB719820E948D1FB9
:10409000CE0101960E949B1F082F06950695069556
:1040A000282F22952570902F9570290F922F9370AD
:1040B00026952695920F982797708981982B09F05D
:1040C0005CC0043008F059C080E18A95F1F75A9A33
:1040D000529A82E08A95F1F700C05A9888E0089FCA
:1040E00080011124D801AB5FBE4F1696ED91FC9173
:1040F00017973097A9F06091B1017091B2011496B1
:104100002D913C911597260F371F11968D919C91FB
:104110001297680F791F13964C9113978C910995FC
:10412000F801EB5FFE4F6381662351F02091B101EE
:104130003091B20184819581820F931F0E941420D7
:104140000E94951F80E18A95F1F75A9852985A9AE1
:1041500080E18A95F1F7F801EB5FFE4F60816623FD
:1041600051F02091B1013091B20181819281820F91
:10417000931F0E94C71F0E948D1F0F90DF91CF9148
:10418000FF91EF91BF91AF919F918F917F916F912F
:104190005F914F913F912F911F910F910F900FBE03
:1041A0000F901F9018950F931F93CF93DF93EC01FF
:1041B00004970CF04CC0F894529A5A9885E08A956E
:1041C000F1F700009C2F969595708C2F8570980FB5
:1041D000892F83709695969523E0CC0FDD1F2A9545
:1041E000E1F7980F8E01092B0E94951F00C068E02F
:1041F000802F0E94F31F80E18A95F1F752985A9A16
:104200004A9B1EC087E090E04A991CC0FE01EB5F0C
:10421000FE4F63816623F9F02091B1013091B20124
:1042200084819581820F931F0E94C71F811113C043
:10423000529A5A9A7894DF91CF911F910F910895D5
:1042400000C0DECF019729F4529A5A9A789480E000
:10425000F2CF00C0D9CF0E948D1F80E28A95F1F77E
:104260005A98529A80E18A95F1F7CB5FDE4F6881C8
:10427000662351F02091B1013091B20189819A8178
:10428000820F931F0E9414200E94951F789481E052
:10429000D2CF8091D80208959B01BA019091FE027D
:1042A0009430E9F48F708093E9009FEF8091E800EB
:1042B000915085FD06C085ED8A95F1F700009111BA
:1042C000F5CF8091E80085FF0AC050E040E0C901C9
:1042D0000E948F238091E8008E778093E8000895F4
:1042E00043E050E0BC0184E00E944C21089546E088
:1042F00050E0BC0184E00E944C21089540E250E06F
:10430000BC0184E00E944C210895CF93DF93EC011F
:1043100048E050E0BC0181E00E944C2188E0FE01B1
:10432000A0EDB2E001900D928A95E1F7DF91CF9177
:104330000895603231F440E250E0BC0182E00E9416
:104340004C2108958091FD02811109C00E946E25C3
:104350000E94CB258091E20084608093E200089562
:104360001092FD0208950E947C1E08956091FA0249
:1043700081E0611101C080E00E94731E0895909158
:10438000FE0281E0943009F080E06091FA020E9420
:10439000791E089542E061EC81E00E94EA2442E245
:1043A00061EC84E00E94EA2442E261EC82E00E9437
:1043B000EA2442E260EC83E00E94EA249091FE024B
:1043C00081E0943009F080E06091FA020E94691E59
:1043D000089580910003833009F463C030F4813084
:1043E000E1F1823009F4A0C008958A3009F48CC04C
:1043F0008B3009F471C0893009F052C08091FF02FE
:10440000813209F04DC0809103039091040300971D
:1044100019F0029709F044C08091E800877F8093EB
:10442000E8008091E80082FF37C09091F30080910E
:10443000F200029731F48091F100813011F0863062
:1044400021F48091F1008093D8028091E8008B776D
:104450008093E8000E941E2523C08091FF02813ACC
:10446000F9F48091E800877F8093E800809103034E
:1044700090910403892B61F468E080ED92E070E094
:104480000E942D248091E8008B778093E8000895A6
:1044900060E090E080E0F3CF8091FE028111C1CF17
:1044A00008958091FF02813AD9F78091030390919A
:1044B0000403892BA9F78091E800877F8093E800A7
:1044C0008091E80080FFFCCF809132018093F10061
:1044D0008091E8008E77BCCF8091FF02813201F796
:1044E0008091030390910403892BD1F68091E80019
:1044F000877F8093E8000E941E25809101038093AE
:1045000032010E94ED0608958091FF02813241F64A
:104510008091E800877F8093E8000E941E258091AB
:1045200002038093D90208958091FF02813A09F035
:10453000B7CF8091E800877F8093E8008091E80002
:1045400080FFFCCF8091D902C1CF84B7877F84BF21
:104550000FB6F894A8958091600088618093600000
:10456000109260000FBE80E890E00FB6F894809340
:104570006100909361000FBE0E94821E08950E9408
:104580006E250E94CB25E2EEF0E08081846080837E
:1045900078940E944A28089588E291E00E94BB1C0A
:1045A00008958091FE02853031F48091FE028530BD
:1045B00019F00E94FC1E08950E94D11E8091FC02F9
:1045C000882399F30E948F1E882379F30E94792310
:1045D0000E94ED06EACFA0E2B0E0E1EFF2E20C9437
:1045E000A8288091FE02843009F583E08093E900D9
:1045F0008091E80082FF1AC08091E80090E085FF7A
:1046000009C050E040E060E270E0CE0101960E94F7
:10461000DE2391E08091E8008B778093E800992376
:1046200029F060E2CE0101960E94EE1BA096E2E026
:104630000C94C4289A0140910503509106030E94EE
:1046400022230895492F55274330510521F168F45D
:104650004130510509F443C04230510509F444C0CA
:1046600090E080E050E040E026C04132510551F139
:1046700042325105A9F76330710590F7FB01EE0F47
:10468000FF1FEA54FE4F408151816D547E4FFB0164
:10469000808190E010C099278130910581F00097CA
:1046A00029F00297E9F6E0E0F3E002C0EEE1F3E082
:1046B000849190E0AF01F901518340830895E2E1D4
:1046C000F3E0F6CF6330710558F6660F771FFB01F4
:1046D000E454FE4F4081518189E090E0ECCF82E1CB
:1046E00090E04DE753E0E7CF8BE590E042E253E006
:1046F000E2CF80E189BD82E189BD09B400FEFDCF32
:104700008091D8008F7D8093D8008091E0008260F6
:104710008093E0008091E00081FDFCCF0895AF928E
:10472000BF92CF92DF92FF920F931F93CF93DF93AD
:104730006C01EB018A010E943D25F82E811123C0F6
:104740000115110539F0F80180819181C81BD90B41
:10475000C80ED91EB12CA12C2097A9F08091E80099
:1047600085FD22C08091E8008E778093E8000115D6
:104770001105A1F0F80180819181A80EB91EB182C6
:10478000A08285E0F82E8F2DDF91CF911F910F91A0
:10479000FF90DF90CF90BF90AF9008950E943D258D
:1047A0008823D1F2F82EEFCFF60181916F0180932B
:1047B000F1002197FFEFAF1ABF0ACECFAF92BF92A1
:1047C000CF92DF92FF920F931F93CF93DF936C01F1
:1047D000EB018A010E943D25F82E811123C00115AD
:1047E000110539F0F80180819181C81BD90BC80EE1
:1047F000D91EB12CA12C2097A9F08091E80085FD4D
:1048000022C08091E8008B778093E80001151105A4
:10481000A1F0F80180819181A80EB91EB182A08219
:1048200085E0F82E8F2DDF91CF911F910F91FF9092
:10483000DF90CF90BF90AF9008950E943D258823D0
:10484000D1F2F82EEFCF8091F100F60181936F0144
:104850002197FFEFAF1ABF0ACECFFC01809105036D
:104860009091060386179707A0F06115710529F44A
:104870009091E8009E779093E80090E061157105B3
:1048800051F4911108C08091E80082FF34C080E0AB
:104890000895BC01F2CF8091FE028823C1F18530DA
:1048A000C1F18091E80083FD30C08091E80082FD75
:1048B000EACF8091E80080FFE1CF8091F300209162
:1048C000F200382F6115710519F02830310558F0C4
:1048D00091E02830310509F090E02091E8002E7732
:1048E0002093E800CBCF81918093F1006150710952
:1048F0002F5F3F4FE7CF8091FE02882341F0853044
:1049000041F08091E80083FFBECF81E0089582E00E
:10491000089583E00895FC018091050390910603BA
:1049200086179707A0F06115710529F48091E800BA
:104930008E778093E80090E06115710551F4911134
:1049400008C08091E80082FF35C080E00895BC0176
:10495000F2CF8091FE028823C9F18530C9F18091A0
:10496000E80083FD31C08091E80082FDEACF8091AC
:10497000E80080FFE1CF8091F3002091F200382F12
:104980006115710519F02830310558F091E0283093
:10499000310509F090E08091E8008E778093E8007F
:1049A000CBCF84918093F1003196615071092F5FD4
:1049B0003F4FE6CF8091FE02882341F0853041F0E1
:1049C0008091E80083FFBDCF81E0089582E00895E3
:1049D00083E00895982F973028F08F708093E90036
:1049E00081E008959093E900242F762F50E09817E6
:1049F00031F07091EC002091ED005091F00021FD1C
:104A000002C09F5FE8CF3091EB003E7F3093EB0018
:104A10003091ED003D7F3093ED003091EB0031603F
:104A20003093EB007093EC002093ED005093F00076
:104A30002091EE0027FDE5CF80E008958091FF02F0
:104A400087FF13C08091E80082FF06C08091E800D4
:104A50008B778093E80004C08091FE028111F2CF31
:104A600008958091FE028823D9F38091E80080FFA9
:104A7000F8CF8091E8008E77ECCF2091E400309160
:104A8000E50095E6A9012091EC00822F817020FFBE
:104A900006C08091E80080FF06C080E00895209164
:104AA000E80022FD1AC08091FE02882389F085303B
:104AB00089F08091EB0085FD0FC02091E4003091DA
:104AC000E50042175307F9F29150E1F684E00895AA
:104AD00082E0089583E0089581E008950E94DD2535
:104AE0000E94E525E0EEF0E0808181608083E8EDC2
:104AF000F0E080818F77808319BCA7EDB0E08C91C6
:104B00008E7F8C9380818F7E80831092FD0208952A
:104B10000F931F93CF93DF930E94DD250E94E5251D
:104B2000C8EDD0E088818F7788838881806888830A
:104B300088818F7D888319BC1092FE021092FA0240
:104B40001092FC021092FB0200EE10E0F80180814E
:104B50008B7F808388818160888342E060E080E091
:104B60000E94EA24E1EEF0E080818E7F8083E2EE15
:104B7000F0E0808181608083808188608083F8019B
:104B800080818E7F8083888180618883DF91CF914F
:104B90001F910F910895E8EDF0E080818F7E808372
:104BA000E7EDF0E080818160808384E082BF81E076
:104BB0008093FD020E9488250895E8EDF0E0808151
:104BC0008E7F80831092E20008951092DA00109296
:104BD000E10008951F920F920FB60F9211242F93A8
:104BE0003F934F935F936F937F938F939F93AF9375
:104BF000BF93EF93FF938091E10082FF0BC0809100
:104C0000E20082FF07C08091E1008B7F8093E1008A
:104C10000E9449288091DA0080FF19C08091D80055
:104C200080FF15C08091DA008E7F8093DA0080913A
:104C3000D90080FF96C080E189BD82E189BD09B4B9
:104C400000FEFDCF81E08093FE020E94A2218091B0
:104C5000E10080FF19C08091E20080FF15C08091C3
:104C6000E2008E7F8093E2008091E2008061809379
:104C7000E2008091D80080628093D80019BC85E062
:104C80008093FE020E94B6218091E10084FF2BC038
:104C90008091E20084FF27C080E189BD82E189BD67
:104CA00089B5982F917080FFFBCF8091D8008F7DC0
:104CB0008093D8008091E1008F7E8093E100809105
:104CC000E2008F7E8093E2008091E2008160809319
:104CD000E2008091FA02882309F449C084E08093BD
:104CE000FE020E94BF218091E10083FF29C08091D4
:104CF000E20083FF25C08091E100877F8093E1007F
:104D000082E08093FE021092FA028091E1008E7F91
:104D10008093E1008091E2008E7F8093E200809199
:104D2000E20080618093E20042E060E080E00E9467
:104D3000EA248091F00088608093F0000E94B32103
:104D4000FF91EF91BF91AF919F918F917F916F9163
:104D50005F914F913F912F910F900FBE0F901F9039
:104D6000189519BC1092FE020E94B02170CF80915C
:104D7000E30087FD93E09093FE02B3CF1F920F9262
:104D80000FB60F9211242F933F934F935F936F931E
:104D90007F938F939F93AF93BF93CF93DF93EF93C3
:104DA000FF93D091E900DF708091EC00C82FC170B3
:104DB00080FDC0E81092E9008091F000877F809329
:104DC000F00078940E9402271092E9008091F00090
:104DD00088608093F000CD2BCF70C093E900FF91E5
:104DE000EF91DF91CF91BF91AF919F918F917F9183
:104DF0006F915F914F913F912F910F900FBE0F9048
:104E00001F901895AAE2B0E0E8E0F7E20C94A7281A
:104E10008FEF92E02091F100FC012193CF01F3E0AC
:104E200087309F07B9F70E94E9218091E80083FF4E
:104E30001EC18091FF02909100039A3008F017C1C3
:104E4000E92FF0E0EB56F64D0C948B28803899F062
:104E5000823809F00CC1809103038F70873008F00D
:104E600006C18093E9008091EB0085FB882780F9DB
:104E70001092E90006C08091FB029091FC02911112
:104E800082609091E800977F9093E8008093F10012
:104E90001092F1008091E8008E77E5C0882309F434
:104EA000D3C0823009F0E3C0809101038111D6C0E4
:104EB000809103038F702FEF280F263008F0D7C0A2
:104EC0008093E9002091EB0020FFC8C0933031F4BB
:104ED0008091EB0080628093EB00C0C09091EB006A
:104EE00090619093EB0021E030E001C0220F8A95A1
:104EF000EAF72093EA001092EA008091EB008860C4
:104F0000EACF8111B4C0109101031F778091E300B3
:104F10008078812B8093E3008091E800877F8093E5
:104F2000E8000E941E258091E80080FFFCCF809160
:104F3000E30080688093E30082E0111183E08093B6
:104F4000FE0295C08058823008F091C08091010324
:104F5000909102038C3D23E09207A1F583E08A83C0
:104F60008AE289834FB7F894DE01139620E03EE091
:104F700051E2E32FF0E050935700E49120FF03C08B
:104F8000E295EF703F5FEF708E2F90E0EA30C0F057
:104F9000C7968D939D932F5F243159F74FBF809112
:104FA000E800877F8093E8006AE270E0CE01019616
:104FB0000E942D248091E8008B778093E80057C0F1
:104FC000C096E7CF6091030370910403AE014F5F79
:104FD0005F4F0E941A23BC01892B09F448C09091AD
:104FE000E800977F9093E80089819A810E948B2442
:104FF000E1CF8038E1F58091E800877F8093E80079
:105000008091FA028093F10045CF811130C09091D8
:105010000103923060F58091E800877F8093E8007B
:105020009093FA020E941E258091FA02882311F0C3
:1050300084E005C08091E30087FDFACF81E0809392
:10504000FE020E94CA2113C080910103813079F4CD
:1050500081E0933009F080E08093FC021092E90037
:105060008091E800877F8093E8000E941E25809150
:10507000E80083FF0AC08091E800877F8093E80002
:105080008091EB0080628093EB00AA96E3E00C94A1
:10509000C3280895CF938091FE028823A1F0C09188
:1050A000E900CF709091EC00892F817090FD80E82D
:1050B000C82B1092E9008091E80083FD0E9402272E
:1050C000CF70C093E900CF9108950E946E25109291
:1050D000FE020895E8EDF0E08081806180838AE13E
:1050E0008A95F1F700C08091D9008170089597FBEF
:1050F000072E16F4009407D077FD09D00E94CF2820
:1051000007FC05D03EF4909581959F4F08957095CA
:1051100061957F4F0895EE0FFF1F0590F491E02DEC
:10512000099469279627692778278727782708957C
:105130002F923F924F925F926F927F928F929F92A7
:10514000AF92BF92CF92DF92EF92FF920F931F9395
:10515000CF93DF93CDB7DEB7CA1BDB0B0FB6F89446
:10516000DEBF0FBECDBF09942A88398848885F8486
:105170006E847D848C849B84AA84B984C884DF80F7
:10518000EE80FD800C811B81AA81B981CE0FD11DDB
:105190000FB6F894DEBF0FBECDBFED010895AA1B78
:1051A000BB1B51E107C0AA1FBB1FA617B70710F012
:1051B000A61BB70B881F991F5A95A9F78095909544
:1051C000BC01CD010895FB01DC0104C08D9101906B
:1051D000801921F441505040C8F7881B990B08955D
:1051E000FB01DC0102C001900D9241505040D8F704
:1051F0000895F999FECF92BD81BDF89A992780B59F
:105200000895A8E1B0E042E050E00C943D29DC01B3
:10521000A40FB51F4150504048F0CB01840F951F9B
:105220002E910E94182941505040D0F70895262F02
:10523000F999FECF92BD81BDF89A019700B402168C
:1052400039F01FBA20BD0FB6F894FA9AF99A0FBE3A
:1052500008950396272F0E9418290E941729252FA9
:105260000E941829242F0C9418290196272F0E9498
:1052700018290C941729DC01CB01FC01F999FECF08
:1052800006C0F2BDE1BDF89A319600B40D924150CE
:105290005040B8F70895F894FFCFF004F0044005AB
:1052A0004005A505C1051F051F05C6052D063C06C1
:1052B0003C06A0161417A81672167616AC167A16A7
:1052C000B016BC1686160D178A16C0168E16C41692
:1052D000EC169216C816F3169816CE16D6167E162B
:1052E000B4168216B8169C16D216E216FC160B17C8
:1052F0006C16A4161B17FE1A041BED1AF81A0A1BCB
:10530000101B161B031C0F1C451C571C621C6D1C1C
:10531000701C701C701C151C151C751C791C811CC4
:105320008E1C9B1C9E1CA11CAE1C26274E273728BA
:0E5330004E2737288127A2273728F92705287E
:10533E005302730201000000010000000000000093
:10534E0005010000000406000000000000280850BF
:10535E00011E0A1401030201492185217E217721B4
:10536E00702101E200E900EA00B500B600B700CDF9
:10537E00008301CC008A01920194012102230224B0
:10538E00022502260227022A02B300B4006F007023
:10539E00009F01CB019F02A002818283E200E900FF
:1053AE00EA00B500B600B700CD008301CC008A013B
:1053BE0092019401210223022402250226022702D1
:1053CE002A02B300B4006F0070009F01CB019F0250
:1053DE00A00281828333946697C63435919032361B
:1053EE00319B024422B667048F03B10334034D038D
:0253FE006D033D
:00000001FF
