:100000000C94F7020C9414030C9414030C94062D16
:100010000C9414030C9414030C9414030C94140304
:100020000C9414030C9414030C94AE320C9480338F
:100030000C94842B0C9414030C9414030C9414034C
:100040000C9414030C9414030C9414030C941403D4
:100050000C9414030C94292C0C9414030C94140386
:100060000C9414030C9414030C9414030C941403B4
:100070000C9414030C9414030C9414030C941403A4
:100080000C9414030C9414030C9414030C94140394
:100090000C9414030C9414030C9414030C94140384
:1000A0000C9414030C9414030C9414036B066B0649
:1000B0009706970629082908290829080F077907AC
:1000C0008B078B070B182E183618A319A319721853
:1000D0008E18A118EB18F018FB1806191319161929
:1000E000E8330F3407350F3407355B347E3407357A
:1000F000D534E434000029001E001F002000210038
:1001000022000000490014001A0008001500170022
:1001100000002B0004001600070009000A00490037
:100120001D001B000600190005002000E100E00092
:10013000E200E3002C002C411E00000023002400FC
:100140002500260027002A0000001C0018000C00D3
:10015000120013002A0000000B000D000E000F001B
:100160002D00280021001100100036003700520039
:1001700038001F002C422C00E400500051004F00BA
:10018000000029001E001F002000210022000000A6
:100190002B001E001F002000210022000000E000B4
:1001A0001E021F02200221022202000057005600F8
:1001B0005500540067002000E100E000E200E30089
:1001C0002C002C411E0000002300240025002600E6
:1001D00027002A0000002300240025002600270015
:1001E0002A000000230224022502260227022800FA
:1001F000210035003A002F1230122D12E5001F00A9
:100200002C422C00E400500051004F000000290057
:100210001E001F0020002100220000002B003A00D9
:100220003B003C003D003E000000E0001F023100AA
:1002300033003312340000002078217823782478AA
:1002400025782000E100E000E200E3002C002C41D2
:100250001E000000230024002500260027002A009D
:1002600000003F0040004100420043004C000000FD
:100270005000510052004F002E0028002100267827
:1002800027782F0030003800E5001F002C422C009A
:10029000E400500051004F00FD377A585A00000426
:1002A000E6D6B4460200210116000000742FE5A333
:1002B000E0022B00DA5D003D8889C65436C3174F33
:1002C000E4EFB08749F02BD24C17E641FE90B053D3
:1002D000D559ED99082C79FFE53F36550AD62438D3
:1002E000CCBB2AA404FF3AF5EDB3FF677748B90900
:1002F000961B23F691B5F7041151C9915095ADA005
:10030000834856BFE3C327694482F98B4B453C556C
:100310003694CDD076FB83A8C480F43758FDDE98A0
:100320008DB9497CF7B3490A6C0052AC8EA86FA90D
:10033000300A10BBF1B66D8EF3D9A6F66E9CE9BFFC
:1003400038581F94BFEF60A82F314B0BEE65E511B5
:10035000B161B1D9568B3542180E4B87C58DEE6110
:10036000F8F67C007AB02A44AA1E17763E03D31B07
:100370005D927C23F966F5459F6317202863F16F32
:1003800013ACEDC903FE47AFB89B7FAC7A16A470DF
:100390003400000073E7476A6FC587720001F601F9
:1003A000AC04000008094A3DB1C467FB020000002C
:1003B0000004595A010001002204831CB51C0000EE
:1003C000020002001E04831CB51C00000300010093
:1003D0002304831CB51C0000040002000804831CD5
:1003E000B51C7C1C050001002404831CB51C000006
:1003F000060002000A04831CB51C0000070002006E
:100400002004831CB51C0000080001002504831C87
:10041000B51C0000120002002604831CB51C00005D
:10042000130002002804831CB51C00001400010006
:100430002A04831CB51C0000150000000000811B6D
:10044000FE1B000000000000000000002A2B280016
:100450000000000000000000000000000000002973
:10046000000000002C1E3420212224342627252EB3
:10047000362D3738271E1F202122232425263333EB
:10048000362E37381F0405060708090A0B0C0D0E17
:100490000F101112131415161718191A1B1C1D2FE3
:1004A0003130232D350405060708090A0B0C0D0E03
:1004B0000F101112131415161718191A1B1C1D2FC3
:1004C0003130354C0000000000000000000000004A
:1004D000000000000000000000000000000000001C
:1004E00000000000000000007E0F00D4FFFFFFC7E7
:1004F000000000781C037600690061006C003A007F
:10050000660036003400630032006200330063008E
:100510000000100363006F006F006C0036003600AF
:10052000340000000A036D002E006B00690000001B
:100530000403090409024200020100A0FA090400B0
:1005400000010301010009211101000122440007FB
:1005500005810308000109040100020300000009ED
:10056000211101000122220007058203200001075A
:100570000503032000011201000200000008434DA2
:1005800064060001010203010660FF0961A101097F
:1005900062150026FF009520750881020963150089
:1005A00026FF00952075089102C005010906A101EA
:1005B000050719E029E71500250195087501810255
:1005C0009501750881010507190029FF150026FF0F
:1005D00000950675088100050819012905150025F3
:1005E00001950575019102950175039101C01124D2
:1005F0001FBECFEFDAE0DEBFCDBF11E0A0E0B1E07B
:10060000EAE3FCE602C005900D92A434B107D9F7E5
:1006100024E0A4E4B1E001C01D92AD33B207E1F7DC
:100620000E9456170C941B360C9400008330B0F4D3
:100630006A30A0F4473090F496E4899FF0011124C9
:1006400087E0689FE00DF11D1124E40FF11DEE0F0E
:10065000FF1FEC50FF4F85919491089581E090E049
:1006600008959C013A9521153F4130F5BC0166275C
:100670007270AC01442754709C012227387094FF9B
:100680000FC090FF02C080E101C080E0672B09F03D
:100690008062452B09F08064232B79F080680895EF
:1006A000892F8170672B09F08260452B09F08460E7
:1006B000232B19F08860089580E00895CF93DF938D
:1006C000EB010E943103FE010995DF91CF9108955E
:1006D000CF93DF93EC01805E9109089710F020978B
:1006E00019F461ED75E002C06FED75E0CE010E9476
:1006F0005E038C2F0E946C05DF91CF910895CF93FC
:10070000DF93EC010E949205CE01805E910908976B
:1007100010F0209719F468ED75E002C066EE75E000
:10072000CE010E945E03DF91CF91089581E008958C
:1007300081E008950E94980308950E949A03089505
:100740000E949803089508950E94A3030895A6E0C7
:10075000B0E0EDEAF3E00C94633549835A839E835D
:1007600030914B0189819A81311115C03E8133232B
:1007700059F0222349F00E94B109182F682F89816E
:100780009A810E948D0903C00E949F09182F6981D8
:100790007A81812F04C00E94B10969817A810E9407
:1007A00004122696E3E00C947F35FC018781908546
:1007B000009749F4262F40815181628173818481A1
:1007C00095810E94A70308950F931F93CF93DF9302
:1007D000EC0161E00E94D5038C01BE010E949D03E3
:1007E000882329F0BE01C8010E94282202C080E0AF
:1007F00090E08170DF91CF911F910F910895CF9379
:10080000DF93EC0160E00E94D503BE010E94A403C7
:10081000DF91CF91089581E008950E940B0408951F
:10082000CF93C82F0E94F7058C2F0E940D042FEF45
:1008300084E39CE0215080409040E1F700C000003C
:10084000CF91089581E00E9410040E944F2C0895DA
:1008500080E00E9410040E94602C08950F931F9363
:10086000CF93DF93EC018B010E94EB27882329F0C3
:1008700061E0C8010E94D503EC01B801CE010E94DD
:100880007429882369F1B801CE010E94321B8823A4
:1008900039F1B801CE010E94A003882309F1B80103
:1008A000CE010E9416288823D9F0B801CE010E94FB
:1008B000531F8823A9F0B801CE010E94BE288823C7
:1008C00079F0F8018581882349F1C3308CE7D80796
:1008D000D9F060F4C115FCE7DF0721F40E9422047F
:1008E00080E01FC0C130DC4789F018C0CB35ECE791
:1008F000DE0791F0CC35FCE7DF0759F0CA35DC475D
:1009000069F40E946B0F0AC00E94730F0E942804B2
:10091000E7CF0E94610F02C00E946F0FC8010E94C2
:100920009603DF91CF911F910F910895CF93DF939D
:10093000EC0161E00E94D503BE010E942E04DF910C
:10094000CF9108950E945D2B0E94DD0408950E94BE
:10095000E1040E94662B0895982F92959F7019F0DC
:10096000892F24E001C020E0982F9695969511F0EC
:100970002E5F892F982F969509F02F5F822F08956B
:10098000089581E008950895CF93DF93D82F0E94B2
:10099000C104C82F882319F08D2F0E94C3048C2F07
:1009A000DF91CF9108950895CF93C82F0E94C0047E
:1009B0008C2F0E94C404CF91089580E00E94D4043B
:1009C00008950E94B52A0E94D4040895CF930E94EE
:1009D000B52AC82F80914601C81779F0C093460107
:1009E0000E94F22B60934701709348018093490164
:1009F00090934A018C2F0E94D404CF9108950097C0
:100A000041F0EFE9FFE03197F1F700C000000197F6
:100A1000F6CF0895AFE0B0E0E0E1F5E00C94623588
:100A20004A875B876C877D878E879F87882349F0FD
:100A300080914C0190914D01019690934D018093CE
:100A40004C018F8581110E94440E8E010F5F1F4F54
:100A500089E0F80111928A95E9F786E0FE013A965D
:100A6000D80101900D928A95E1F780919F0382FF52
:100A700012C080910A0490910B04892B61F00E94AE
:100A8000000E882319F082E00E94350F0E94DC0DD1
:100A900081110E94980E8D8181110CC009811A81EB
:100AA0002B813C814D815E816F81788589850E9493
:100AB0004F0D05C0C8010E94E4038111EFCF2F96AE
:100AC000E4E00C947E35FC012481213021F4808106
:100AD00091810E94DE090895CF93882309F1C82FE0
:100AE0008CEF8C0F813A70F48C2F0E94E32A8823BC
:100AF00029F08C2F0E94262B0E94E90E8C2F0E9439
:100B00001E2B0CC080E28C0F883050F4C77081E03F
:100B100001C0880FCA95EAF70E94240E0E94E90ED0
:100B2000CF9108958823B1F09CEF980F913A18F473
:100B30000E94262B0DC090E2980F983058F48770D1
:100B400091E001C0990F8A95EAF7892F0E942A0E39
:100B50000E94E90E08951F93CF93DF93182FEB01A6
:100B60000E946C05209741F08FE99FE00197F1F713
:100B700000C000002197F6CF812F0E949205DF91DF
:100B8000CF911F910895893329F4609128047091C1
:100B9000290404C060912604709127040E94AB05CB
:100BA0000895882321F00E94240E0E94E90E0895E2
:100BB000882321F00E942A0E0E94E90E08958823BE
:100BC00021F00E94370E0E94E90E0895882321F03B
:100BD0000E943D0E0E94E90E08950E94440E0E945C
:100BE000E90E08950E942E2B0E94ED0508950E94A3
:100BF000310E0E94F205089592959F70963079F01B
:100C000010F4925001C09A50923068F4803F69F01D
:100C100018F4883E40F409C0843F29F406C0883E99
:100C200020F0813F11F080E0089581E00895FC01FB
:100C30002481222371F087819085009719F00E940A
:100C40000C1104C0808191810E94DE090E94FC0584
:100C5000089580E00895A0E0B0E0E1E3F6E00C94B0
:100C60005D356C01EB01FC01F580068102950F708A
:100C70000E941A0E8823F9F0FF20E9F08D2F807F63
:100C8000803461F080E28C0F8830A8F08D2F807E58
:100C9000803221F4C23078F0002369F080919F0304
:100CA00082FF09C082E00E94350F0E941A0E91E077
:100CB000E82EE92601C0E12CBD2EB2948FE0B822C7
:100CC0008B2D90E08C30910508F0C3C1FC01EA5AED
:100CD000FF4F0C9447351D2F1F708D2F807F11F013
:100CE0001295107FFF2099F0112309F490C180E242
:100CF0008C0F883010F0C11104C0812F0E94240E87
:100D000003C0812F0E94370E0E94E90E80C18C2FF4
:100D10000E949205112309F49CC180E28C0F883057
:100D200048F1CC2339F1812F0E943D0E26C01D2FA2
:100D30001F708D2F807F803211F01295107FCC2391
:100D400021F0C13009F451C05CC080919F0382FD45
:100D500017C0FF2049F0112329F0812F0E94240E93
:100D60000E94E90E80E054C180E00E9492051123A8
:100D700009F46FC1812F0E942A0E0E94E90E69C1F9
:100D8000FF20D1F0002309F440C0013021F4812F6D
:100D90000E94510E5EC180912404823008F459C132
:100DA000081357C1812F0E94D105812F0E94680E20
:100DB000812F0E94F20E4DC1002369F0809124041E
:100DC000823008F446C1013009F043C10E94210E6F
:100DD000812309F43EC1812F0E94D805812F0E94F2
:100DE000680E812F0E94FE0E34C180912A04FF20DC
:100DF00021F0801708F42DC108C0081708F029C198
:100E00000AC0FF2031F0011102C1812F0E94D105DB
:100E100020C1011107C1812F0E94D8051AC18D2F51
:100E2000837081F5F11019C14C2F4295469547709A
:100E3000440F440F2C2F2F70042E01C0220F0A9450
:100E4000EAF7C4FF08C08FE090E001C0880F4A9520
:100E5000EAF7809501C080E09D2F96959695937056
:100E6000822B923049F058F4913019F00E94DF083B
:100E7000F4C00E94D908F1C00E94E508EEC00E94AB
:100E8000D608EBC0FF2019F08D2F817001C0869528
:100E9000882309F4E2C04C2F429546954770440FD1
:100EA000440F2C2F2F70042E01C0220F0A94EAF752
:100EB000C4FF08C08FE090E001C0880F4A95EAF7B0
:100EC000809501C080E09D2F969596959370822B1A
:100ED000923049F058F4913019F00E942B09BDC0AE
:100EE0000E942509BAC00E943109B7C00E94EE08CD
:100EF000B4C01D2F1F70FF2039F0812F0E94000900
:100F00008C2F0E94D105A9C08C2F0E94D805812F5B
:100F10000E940C09A2C0C23FD9F028F4C03F41F0A2
:100F2000C13F51F170C0C33FC9F0C43F09F16BC06C
:100F300080912A04FF2021F0081708F08AC003C01E
:100F4000801708F486C08D2F8F710E94190981C007
:100F50008D2F8F71FF2009F460C077C0FF2029F02A
:100F60008D2F8F710E94F70874C00E94F30871C022
:100F700080919F0382FD06C08D2F8F71FF2009F4A1
:100F800064C04BC080912404823040F1FF20C1F046
:100F90000E94FC0D843039F40E942B0F8D2F8F712D
:100FA0000E940C0955C080912404081708F050C015
:100FB0001D2F1F71812F0E94000963E0812F07C040
:100FC000081740F00E942B0F64E08D2F8F710E9454
:100FD0000D0F3EC081E00E94350F3AC0FF2051F056
:100FE0001D2F1F71812F0E94000963E0812F0E9435
:100FF0000D0F2FC081E00E94350F023050F182E0CA
:101000000E94350F26C0FF2059F0002321F08C2FBD
:101010000E946C051EC08D2F8F710E94000919C09F
:10102000002389F0C93329F4809128049091290480
:1010300004C080912604909127040E94FF048C2F05
:101040000E94920506C08D2F8F710E940C0901C06D
:10105000E12C88EF8B0D843020F40E94B52A0E9489
:10106000D404CE010E94FC05811105C010924D01EF
:1010700010924C0120C0FF2019F00111F7CF1BC0C6
:101080000111F4CF20E0F60140815181628173812A
:10109000848195810E94A703B6010E94B01D882318
:1010A00029F380914C0190914D010297F9F68C2F14
:1010B0000E94C305DBCFEE2089F00E94FC0D80FD6D
:1010C0000DC0F60115820E94F60D0E940009C601AE
:1010D0000E9492080E94F60D0E940C09CDB7DEB75F
:1010E000E9E00C9479350F931F93CF93DF93EC01D4
:1010F0008F819885009719F00E940C1105C06881B6
:1011000079818D810E94E9098C010E9437090E9432
:10111000C908B801CE010E942B06DF91CF911F9123
:101120000F910895CF93DF93FC0124812223D1F006
:10113000EC010E94960481110FC00E941A0E8823B0
:1011400089F08D81882371F080919F0382FF0AC00E
:1011500082E00E94350F06C0CE010E947308CE01C6
:101160000E94FF03DF91CF910895A6E0B0E0EBEB82
:10117000F8E00C9464352696E2E00C948035A9E002
:10118000B0E0E5ECF8E00C9462352996E4E00C94CC
:101190007E35089508950E94CA0808950E94CB08DC
:1011A00008950E94CE0880936A0108950E94D10894
:1011B000089590916A01892B0E94D1080895909119
:1011C0006A0189230E94D108089590916A018927B4
:1011D0000E94D10808950E94CA0808950E94EB0851
:1011E00080936901089580E00E94EE08089591E0DF
:1011F00001C0990F8A95EAF7892F0E94EE08089599
:1012000021E030E001C0220F8A95EAF78091690160
:10121000822B0E94EE08089521E030E001C0220FE9
:101220008A95EAF720958091690182230E94EE0851
:10123000089521E030E001C0220F8A95EAF78091FD
:10124000690182270E94EE08089590916901892B17
:101250000E94EE0808959091690189230E94EE088A
:1012600008959091690189270E94EE0808950895D4
:10127000962F9770A1E001C0AA0F9A95EAF793E024
:10128000769567959A95E1F7FB01EE0FFF1F6E0FBC
:101290007F1FFA01E60FF71F40E050E0682F70E073
:1012A00090819B01042E02C0369527950A94E2F79F
:1012B0002170219529272A23292721934F5F5F4FEA
:1012C0004330510569F708959B01782F777043E00B
:1012D000969587954A95E1F7FC01EE0FFF1F8E0F5B
:1012E0009F1FF901E80FF91F40E050E080E02191D5
:1012F00030E0072E02C0369527950A94E2F7217058
:101300003327042E01C0220F0A94EAF7822B4F5F85
:101310005F4F4330510559F70895282F9A3070F4E4
:10132000873060F4862F622F70E027E0929F600D77
:10133000711D11244EE451E00E94380908959A303D
:1013400070F4873060F4292F90E06EE471E037E0AC
:10135000239F800D911D11240E946409089580E04F
:101360000895CF92DF92FF920F931F93CF93DF9355
:101370006C010091690180916A01082BC3E0D0E003
:1013800010E0C8010C2E02C0959587950A94E2F7EB
:1013900080FD04C02197A8F7F12C07C0FC2EB601F0
:1013A0008C2F0E941F120197A9F38F2DDF91CF91EF
:1013B0001F910F91FF90DF90CF900895CF93DF930F
:1013C000EC010E94B109BE010E941F12DF91CF9172
:1013D00008951F93CF93DF93EB0190914B019923D5
:1013E00021F0CB010E94DE0913C0882349F0CB0114
:1013F0000E94B109182F682FCE010E948D0904C0E8
:10140000CB010E949F09182FBE01812F0E941F123D
:10141000DF91CF911F910895E1E0F0E0DF0102C07C
:10142000AA0FBB1F6A95E2F7BD01DF0102C0AA0F38
:10143000BB1F4A95E2F7AD01462B01C0EE0F2A957E
:10144000EAF7942F9823491302C08E2B0895E09554
:101450008E230895242F462F682F809169010E94C2
:101460000C0A0E94EE080895FF920F931F93CF93EA
:10147000DF93C0916B0189E0F82E80916C01C81751
:10148000B1F0D0E0FC9EF001FD9EF00D1124E35977
:10149000FE4F008111812281338144815581668113
:1014A000778180850E94BF082196C770E6CFCDB7AF
:1014B000DEB7E5E00C947D350F931F930091B501E5
:1014C0001091B6012091B7013091B8014091B90156
:1014D0005091BA016091BB017091BC018091BD0136
:1014E0000E94BF081F910F91089520916B01909168
:1014F0006C0159E02917A9F030E0529FF001539F89
:10150000F00D1124E359FE4F7181761306C07081EE
:10151000781303C07581741306C02F5F3F4F277087
:10152000E9CF80E0089581E00895A0E0B0E0EBE924
:10153000FAE00C945F358091BB0182958F7009F0C1
:1015400052C08091BA01882309F44DC0C0916B014B
:1015500089E0D82E80916C01C81709F444C0D0E00E
:10156000DC9E8001DD9E100D1124F801E359FE4F31
:1015700084818823A9F191818091B601981330C0AC
:1015800090818091B50198132BC08581811128C06D
:10159000E280F3808091B7019091B801E81AF90ACE
:1015A00060E085EB91E00E94D50365EB71E00E945D
:1015B000121BE816F906A0F48091BB018F708061C0
:1015C0008093BB01F801ED58FE4F80818F708061E0
:1015D000808385EB91E00E9492080E94340A03C048
:1015E0002196C770B7CFCDB7DEB7E7E00C947B3557
:1015F0002F923F925F926F927F928F929F92AF92C3
:10160000BF92CF92DF92EF92FF920F931F93CF93EF
:10161000DF93CDB7DEB768970FB6F894DEBF0FBE85
:10162000CDBF8C0186E0F801DE01539601900D924A
:101630008A95E1F7D80114967C9014971596EC9052
:1016400085EB282E81E0382E8091B90181111CC0D4
:10165000772009F456C0EE2009F450C0C8010E945A
:101660001706F82E882309F449C089E0F801A5EB94
:10167000B1E001900D928A95E1F785EB91E00E942F
:1016800063050E94950AB9C1F80160805180C2804B
:10169000D38060E085EB91E00E94D5035C01F0907F
:1016A000BA018091B7019091B801FF2009F421C1DE
:1016B0004601881A990A60E085EB91E00E94D50303
:1016C00065EB71E00E94121B8816990608F0ABC00A
:1016D0007720B9F08091BB01382F307F2091B6017F
:1016E000D80111969C911197332371F0291709F4B1
:1016F00057C0C8010E941706811166C0C8010E9428
:101700009208FF24F394B2C1291321C02091B5019E
:101710009C9129131CC04091BC015091BD011796AA
:101720002D913C9118974217530789F4E1100FC08F
:101730008F7080618093BB010E945C0A85EB91E011
:101740000E9492088091BB01F80186838EC1E1104E
:1017500011C040E0652D862D0E94750A882309F48A
:101760004FC165EB71E0C5010E94A51D882309F4F6
:1017700047C10DC08091BB0181608093BB0165EBC7
:1017800071E0C5010E94A91D882309F46EC185EB93
:1017900091E00E949208E5EBF1E089E0DF0158C09A
:1017A0002091B501F80190812913A3CF4091BC018C
:1017B0005091BD01278130854217530709F099CF19
:1017C000E11097CF8683E7C0EE2009F497CF2091F0
:1017D000BB01822F82958F7090E00297BCF08091C0
:1017E000B5019091B6019B878A87DD86CC86809172
:1017F000B9018E871F86288B8091BC019091BD0115
:101800009A8B898BCE010A960E94920889E0F80192
:10181000A5EBB1E001900D928A95E1F70E94950A3F
:101820000E945C0A6ECF8091BB01982F907FB1F42B
:101830006C2DDE8ACD8A462D552D7E89872D9E2DD5
:101840000E94B50885EB91E00E94920889E0D101E1
:101850001D928A95E9F70E945C0A07C1772009F476
:1018600050CF2091B601F801918129131AC020911F
:10187000B5019081291315C04091BC015091BD0163
:10188000278130854217530761F4E1100AC086832F
:10189000C8010E94920889E0D1011D928A95E9F75A
:1018A000E5C0C8010E941706882309F427CFEE205F
:1018B00009F424CF2091BB01822F82958F7090E094
:1018C00002970CF4A3CF8091B5019091B6019A8351
:1018D0008983DC82CB828091B9018D831E822F8324
:1018E0008091BC019091BD0199878887CE010196B6
:1018F0008BCF5601A81AB90A60E085EB91E00E94EF
:10190000D50365EB71E00E94121BA816B90608F01A
:1019100065C0772009F4F5CEFE2CEE2009F4EECE5A
:101920009091B601F801818198134AC09091B50158
:101930008081981345C02091BC013091BD01878101
:10194000908528173907E1F58091B7019091B8018A
:10195000C81AD90AF8ECCF16D10448F58091BB011A
:1019600080FD25C082958F70482F50E041155105AC
:10197000F1F02091BB01D80116962C9316974F30A9
:10198000510549F08F5F982F9295907F822F8F702D
:10199000892B16968C93C8010E94920889E0F80161
:1019A000A5EBB1E001900D928A95E1F726C089E0A0
:1019B000F801A5EBB1E001900D928A95E1F756C0D0
:1019C000C8010E941706811121CF8091BB0181605F
:1019D0008093BB01C8010E94920848C06C2DDE8A2A
:1019E000CD8A462D552D7E89872D9E2D0E94B508C6
:1019F00089E0F10111928A95E9F70E945C0A36C0EC
:101A000040E0652D862D0E94750AE82E81112DC0BB
:101A10006B8A5C8A8B899C890E94DE09292F22951A
:101A20002F70243020F49F70223028F009C02A50F3
:101A3000223080F014C0992349F0811107C013C0EF
:101A4000992321F0F8019681907F69F0805E8830BB
:101A500030F409C0803F38F0815F833020F0C80146
:101A60000E949208EF2CFE2C01C0F12C8F2D68965D
:101A70000FB6F894DEBF0FBECDBFDF91CF911F919F
:101A80000F91FF90EF90DF90CF90BF90AF909F901D
:101A90008F907F906F905F903F902F900895A2E17C
:101AA000B0E0E5E5FDE00C9461350A871B872C87E3
:101AB0003D874E875F87688B798B8A8BCE010A962C
:101AC0000E94F80A882371F04E854423C1F10A85EB
:101AD0001B852C853D855F85688979898A890E9467
:101AE000BF082DC089E0FE013A96DE0111960190F3
:101AF0000D928A95E1F76E85662309F120916C01BC
:101B000030E0C90101968770992740916B0150E040
:101B10008417950709F43FC06D8399E0929FD00127
:101B2000939FB00D1124A359BE4FFE013196019031
:101B30000D929A95E1F780936C010E94340A89E036
:101B4000F82E80916B0190916C01891789F1F89EB4
:101B5000C001112483599E4F0E94F80A882341F145
:101B6000E0916B01FE9EF0011124E359FE4F0081CC
:101B700011812281338144815581668177818085FD
:101B80000E94BF0880916B0190E0019687709927B1
:101B900080936B01D6CF0E94F70510926C011092D2
:101BA0006B01E5EBF1E089E0DF011D928A95E9F731
:101BB0006296E5E00C947D3580910A0490910B04C7
:101BC000892B89F00E94E62B2091C9013091CA012E
:101BD000AC01421B530B81E020910A0430910B04AD
:101BE0004217530708F480E0817008958091C8017E
:101BF00086958695869508958091C8018770089589
:101C00000E94E62B2091C6013091C701821B930BE5
:101C100020910A0430910B048217930740F08091C1
:101C2000C80182FB882780F991E0892701C080E004
:101C3000817008959091C801977081E009F480E067
:101C400008958091D60108959091D601892B8093B3
:101C5000D601089580959091D60189238093D6016D
:101C600008951092D60108958091D501089590911C
:101C7000D501892B8093D501089580959091D50148
:101C800089238093D50108951092D50108958091FC
:101C9000CC01089508950E944A0E08950E944B0EAB
:101CA0000895CF939091CC019823891779F0C82F8C
:101CB0000E94E62B9093CA018093C9018091CC01C8
:101CC0008C2B8093CC018C2F0E944E0ECF910895C7
:101CD0009091CC01292F282399F080958923809316
:101CE000CC01882319F00E94E62B02C080E090E02E
:101CF0009093CA018093C9018091CC010E944E0E3D
:101D00000895CF9390919F0392FF10C09091CC01C2
:101D1000981761F0C82F0E94E62B9093CA01809318
:101D2000C901C093CC018C2F0E944E0ECF91089513
:101D30008091CC01882349F01092CC011092CA0105
:101D40001092C90180E00E944E0E08950F931F93D8
:101D5000CF93DF930091000110910101C091D60152
:101D60008091D501C82B8091CC01882399F0809176
:101D70000A0490910B04892B29F00E94DC0D81113B
:101D80000E94980E8091CC01C82B0E94D42A811108
:101D90000E94980EF801C083C0910001D09101010A
:101DA00048E050E06EEB71E0CE010E949435892B43
:101DB00059F088E0FE01AEEBB1E001900D928A95FA
:101DC000E1F7CE010E94C92ADF91CF911F910F91B7
:101DD00008950E94A60E08950E944A0E08950E943A
:101DE000EC0E08959091CB01292F2823821729F01A
:101DF000892B8093CB010E94EF0E08959091CB0127
:101E0000292F282331F0809589238093CB010E94CC
:101E1000EF0E08950E944A0E089590919F0392FF3D
:101E200017C098E0899F90011124262B2093C801A8
:101E30000E9400090E94E62B9093C7018093C6017F
:101E40008091C8018695869586950E940A0F08950F
:101E50000E94000908951092C8011092C7011092C3
:101E6000C60180E00E940A0F08959091C8018095F4
:101E700089238093C801282F277069F4981759F097
:101E800090919F0392FF07C08695869586950E9444
:101E90000C090E942B0F089590919F0392FB22271B
:101EA00020F9281769F080FB92F990939F038091A5
:101EB0009E0390919F030E94950F82E00E94350F30
:101EC000089580919F0382FB882780F991E08927FC
:101ED0000E944C0F089581E00E944C0F089580E00D
:101EE0000E944C0F08956FEF7FEF80E090E00E941A
:101EF000FD35089580E090E00E94C935863E9E4FF2
:101F000019F40E940929089580E0089582E090E084
:101F10000E94C135089583E090E00E94C135089584
:101F200084E090E00E94C9350895BC0184E090E00F
:101F30000E94FD350895AB01BC018FE090E00E9446
:101F4000F1350895AB01BC0183E190E00E94F135C9
:101F5000089560E070E0CB010E94A20F089560E058
:101F600070E0CB010E949B0F0E94A90F0895A8E08A
:101F7000B0E0EDEBFFE00C94643566EE7EEF80E0C0
:101F800090E00E94FD3560E082E090E00E94DF3545
:101F900081E080936A0161E083E090E00E94DF3598
:101FA00060E074E184E090E00E94FD3560E086E04E
:101FB00090E00E94DF356FEF87E090E00E94DF3510
:101FC00040E050E0BA0188E090E00E94F13560E026
:101FD00084E290E00E94DF3560E087E190E00E94BB
:101FE000DF3560E08CE090E00E94DF3560E08DE05E
:101FF00090E00E94DF3519821A821B821C821D82AA
:102000001E821F82188648E050E068E170E0CE0131
:1020100001960E94CF3540E050E0BA0180E290E0A6
:102020000E94F13580E00E9422290E9457290E94D7
:10203000AF0F2896E2E00C9480350E94B70F089508
:10204000A6E0B0E0E6E2F0E10C9462350E94E62BF7
:102050008C018091D7019091D8010817190781F060
:1020600019821A820E94E62B682F49815A81792FA2
:1020700080E090E00E940A051093D8010093D701F8
:102080002696E4E00C947E350E9435136093E701B8
:102090007093E8018093E9019093EA016093E30172
:1020A0007093E4018093E5019093E601089581E047
:1020B00008950E945A15089508950E945C1008958D
:1020C0000E945C1008950E94601008950E945C10A8
:1020D00008950E94661008950E945C1008958FE490
:1020E00093E10E9463170E94E4170E94D01C0E9493
:1020F0006C100E94691008950E945D100E945C108F
:1021000008950E946E130E94D30408950E94DD2B4F
:102110000E940F130E9467290E9460150E94AE144E
:102120000E9481100E94EF230E9472150E9463108A
:1021300008950E945A15882331F00E9482280E9437
:10214000E1210E94181F0895A6E0B0E0EAEAF0E15C
:102150000C945B350E945710811103C00E9420101F
:1021600053C00E94D31489EDE82E81E0F82E670158
:1021700000E0F60111916F01802F0E949E138127CC
:102180000F5F0A3019F08823A1F302C0882331F3CE
:102190008091EB0181FD0E94A4130E945910A82E8A
:1021A00010E099249394812F0E949E13B82EF7017A
:1021B000C080C82609F100E0DD24D3948C2D8D2148
:1021C000A9F0AA2099F009831A830E94E62B9C8328
:1021D0008B839D8291E08B2D8D2109F490E04981C4
:1021E0005A816B817C818D810E940A050F5FDD0C15
:1021F000073021F7F701B0821F5FFFEFEF1AFF0AE8
:102200001A3089F60E9444100E9499100E94E60438
:102210002696EBE00C9477351F93CF93DF930E94C3
:102220002412EC01C11582E5D807C8F5C11590E567
:10223000D90708F0BBC0C83ED105C0F4C03ED105E7
:1022400008F0DDC0C53AD10550F4C430D10508F01E
:10225000D6C0219709F0D0C081E090E0D1C0CD3C3C
:10226000D10508F4C9C0CE019065CAC0C11580E48B
:10227000D80708F05AC0C11590E2D90708F0AFC0DE
:10228000C11581E0D80708F4B7C08D2F0E94C01295
:10229000182FCE0199270E9424121F71ABC0C0389D
:1022A00092E5D90720F5C03682E5D80708F061C06D
:1022B000C03492E5D90708F04AC0C03282E5D80799
:1022C000F0F54C2F4695469590E2499FA0011124C8
:1022D000C37021E030E0C90102C0880F991FCA9580
:1022E000E2F7EA01C82BD92BCE019D6889C0C03C1A
:1022F00092E5D90768F48C2F8F71C03AD24508F067
:102300004CC090E0D82FCC27CE01846F906A78C063
:10231000C03E82E5D80708F06FC0CF71DD27DC2F03
:10232000CC27CE01806F906A6BC0CE0199270E94A6
:102330002412CC27DF70D06A8C2B9D2B61C0CF710B
:10234000D0E0DC2FCC27CE01816F906A59C08C2F52
:102350008F718695869590E2899F90011124C370B4
:1023600081E090E002C0880F991FCA95E2F79C684F
:1023700011C08C2F8F718695869590E2899F900170
:102380001124C37081E090E002C0880F991FCA95A4
:10239000E2F79A68822B932B33C00E94C0128F7190
:1023A00090E0D82FCC27CE0190622AC08C2F8F715D
:1023B0000E94C01295E0D695C7959A95E1F7CF7027
:1023C000D0E0DC2FCC27282F30E084FF05C084E04C
:1023D000220F331F8A95E1F7D069CE01DBCF8D2F15
:1023E0008F710E94C012182FCE0199270E942412CB
:1023F0001F719062912B04C080E090E001C0CE017B
:10240000DF91CF911F9108952091DE023091DF027C
:10241000232B91F4703F39F4603F71F480910604EE
:102420009091070408957A3038F4673028F4462FE5
:10243000672F0E94BA25089580E090E008950E94D9
:1024400004120E940C1108958238910569F1B0F4CC
:102450008133910509F475C048F48932910509F476
:1024600067C08A32910509F471C0089585339105DA
:1024700009F459C089339105B9F00895833E910557
:1024800089F138F4803E9105D1F0823E910529F121
:102490000895863E9105C9F1873E9105D9F1843EA4
:1024A000910509F06CC027C020919E0320FD57C004
:1024B00021FD55C020919F0323FD5BC008958091AD
:1024C0009E0380FD48C080919F0380FF48C080919B
:1024D0009E0384FD46C083EE51C080919E0382FF1F
:1024E0003CC0F5CF80919E0382FD37C080919F0351
:1024F00080FD35C0ECCF80919F0381FF36C0809175
:102500009E0384FD2EC087EE39C080919E0383FF19
:102510002AC0F5CF80919E0383FD25C080919F0343
:1025200081FD23C0ECCF80919E0385FD22C01FC09A
:1025300080919E0385FD1BC080919F0383FF19C07E
:102540000AC080919E0386FD16C017C080919E032D
:1025500086FD13C010C089E311C082EE0FC080EE6B
:102560000DC080E00BC086EE09C084EE07C085E395
:1025700005C089E203C08AE201C081E390E00895CA
:1025800090919E0392FF10C041E0282F24712430C7
:1025900009F040E031E0282F2871283009F030E0C0
:1025A000431711F02CE0822793FF10C041E0282F41
:1025B0002471243109F040E031E0282F28712831BE
:1025C00009F030E0431711F02CE0822730919F038F
:1025D00030FF10C051E0282F2171213009F050E068
:1025E00041E0282F2871283009F040E0541711F0FD
:1025F00029E0822731FF10C041E0282F21712131CD
:1026000009F040E031E0282F2871283109F030E04E
:10261000431711F029E0822794FD877E08951092D8
:102620009A0310929B0310929C0310929D030895AD
:10263000CF92DF92EF92FF926B017C010E945A15BC
:1026400081110EC00E94F22BC61AD70AE80AF90AB5
:10265000C0929A03D0929B03E0929C03F0929D0358
:10266000FF90EF90DF90CF9008950F931F930E94FB
:102670005A15882319F00E94F22B0EC00E94F22BEB
:1026800000919A0310919B0320919C0330919D032C
:10269000600F711F821F931F1F910F91089580E09B
:1026A00008950E94730F08950E94D3142FEF86E7B8
:1026B00091E0215080409040E1F700C000000E946E
:1026C000D31480E00E949E1380FF04C00E94511327
:1026D0000E944F2C08950E94541308950E947A0F6F
:1026E000811102C00E941D100E94860F8093EB0191
:1026F0000E94900F90939F0380939E030E946B1300
:102700000E948B0F0E94D608809169010E94EB08FD
:102710000895E82FF0E0E555FC4F2081822F90E0EE
:1027200021E030E002C0220F331F6A95E2F7282330
:10273000392381E0232B09F480E00895E82FF0E0AD
:10274000E555FC4F80810895089580EA8A95F1F758
:10275000089500C008950E94A513089508950E9449
:10276000AE1308950E94AF1308950E94AE1308950A
:102770000E94B51308950E94AE130895A5E0B0E03D
:10278000E4ECF3E10C9461350E945A156091B503B5
:102790008823E9F185E0F82E8E010F5F1F4FF801C5
:1027A0008F2D11928A95E9F7862F90E0B801855513
:1027B0009C4F0E948015882389F08091A00390E0AF
:1027C00045E050E0B80185559C4F0E94943521E0CA
:1027D0002093EC01892B61F410E016C08091EC018C
:1027E0008823D1F3F8011192FA94E9F71092EC01E1
:1027F000A091A003B0E0A555BC4F85E0F801019081
:102800000D928A95E1F711E00E94B2130DC070E0BD
:1028100065557C4F8091A00390E085559C4F0E94A8
:1028200009160E94BB1310E0812F2596E5E00C9459
:102830007D35F894E82FE295EF70F0E031A1282F74
:102840002F7081E090E001C0880F2A95EAF7982F59
:102850009095932391A392A1892B82A378940895B4
:102860000F931F93CF93DF93CCE3D1E089918F3FF8
:1028700011F00E94191481E0C134D807B9F7C5E3FB
:10288000D1E00CE311E089918F3F11F00E941914FF
:102890000C171D07C1F7DF91CF911F910F9108957C
:1028A000A0E0B0E0E6E5F4E10C945E358C01C62FC3
:1028B000D0E0CE01845C9E4F7C01FC0190819F3F63
:1028C00009F447C0D62EF894E92FE295EF70F0E0B6
:1028D00081A19F7021E030E001C0220F9A95EAF7B4
:1028E000822B81A382A12095282322A378940E9481
:1028F000A913E5E3F1E04CE351E031E0C12C219173
:102900002F3F89F0A22FA295AF70B0E090968C91E6
:1029100090E02F7002C0959587952A95E2F780FD8B
:1029200002C0832F01C080E0C82A330F4E175F0713
:1029300031F7F70180818F3F11F00E94191461E097
:10294000C11001C060E08D2D0E94AB13C00FD11FDC
:10295000C882CDB7DEB7E8E00C947A3580910201E9
:1029600080910201811102C095E001C090E0909336
:10297000B50385E0891B8093A0030E9430148AE090
:10298000EBEAF3E0DF01982F1D929A95E9F7E1EA6F
:10299000F3E0DF011D928A95E9F785E00E941115A9
:1029A0000E94B8130895AAE0B0E0E9EDF4E10C94B8
:1029B00061358E010F5F1F4F8AE0F80111928A95F1
:1029C000E9F7F12C6F2DC8010E945014F394F5E043
:1029D000FF12F8CF4AE050E0B80181EA93E00E948C
:1029E000943521E0009709F420E0892B41F08AE03A
:1029F000F801A1EAB3E001900D928A95E1F76091A8
:102A0000B50370E065557C4F45E081EA93E00E9494
:102A10001215182F0E94BE13812B2A96E5E00C9404
:102A20007D350895EF92FF920F931F93CF93DF931D
:102A30007C018B01C42F222351F081E08093EF01B0
:102A40000E94E62B9093EE018093ED0104C08091EB
:102A5000EF01811102C080E01AC08091ED019091D8
:102A6000EE010E94FE2B0597B0F3D0E0AE01B70156
:102A7000C8010E949435892B39F0AE01B701C80115
:102A80000E94A13581E001C080E01092EF01CDB736
:102A9000DEB7E6E00C947C35CF930E943A35C82F20
:102AA000811102C00E9435358C2FCF9108958091FD
:102AB000F30108958091F20108950E945A15089536
:102AC0000E944C158093F2010E945D158093F301E2
:102AD0000E945715809302010E945A1581110E948D
:102AE000B81508950E945A15811102C00E94BB15A5
:102AF000089581E09091F4019A3008F080E0089503
:102B00000F931F93CF93DF93EC018B018091F4011E
:102B10008A3038F4B801CE010E94061681111DC01A
:102B20000AC08091F0019091F1010E94FE2B843F38
:102B3000914080F715C08091F4018F3F19F08F5FAD
:102B40008093F4018091F4018A3060F00E94E62BBA
:102B50009093F1018093F00103C01092F40102C040
:102B600080E001C081E0DF91CF911F910F91089526
:102B70000E94C12C08950E94C42C0895A0E0B0E0EA
:102B8000E4ECF5E10C945F357901C82F880FDD0B7B
:102B900041155105A9F0FE0193E0EE0FFF1F9A9534
:102BA000E1F7ED5FFE4F818192818B509E4F208136
:102BB00030E04217530708F49A01A9010E94A13599
:102BC000CE010E94AC2DD82E8823D1F0011511051D
:102BD000B9F083E0CC0FDD1F8A95E1F7FE01ED5FD0
:102BE000FE4F438150E00417150708F4A801CD5F9C
:102BF000DE4F6C817D816B507E4FC7010E94A135F5
:102C00008D2DCDB7DEB7E7E00C947B350E94FB1627
:102C100008950E9412170895A4E0B0E0E2E1F6E101
:102C20000C94623560910C0270910D0280910E023D
:102C300090910F020E940D2C64367105810591055B
:102C400028F10E943513DC01CB010296A11DB11DB4
:102C500089839A83AB83BC8300E010E020E030E0FE
:102C600044E050E0BE016F5F7F4F82E00E94BE15DE
:102C7000182F882361F00E94F22B60930C0270934E
:102C80000D0280930E0290930F0201C011E0812F7C
:102C90002496E4E00C947E35A0E0B0E0E2E5F6E1B5
:102CA0000C945C357C015B016A010E9479158111ED
:102CB00003C001E010E002C00AE010E0C1E0D0E093
:102CC000B501C701F6010995811115C021960C17B0
:102CD0001D0794F0CC9F9001CD9F300D300D112435
:102CE00080E090E045E34A95F1F7000001968217F5
:102CF0009307C1F7E5CF81E0CDB7DEB7EAE00C94EA
:102D00007835A6E0B0E0E7E8F6E10C945C357B01AD
:102D1000C0904101D090420101E010E09E012A5F85
:102D20003F4F40E050E060E070E080E00E94BE1560
:102D3000182F882309F43EC056018FEFA81AB80A4D
:102D4000609108027091090280910A0290910B0231
:102D50000E940D2C643671058105910518F105E07E
:102D600010E09E012F5F3F4F40E050E060E070E0D8
:102D700081E00E94BE15182F65E070E0C5010E9439
:102D8000F02391E02E81281390E0192339F10E945D
:102D9000F22B609308027093090280930A029093C9
:102DA0000B0211C065E070E0C5010E94F0239E8116
:102DB0008913D5CF85E0F6013196DE011196019099
:102DC0000D928A95E1F7112349F085E0FE013196D5
:102DD000A3E0B2E001900D928A95E1F785E0E3E08F
:102DE000F2E0D70101900D928A95E1F7812F2696A6
:102DF000EAE00C9478350F931F93CF93DF93EC01A7
:102E00008B0141E856E10E944C16882331F04CE0DA
:102E100056E1B801CE010E944C16DF91CF911F916F
:102E20000F9108950F931F93CF93DF93C0914101AA
:102E3000D0914201CE01019625E0FB01DC01019019
:102E40000D922A95E1F765E070E00E94F0238883F7
:102E50006E817F81888599850091FF011091000224
:102E600020910102309102026017710782079307D7
:102E700051F06093FF0170930002809301029093E0
:102E800002020E941813DF91CF911F910F910895B4
:102E90000E94892F0E9486100E94962F08950E94FA
:102EA0009B2F0E94A4100E94B52F08950E947D2B95
:102EB0000E946F2F0E946F100E9448170E944F17A8
:102EC0000E947C10FBCF90934501809344010895AC
:102ED00081152CE7920759F48091E0029091E1026C
:102EE000892B19F480E090E0089580E09CE7089534
:102EF000E8E4F2E080E090E06BEE7AE141E75AE14D
:102F00002BEF39E1778366835187408733872287A8
:102F100097878687019670968830910599F708956E
:102F2000CF92DF92EF92FF921F93CF93DF93CDB7B3
:102F3000DEB72A970FB6F894DEBF0FBECDBF80E58F
:102F4000E6EBF3E0DF011D928A95E9F788E3E0E123
:102F5000F2E0DF011D928A95E9F786EBC82E83E047
:102F6000D82E7F0110E0F701D182C082BE016F5FD1
:102F70007F4F812F0E949224892B79F488E0FE01F3
:102F80003196D60101900D928A95E1F789859A854F
:102F9000D70113969C938E931297BAE0CB0ED11C57
:102FA000E7E0EE0EF11C1F5F1830E9F62A960FB627
:102FB000F894DEBF0FBECDBFDF91CF911F91FF9080
:102FC000EF90DF90CF9008950E9478170E9490179D
:102FD0000895CF92DF92FF920F931F93CF93DF93C9
:102FE000CDB7DEB72A970FB6F894DEBF0FBECDBFC0
:102FF000603209F0A8C1DC011196EC9111974E2FB7
:1030000050E04E30510508F09EC18C01FA01EE5996
:10301000FF4F0C94473588E0EDE2F1E0DE011196B8
:1030200001900D928A95E1F780E2F80111928A955C
:10303000E9F786E0D8018C9311961C9211971296AD
:103040001C92129713961C92139788E0FE013196FA
:10305000149601900D928A95E1F775C18CE1FD01FE
:10306000808381E08183128213826DC1DC0113961B
:103070008C91139790E0982F882712962C91820FAD
:10308000911D092E000CAA0BBB0B45E0880F991F60
:10309000AA1FBB1F4A95D1F7AC01BD01405E5F4F2F
:1030A0006F4F7F4F481759076A077B0708F44BC1DA
:1030B0008C31E1E09E07A105B10508F044C14D3116
:1030C000F1E05F076105710520F04CE151E060E03F
:1030D00070E0481B590BBC0168567D4FC8010E9427
:1030E0008B3531C140E250E06FEF70E00E94AA35AD
:1030F0008091E002D8018C938091DE0211968C932E
:10310000119712961C92129713961C92139781E0B6
:1031100014968C93149715968C9315C181E090E0CA
:103120009093DF028093DE0282E390E09093DD02D1
:103130008093DC020E94E62B9093DB028093DA02FC
:1031400002C18091DE029091DF02892BC9F160E01B
:1031500080E00E948913D82E61E081E00E948913EB
:10316000F82E8091DA029091DB020E94FE2B8536C8
:10317000910500F1DD20F1F0FF20E1F00E94E62B47
:103180009093DB028093DA028091DC029091DD0261
:1031900001979093DD028093DC02892B89F41092D1
:1031A000DF021092DE0281E090E09093E1028093D2
:1031B000E00206C082E390E09093DD028093DC029F
:1031C0008091E002F80180838091DE02818380910A
:1031D000DC028283B8C01092E1021092E002B3C018
:1031E00040E250E0BC01DC0112968D919C91139756
:1031F0000E942A1DA8C0BC016F5F7F4F4FE150E0C5
:10320000FC01828193810E94591D0AC0BC016C5F40
:103210007F4F4CE150E0FC01828193810E94741D3C
:10322000D8018C9390C00E94F61C8DC0FC01828155
:10323000823009F443C0A8F48823B1F1813009F049
:1032400082C013968C912AE0F22EFE0131966F0116
:10325000DF01EF2D1D92EA95E9F7B6010E9468247F
:103260006BC0833009F459C0843009F06CC01396E8
:10327000FC9013978AE0FD013496DE0111960190CF
:103280000D928A95E1F789859A850E9468179A8739
:103290008987BE016F5F7F4F8F2D0E94A724F801A1
:1032A00080830E9490174FC080E21D928A95E9F7B3
:1032B00088E0F80180838183128245C01396FC90D8
:1032C00013978AE0FD013496DE01119601900D926C
:1032D0008A95E1F789819A810E9468179A83898388
:1032E0008B819C810E9468179C838B838D819E813A
:1032F0000E9468179E838D838F8198850E9468172E
:1033000098878F83BE016F5F7F4F8F2D0E947D2432
:10331000F80180830E94781716C013968C919AE06A
:10332000F92EFE0131966F01DF01EF2D1D92EA9516
:10333000E9F7B6010E949224D8018D93F60101901D
:103340000D92FA94E1F72A960FB6F894DEBF0FBEFD
:10335000CDBFDF91CF911F910F91FF90DF90CF9064
:103360000895A6E0B0E0E7EBF9E10C9464359093A2
:10337000070480930604811520E2920718F40E9446
:10338000680310C080EF89838A830E94E62B8160E6
:10339000682F9C838B8349815A817C8181E091E0F5
:1033A0000E940A052696E2E00C948035A6E0B0E083
:1033B000ECEDF9E10C9464359093070480930604D6
:1033C000811520E2920718F40E947F0310C080EF5D
:1033D00089838A830E94E62B8160682F9C838B837C
:1033E00049815A817C8181E090E00E940A052696FD
:1033F000E2E00C9480350F931F93CF93DF938C0101
:10340000EB0168EC72E08C2F0E946824892B09F094
:103410004AC08091260490912704009741F0EFE97B
:10342000FFE03197F1F700C000000197F6CFDD27EC
:10343000CE52DD4F8881F80112821882833079F0F4
:1034400048F4813041F1823071F58091CA02909147
:10345000CB0209C0843051F08530E9F024C080915E
:10346000CC029091CD020097B1F01BC08091CE02AA
:103470009091CF020097A9F42091C8023091C9021F
:103480008091CA029091CB022115310541F000973D
:1034900041F4C90106C08091C8029091C902009709
:1034A00011F00E94D619DF91CF911F910F910895CD
:1034B000CF93DF93EC010E94B11980912604909183
:1034C0002704009741F0EFE9FFE03197F1F700C0E2
:1034D00000000197F6CFCE010E94D619DF91CF915F
:1034E00008950F931F93CF93DF938C01EB0168EC4A
:1034F00072E08C2F0E946824892B09F067C0DD27B9
:10350000F8018281813039F4958192FD13C090FFDA
:1035100011C082E00FC0823041F4F801858182FD44
:1035200006C080FD06C083E005C086E003C085E0DC
:1035300001C084E0CE52DD4F88838330B1F028F49F
:10354000813071F0823031F041C08430A9F0853093
:1035500079F13CC08091CA029091CB020097A1F50D
:103560008091C8029091C90220C08091CC029091B4
:10357000CD020097E9F028C08091CE029091CF0251
:10358000009711F58091C8029091C902009749F007
:103590000E94581A8091CA029091CB02009781F044
:1035A00013C08091CA029091CB02009779F00CC0B1
:1035B0008091C8029091C902009741F00E94581A68
:1035C0008091C8029091C9020E94B119DF91CF91F8
:1035D0001F910F9108950F931F93CF93DF938C0149
:1035E000862F68EC72E00E946824892BB1F4C091A8
:1035F000C802D091C902209781F0F80182818330FE
:1036000039F4CE010E94581ACE010E94581A02C005
:10361000843018F0CE010E94581ADF91CF911F918B
:103620000F910895AAE0B0E0E8E1FBE10C94603569
:103630008C017B0197558F3F910509F058F4BE012D
:103640006F5F7F4F802F0E946824892B19F4898532
:103650009A8504C0B701C8010E94A01D2A96E6E021
:103660000C947C35CF93DF93FB012581211145C05C
:10367000EC01D755CF3FD10511F008F03EC068EC02
:1036800072E08C2F0E946824892BB9F5CE0124E0CA
:10369000880F991F2A95E1F7FC01E85BFD4F228115
:1036A0002130C9F42091C8023091C902232B29F19D
:1036B0002091CA023091CB02232BF9F02091CC0249
:1036C0003091CD02232BC9F42091CE023091CF024C
:1036D000232B49F012C0223081F42091CC0230918A
:1036E000CD02232B51F0FC01E35BFD4F20812E7FA7
:1036F0002083885B9D4F0E94C72781E0DF91CF9197
:103700000895A0E0B0E0E7E8FBE10C945C354430BC
:10371000510508F46CC040919E0341FBCC24C0F8D5
:10372000D12CCC0CDD1C42FB882780F9C82FE0E0AF
:10373000DE2FCC0FDD1FCC0FDD1FCC2ADD2A40FB96
:10374000EE24E0F8F12CEC28FD2843FBAA27A0F991
:10375000B0E023E0AA0FBB1F2A95E1F7EA2AFB2A73
:1037600044FBEE27E0F9F0E034E0EE0FFF1F3A955E
:10377000E1F7EE29FF2945FB222720F930E055E04B
:10378000220F331F5A95E1F72E2B3F2B46FB88273C
:1037900080F990E0E6E0880F991FEA95E1F7822B27
:1037A000932B47FB442740F950E05695542F44276C
:1037B00057954795842B952B20919F03322F31707D
:1037C000132F00E0082B192B26952170B22EBB0C6D
:1037D000A12C0A291B29012E000C220B330BFB0103
:1037E000008311832283338380E090E002C08FEF57
:1037F0009FEFCDB7DEB7EAE00C947835CF92DF9239
:10380000EF92FF924430510508F46FC0FB01C08075
:10381000D180E280F3800E94F70580919E03C0FA78
:1038200080F9B701A601769567955795479540FBB6
:1038300081F9B701A60122E07695679557954795DE
:103840002A95D1F740FB82F9B701A60133E07695BE
:103850006795579547953A95D1F740FB83F9B7019E
:10386000A601E4E07695679557954795EA95D1F7D7
:1038700040FB84F9B701A601F5E076956795579569
:103880004795FA95D1F740FB85F9B701A601A6E067
:103890007695679557954795AA95D1F740FB86F998
:1038A000B701A601B7E07695679557954795BA9504
:1038B000D1F740FB87F980939E0380919F03D0FA54
:1038C00080F999E0F694E794D794C7949A95D1F744
:1038D000C0FA81F980939F0380919E0390919F038A
:1038E0000E94950F80E090E002C08FEF9FEFFF9065
:1038F000EF90DF90CF900895809108049091090493
:103900000E944E1F08959C01CA01F901329645910B
:1039100054918417950750F0CB01F90134966591C5
:1039200074910E94A13580E090E008958FEF9FEFA1
:1039300008950F931F93CF93DF9308E014E0C0E046
:10394000D0E0CE010E945624F80161918F018617C4
:1039500019F0CE010E9460242196C432D10589F766
:10396000DF91CF911F910F910895DA019C012E5F95
:103970003F4FF90145915491F90125913491A217D6
:10398000B30758F0FC013496859194910E94A135BB
:103990000E94991C80E090E008958FEF9FEF0895BA
:1039A0000F931F93CF93DF9308E014E0C0E0D0E0C3
:1039B000CE010E945624F80181938F012196C432D2
:1039C000D105B1F7C0E0D0E0FE01E254FC4F859193
:1039D0009491009711F0FC0109952C96C039D105FE
:1039E00099F7DF91CF911F910F910895E8E0F4E0EE
:1039F000128E138E8FEA90E09183808385E0848F0E
:103A000028E833E13383228322E330E0378B268BAF
:103A100028EC30E0318F208F158E178E168E20E522
:103A200030E031A320A382A30E94991C0E94F705D5
:103A300010929F0310929E03EFE9F3E0808184606F
:103A4000808380919E0390919F030E94950F0E9416
:103A5000D01C0895EF92FF920F931F93CF93DF93A3
:103A60007C01EB018A016FEF70E0CE010E94AA3564
:103A700024EB33E080E090E0AC014E5F5F4F041731
:103A8000150790F0F90165917491E616F70630F488
:103A9000FE01E80FF91F71836083CA01245F3F4F65
:103AA00044E02434340741F7CDB7DEB7E6E00C94A8
:103AB0007C359C0184EB93E0FC01A591B4912A171D
:103AC0003B0741F00C96E4E084349E07A9F78FEFA2
:103AD0009FEF0895FC01369625913491211531050B
:103AE000B1F3F90109950895CF93DF93C4EBD3E0C7
:103AF000FE01259134918217930731F02C9624E032
:103B0000C434D207A9F707C0FE0138962591349135
:103B10002115310519F48FEF9FEF0FC0CE01F90188
:103B20000995009751F4FE013A968591949100977A
:103B300011F0FC01099580E090E0DF91CF910895AC
:103B40008091200490912104089580912504817032
:103B50000895809125048695817091E089270895C4
:103B60008091250483FB882780F9089580911E04A5
:103B700090911F0408958832910550F48E3191057B
:103B8000A0F4049700F1809123048295817012C003
:103B90008933910530F48D32910578F48B9769F073
:103BA00012C08436910549F00EC08091230483FB36
:103BB000882780F991E0892708958091230482FB6A
:103BC000882780F9F7CF80E008958091230485FB52
:103BD000882780F908958091230486FB882780F93F
:103BE000089580911B01877F80931B0182E00E94D2
:103BF0003D0E80911B0184FF06C08F7E80931B01C8
:103C000082E00E94240E80911B0185FF06C08F7DFB
:103C100080931B0180E20E94240E0E94E90E089509
:103C2000CF93DF93EC01662319F082E00E94370EF8
:103C3000CE0190528115904318F4CE01992701C00E
:103C4000CE010E946803DF91CF9108959C0130520C
:103C50002115304308F499270E947F030895FC0141
:103C6000FF2724E0F695E7952A95E1F79C012F7050
:103C70003327EE0FFF1FEE51FD4F81E090E002C0B1
:103C8000880F991F2A95E2F7662329F02081318158
:103C9000822B932B06C080959095208131818223C1
:103CA0009323918380830895FC0123E0F695E795A3
:103CB0002A95E1F7EE71FF27EE51FD4F8F7099279E
:103CC00021E030E002C0220F331F8A95E2F78081A5
:103CD00091812823392381E0232B09F480E0089582
:103CE000A0E0B0E0E6E7FEE10C945F35EC017B017B
:103CF000D42E890180911B0182FF80C020910B038B
:103D000030910C032C173D0719F0209709F076C06D
:103D100090911B019B7F90931B0191FD11C080919D
:103D20000D0390910E03A701481B590B61E0809190
:103D30001C0190911D014817590718F460E001C05B
:103D400061E0617080911B0160FB81F980931B0130
:103D5000C9010E942F1E0E94210E81FF08C0809180
:103D60001B01806180931B0182E00E942A0E0E9449
:103D7000210E85FF08C080911B01806280931B018A
:103D800080E20E942A0E60911B0166956170A80175
:103D900080910B0390910C030E94101ED11005C05E
:103DA000809126049091270413C0B80180910B03E1
:103DB00090910C030E94E51D882391F3B801809136
:103DC0000B0390910C030E94EB1D8111E9CF2BC0D6
:103DD000009741F0EFE9FFE03197F1F700C00000F4
:103DE0000197F6CF60911B0166956170A8018091E3
:103DF0000B0390910C030E94261E0FC0CE010E945F
:103E0000541EA801682FCE010E94261E80910B032C
:103E100090910C03C817D90711F40E94F11DF0927C
:103E20000E03E0920D03CDB7DEB7E7E00C947B35CF
:103E30008091230480FF1EC080911B0182FF1AC065
:103E40000E94E62B20910D0330910E03AC01421B22
:103E5000530B20911C0130911D014217530750F064
:103E600022E033E041E0BC0180910B0390910C0310
:103E70000E94701E089580911B01982F909590FBD1
:103E800080F980931B010E94F11D089580911B0110
:103E90008E7F80931B010E94F11D089590931D0158
:103EA00080931C010895A0E0B0E0E9E5FFE10C94E7
:103EB0005E352091230420FF35C08B01EC010E9468
:103EC000E62B6C01F8018581882379F180911B0133
:103ED00082FF08C022E033E040E0B60180E090E0DD
:103EE0000E94701EC431FCE7DF0789F0C5312CE762
:103EF000D20751F0C3318CE7D80759F480911B01E8
:103F0000816080931B0105C00E943B1F02C00E947C
:103F1000461FCE01905281159043E0F410920C039D
:103F200010920B03FF24F394D2C0C13ED10521F4BB
:103F300080911B018F7E06C0C53ED10531F4809172
:103F40001B018F7D80931B0105C0CE01905281150E
:103F5000904340F380911B0180FFE4CFB801CE0174
:103F60000E94BB1DF801F580882309F4ADC0FF2035
:103F700009F4A3C00E94210EF82E0E94470E8F293B
:103F80008D7FB9F010920C0310920B0380912304E3
:103F900081FD0FC060E0CE010E942F1EA80160E0ED
:103FA000CE010E94101E0E94470E8D7F0E94810E3E
:103FB0007FC089E0F801A2E0B3E001900D928A95FC
:103FC000E1F7109205031092040380910B03909186
:103FD0000C03C817D90709F04BC0B801CE010E94E5
:103FE000E51D882309F444C080911B0181FD12C0A6
:103FF00080910D0390910E037601E81AF90AB80139
:1040000080910B0390910C030E94121BE816F90695
:1040100078F50AC0B80180910B0390910C030E94BF
:10402000EB1D8111E5CF24C00E94210E81FF08C045
:1040300080911B01806180931B0182E00E942A0E07
:104040000E94210E85FF08C080911B018062809331
:104050001B0180E20E942A0E60911B01669561702F
:10406000A80180910B0390910C030E94101E23C0A5
:104070000E94210E182F0E94470E812B8695817079
:1040800090911B0180FB91F990931B010E94470EB8
:104090008D7F0E94810ED0930C03C0930B03D092AE
:1040A0000E03C0920D0380911B01846080931B015D
:1040B00082E00E94350FF12C0AC0980140E0B60161
:1040C000CE010E94701E03C0F11028CF2BCF8F2D80
:1040D000CDB7DEB7E8E00C947A350895EF92FF9201
:1040E0000F931F93CF93DF9380918203882309F46A
:1040F00041C0C0910F038DE0F82E80918203C81754
:10410000A8F5EE24E394EC0EE0920F03D0E0FC9EC1
:10411000F001FD9EF00D1124E65EFC4F84818823A2
:1041200019F187819085892B51F4818592858F3F84
:104130002FEF920721F061E00E946D200BC00081FB
:104140001181228133814481558166817781808507
:104150000E944F0DFC9EF001FD9EF00D1124E65EC5
:10416000FC4F14820E94440ECE2DC7CF10928203C2
:1041700010920F03CDB7DEB7E6E00C947C350895BE
:104180001092840310928303E0E1F2E085818111B3
:1041900002C014821682379682E0E834F807B1F73D
:1041A0000895BC014091180380911903942F98172A
:1041B00029F1292F30E0F901EE0FFF1FE05FFC4FDE
:1041C0000190F081E02DE617F70799F487E0869FCC
:1041D000F001879FF00D1124E05FFD4F81E08483A3
:1041E00094130CC02F5F3F4F237033272093180385
:1041F00008952F5F3F4F922F9370D9CF08956F92FC
:104200007F929F92AF92BF92CF92DF92EF92FF92F6
:104210000F931F93CF93DF93DB0114962C91149788
:10422000211160C0A0908203EAE1F3E020E030E0D9
:10423000B12C66246394712C2A1508F051C0E384D4
:10424000F484CD90DC9011976FEF7FEF912C492D86
:1042500050E08A01000F111F0C0D1D1DE80108819F
:1042600019810115110531F0E016F10609F4BA01C2
:104270009394EDCF6F3FDFEF7D0771F1E30102C053
:10428000CC0FDD1F6A95E2F7BC2AB30102C0660FAE
:10429000771F9A94E2F7AB01415051096B2D70E002
:1042A00046175707C1F412964D915C9113976DE034
:1042B000629FF001639FF00D1124E65EFC4F508772
:1042C000478324E02483108211829287818721E032
:1042D00015962C9305C014822F5F3F4F3D96ACCFAF
:1042E0000E94D120DF91CF911F910F91FF90EF900D
:1042F000DF90CF90BF90AF909F907F906F90089588
:104300001F93CF93DF93C091180317E08091190397
:10431000C817A1F0D0E0FE01EE0FFF1FE05FFC4FD9
:1043200080819181189FB001199F700D1124605FE9
:104330007D4F0E94FF202196C370E8CF0E946E201F
:104340000E94C020DF91CF911F9108951F93CF93BA
:10435000DF93DC01DC9111961C91119780E090E0D5
:1043600020E0ED2FF12FE20FF11DE20FF11D408152
:10437000518141155105B9F0FB01C081318190E0B7
:10438000EC2FF32FE90FF11DE90FF11D0190F081E2
:10439000E02D309731F04E175F0709F481E09F5F01
:1043A000EFCF2F5FDECF882321F0921728F0CD01C9
:1043B00004C080E090E001C0CB01DF91CF911F915C
:1043C000089580911E01882341F180918503909189
:1043D0008603009711F10E94FE2B209183033091F8
:1043E000840328173907C8F49091180380911903A2
:1043F000981759F00E948021109284031092830331
:10440000109286031092850308950E946E201092E8
:104410008603109285030E94C0200895109286039F
:104420001092850310921E01809119038093180346
:104430000E94C0200E946E20089580911E01882352
:1044400019F00E940E22089581E080931E010895C4
:10445000ADE0B0E0EEE2F2E20C9454354C016B01B9
:1044600080352CE7920741F4FB0115811123C9F037
:1044700081E080931E01AEC18135FCE79F0739F4CE
:10448000FB011581112369F00E940E22A3C1823520
:104490009C4739F4FB011581112319F00E941D225C
:1044A00099C19091690180916A01892B0E94AC04A5
:1044B000182F0E94BF20181731F0F601608171811A
:1044C0000E9404124C0160E1E62E62E0F62EA12C5F
:1044D000B12C1C8666246394712CCE0101969B87B7
:1044E0008A87F7012081318144244A94542C212C5D
:1044F000822D90E0FC01EE0FFF1FE20FF31F4081C1
:1045000051814115510531F08416950609F42C01AD
:104510002394EECFFFEF4F165F0609F405C1F701B4
:104520006481611103C080911E0102C080E090E0AF
:104530008170F6013580332009F492C0882309F494
:104540008FC0B701C5010E94B61D8C01F70185819E
:10455000811114C0C301042C01C0880F0A94EAF72A
:104560009681892B868380918303909184038017A1
:10457000910720F410938403009383039301022C8A
:1045800002C0220F331F0A94E2F721503109F701CC
:10459000868190E02817390709F0C7C0809185030C
:1045A00090918603009749F00E94FE2B0817190787
:1045B00020F421E0F7012483B8C020901803409133
:1045C00019034D8780E090E0ED852E1699F1422C7D
:1045D000512CF201EE0FFF1FE05FFC4F80819181B3
:1045E000E7E0E89F8001E99F100D1124005F1D4F57
:1045F000B701C8010E94A6210097A9F021E0FC01A3
:1046000024838E159F0509F490C02091180322126F
:104610000AC08017910739F492012F5F3F4F237032
:1046200033272093180392012F5F3F4F422F43708F
:10463000242ECACFE816F90609F477C0422C512C73
:10464000F201EE0FFF1FE05FFC4FB182A082FFEF8F
:104650004F1A5F0A23E0422255244092190365C095
:10466000F70195812681911115C0A301022C02C08A
:10467000440F551F0A94E2F74150510930E04217A8
:10468000530709F043C0662309F441C0C5010E94E5
:10469000D1203CC0822F90E09C0121503109282379
:1046A0003923042C02C0959587950A94E2F7232BB1
:1046B00059F580FF29C0F70182819381892BE1F0B0
:1046C000EA85FB8529E011922A95E9F70E94E62BFD
:1046D000282F8B839C8344E04D83F7018281938153
:1046E000782F8887998709811A813C815E816F8143
:1046F000892F0E944F0D04C060E0C5010E946D200B
:10470000F701158281E003C0817001C080E0930150
:10471000042C01C0220F0A94EAF72095F701968134
:1047200029232683382E01C0312CFC85F329FC87F0
:104730002FEFA21AB20A47E0E40EF11C88E0A81697
:10474000B10409F0CECEF6018581882379F1FC858C
:10475000FF2361F10E94E62B9093860380938503EB
:1047600080918203883098F591E0980F90938203AE
:1047700099E0F601DE01119601900D929A95E1F70C
:104780002DE0829FC0011124865E9C4F29E0FE012E
:104790003196DC0101900D922A95E1F72FEF3FEF62
:1047A000FC01328721879486838611C0909118037B
:1047B00080911903981719F00E94802108C00E9467
:1047C0006E2010928603109285030E94C02011E093
:1047D000FC851F27812F2D96E2E10C9470350895FA
:1047E000FC01680F791F8FEF91E3E617F70771F06F
:1047F0002191822728E030E087FF03C0880F8927B6
:1048000001C0880F21503109B9F7EFCF089584E036
:10481000089550E0440F551F2EE0629F400D511D3A
:1048200011249A016CE8869F200D311D1124C901C5
:10483000899608950F931F93CF93DF938430A0F44C
:104840006A3090F4473080F40E9409248C010E9461
:10485000C13590E0D82FCC27C80101960E94C13500
:104860009E01282BC90102C080E090E0DF91CF912A
:104870001F910F9108950F931F93CF93DF9384306F
:1048800080F46A3070F4473060F4E9010E94092432
:104890008C016D2F0E94DF356C2FC80101960E949C
:1048A000DF35DF91CF911F910F91089584329105EB
:1048B00028F4875A9D4F0E94C135089580E00895DD
:1048C0008432910520F4875A9D4F0E94DF35089568
:1048D000883080F49B01982F8AE0989FB0011124C2
:1048E00063587D4F4AE050E0C9010E94B13580E035
:1048F00090E008958FEF9FEF0895883080F49B013A
:10490000982F8AE0989FB001112463587D4F4AE0A8
:1049100050E0C9010E94033680E090E008958FEFD7
:104920009FEF0895883080F49B01982F8AE0989F2C
:10493000B001112463537D4F4AE050E0C9010E9449
:10494000B13580E090E008958FEF9FEF08958830B3
:1049500080F49B01982F8AE0989FB0011124635343
:104960007D4F4AE050E0C9010E94033680E090E0AC
:1049700008958FEF9FEF0895A4E1B0E0E2ECF4E238
:104980000C945E35C090E002D090E10281E090E0AE
:104990009093E1028093E00200E010E0F12C4F2DB3
:1049A000612F802F0E9416039C014F2D612F802FB5
:1049B0000E943B24F39487E0F812F1CF1F5F1A3076
:1049C00069F70F5F043049F70E94F61C1C861B86AE
:1049D0001E861D86188A1F861A8A198A88EC90E01E
:1049E0009C8B8B8B10E0BE01655F7F4F812F0E94F7
:1049F0007D241F5F1830B9F7FE0131967F018AE0F0
:104A000011928A95E9F710E0B701812F0E94A7243F
:104A10001F5F1830C9F7D092E102C092E00264969D
:104A2000E8E00C947A35EF92FF920F931F93CF93A7
:104A3000DF93EA017A01E60EF71E8C01C801899620
:104A4000CE15DF0569F0003322E0120720F40E9442
:104A5000C135888301C0188221960F5F1F4FEECFAA
:104A6000CDB7DEB7E6E00C947C35A0E0B0E0EBE338
:104A7000F5E20C945835EC016B017A0180339240D9
:104A800008F073C080E392E08C1B9D0B861797079C
:104A900008F46BC03E0139E2630E711C8091E002A4
:104AA0009091E102892B19F0CE0CDF1C59C0C0FF98
:104AB00011C0CE0188960E94C13590E0982F8827BA
:104AC000F7012081822B81159C4739F48FEFF70184
:104AD000808303C000E010E002C001E010E0CE01DE
:104AE0008C0D9D1D560180FF17C0F1E0AF1AB10873
:104AF00047018A0C9B1CC3018C0D9D1D0E94C13572
:104B0000F401208130E0322F2227282B21153C4749
:104B100019F48FEFF4018083F701E00FF11F2FEFFD
:104B2000CF018E199F098A159B0508F0BDCF8081A2
:104B300090E0982F88273181832B81159C4711F4B1
:104B4000208321833296ECCFC033E2E0DE0720F4ED
:104B5000F70160810E94DF35FFEFEF1AFF0A21960F
:104B6000CE018996EC14FD0479F7CDB7DEB7EEE0FF
:104B70000C947435843038F46A3028F4473018F4D3
:104B80000E941A24089580E090E0089580E108953D
:104B900083EE90E00895EF92FF920F931F93CF93CF
:104BA000DF93EA017A01E60EF71E8C01C801835EED
:104BB0009C4FCE15DF0561F0033E110520F40E94E5
:104BC000C135888301C0188221960F5F1F4FEECF39
:104BD000CDB7DEB7E6E00C947C35EF92FF920F93F1
:104BE0001F93CF93DF93EA017A01E60EF71E8C0143
:104BF000C801835E9C4FCE15DF0551F0033E1105C1
:104C000018F468810E94DF3521960F5F1F4FF0CFA7
:104C1000CDB7DEB7E6E00C947C35CF93DF93CDE1E2
:104C2000D3E060E0CE010E94DF352196C11584E01B
:104C3000D807B9F7DF91CF910895A4E0B0E0E3E29F
:104C4000F6E20C945A35F82E2FE0281708F4B4C079
:104C50008FEF93E00E94C1358111AEC00DE113E0EA
:104C6000FF2071F0011584E0180709F4A5C0C80100
:104C70000E94C135811101C0FA940F5F1F4FF0CF20
:104C800019821A821B821C82CC24CA947801EFEF0D
:104C9000EE1AFE0AC8010E94C13589831A82882350
:104CA00009F48AC0813009F081C05801F2E0AF0EEA
:104CB000B11CC7010E94C135D82E8A83882309F40C
:104CC0007BC08FEF8D0D833088F4780123E0E20EF6
:104CD000F11CC5010E94C1358B83811102C087017F
:104CE000D5CFCE0101960E94A427F9CF8BEF8D0D71
:104CF000833078F5480183E0880E911CC5010E943D
:104D0000C1358B83811102C07401E9CF7801E4E0E1
:104D1000EE0EF11CC4010E94C1358C838823F9F288
:104D20002B813C812130FFEF3F0718F0922F80E06C
:104D300001C0C90126E0D21631F0E7E0DE1631F0FD
:104D40000E94581ACCCF0E94B119C9CF0E94D6191F
:104D5000C6CFF4E0DF1611F07501C1CFC5010E9486
:104D6000C135D82E780124E0E20EF11CC80103966B
:104D70000E94C135DD2001F18823F1F0282F30E0B9
:104D800021503109C29EA001C39E500D11248D2DCA
:104D900090E00197840F951F019708F4A0CFEFE9E9
:104DA000FFE03197F1F700C00000F6CF60E0CE01E0
:104DB00001960E943D2793CF2496ECE00C94763523
:104DC000A0E0B0E0E6EEF6E20C945F35E82FF0E00C
:104DD000EC5BFB4FD490282F26952695269530E046
:104DE000F901EC51FB4F0491877010E0082E02C0CE
:104DF000159507950A94E2F701701127F901EC5215
:104E0000FB4FE490F12C082E02C0F594E7940A942D
:104E1000E2F791E0E922FF24F901EC53FB4FC49142
:104E2000D0E002C0D595C7958A95E2F7C170DD271D
:104E30000115110519F081EE0E946C05E114F104D1
:104E400019F086EE0E946C058D2D0E94C305E114B9
:104E5000F10419F086EE0E9492050115110519F072
:104E600081EE0E949205CD2B19F08CE20E94C305C1
:104E7000CDB7DEB7E7E00C947B35EF92FF920F934E
:104E80001F93CF93DF93EC01162F0AE088818823CC
:104E900009F455C0813009F043C08981813041F463
:104EA0007E0182E0E80EF11C8A810E94C30509C0E0
:104EB000823049F47E01E2E0EE0EF11C8A810E940C
:104EC0006C05E7012FC0833041F47E01F2E0EF0E64
:104ED000F11C8A810E949205F4CF843011F0219652
:104EE00021C02A81229680E090E030E020533109F1
:104EF0002A30310558F4089FA001099F500D112454
:104F0000C901840F951F21962881EFCF009751F09A
:104F1000EFE9FFE03197F1F700C000000197F6CF0D
:104F20000E94E0262196812F882309F4AFCFEFE974
:104F3000FFE03197F1F700C000008150F5CFCDB709
:104F4000DEB7E6E00C947C3560E00E943D270895D2
:104F50004115510511F0FA0109950895CF93DF939A
:104F6000EC014A855B856E857F850E94A8278B8131
:104F70000E943D0E8C810E942A0E0E94E90E86E05E
:104F8000FE0111928A95E9F7DF91CF910895CF93B1
:104F9000DF93EC018D8181FD11C082608D838B8157
:104FA0000E94370E8C810E94240E0E94E90E4885D3
:104FB00059856E857F85CE010E94A82710928A03AD
:104FC000109289038D8180FD03C0CE010E94AE271F
:104FD000DF91CF910895CF93FB01C581CC2319F1C7
:104FE0002091890330918A0321153105D9F02817C2
:104FF0003907C1F0AC01C901992724E0880F991F36
:105000002A95E1F7FC01E35BFD4F208124602083BA
:10501000885B9D4FFC01518340830E94C7270E94FB
:10502000440E01C0C0E08C2FCF910895EF92FF9203
:105030000F931F93CF93DF939C0137552F3F31057B
:1050400011F008F059C0FB017C018C01112784E0AC
:10505000000F111F8A95E1F7E801C85BDD4F9581CC
:10506000035B1D4FD8018C9190FB80F98C93858157
:10507000882349F10E94E62B90938803809387034D
:105080008A818F5F8A830E94210E8B830E94340E57
:105090009B81892B8B830E94470E8C834E815F817D
:1050A0006E857F85CE010E94A827F801808181FD51
:1050B00003C09E2D8F2D02C090E080E09093890365
:1050C00080938A0319C04C855D856E857F85CE01EE
:1050D0000E94A827D8018C9181FF0EC0CE010E94AA
:1050E000AE278091890390918A03E816F90621F48E
:1050F00010928A031092890381E0CDB7DEB7E6E013
:105100000C947C35A9E0B0E0E8E8F8E20C94623554
:105110008091890390918A03892B61F180918703A3
:10512000909188030E94FE2B8C01BE016F5F7F4F20
:1051300089E0FB0111928A95E9F7809189039091AA
:105140008A030E94121B80179107A0F480918903A3
:1051500090918A03992724E0880F991F2A95E1F7F7
:10516000FC01E35BFD4F208122FD04C0885B9D4F65
:105170000E94C7272996E4E00C947E351F93CF93B5
:10518000DF9387372CE7920721F088379C4759F047
:1051900031C0FB01C581CC2319F00E94002909C050
:1051A0000E94002918C0FB01C581CC2391F00E9408
:1051B00003290E9400090E940629D82F0E94032972
:1051C000C82F0E9400294D2F6C2F0E942A0AC0E090
:1051D00012C00E9403290E940C090E940629182F60
:1051E0000E940329D82F0E940029412F6D2F0E9471
:1051F0002A0A01C0C1E08C2FDF91CF911F91089541
:1052000080912101089580912001089580911F01CE
:10521000089585E290E00E94C135843781F486E2EA
:1052200090E00E94C135823051F487E290E00E9404
:10523000C13591E0833109F090E0892F01C080E011
:1052400081700895CF93C82F811102C06FEF01C004
:1052500064E785E290E00E94DF35C11102C06FEF84
:1052600001C062E086E290E00E94DF35C11102C019
:105270006FEF01C063E187E290E00E94DF35CF91DC
:105280000895089588E290E00E94C135682F70E08B
:1052900080E090E008950895CF93C62F0E944B2997
:1052A0006C2F88E290E00E94DF35CF91089580E076
:1052B0000E94222960E070E0CB010E944C290E94EC
:1052C000BC240E940D2681E00E94222908950E949C
:1052D00041290E9442290E944B290E9409298111DB
:1052E00002C00E94572908959C01FB0185818823F3
:1052F00051F0A90157574038510530F4C9010E94B7
:105300001D2680E0089581E008952FEFFC012083A1
:105310000895EF92FF920F931F93CF93DF93EC01C9
:10532000162F2091DE023091DF028881232B61F05D
:105330008E3F09F00CC18981833008F4FFC085508D
:10534000833008F004C1FAC08B3009F4E2C038F5AC
:10535000853009F475C0B8F48230E9F130F4813059
:1053600009F0F1C0198289E082C0833009F45BC082
:10537000843009F0E8C04B816A8189810E941A2437
:105380009C838D83E4C0873009F468C008F463C04F
:10539000883009F463C0893009F460C0D4C080311A
:1053A00009F490C060F48D3009F45EC008F459C06F
:1053B0008E3009F45EC08F3009F46CC0C4C08231F5
:1053C00009F487C008F481C0833109F492C08E3F8C
:1053D00009F4B4C0B8C08981823041F0833069F0EB
:1053E000813009F0B0C00E94F22B02C00E94422915
:1053F0009A838B837C836D83AAC08091E002909115
:10540000E102892B09F4A3C07E0122E0E20EF11C27
:1054100000E0802F0E949E13F70181937F010F5FB0
:105420000A30B9F794C08981823009F08CC06A8152
:105430007B818C819D810E944D350E944C2987C0C3
:105440002C813D813227232732274B816A81898134
:105450000E943B247CC00E94BC2479C08FEF8883CB
:1054600076C00E94C62533C00E94C82599838A83CE
:105470006EC089819A819827892798276B8170E06F
:105480006D31710508F063C0AE014C5F5F4F0E9443
:10549000CB255DC08091E0029091E102892B09F457
:1054A00056C089819A819827892798276B8170E057
:1054B0006D31710508F04BC0AE014C5F5F4F0E942B
:1054C000ED2545C00E940D2642C00E940724898315
:1054D0003EC089819A819827892798276B8170E03F
:1054E0006D317105A0F5AE014C5F5F4F0E94132531
:1054F0002EC089819A819827892798276B8170E02F
:105500006D31710520F5AE014C5F5F4F0E9435256E
:105510001EC08091E0029091E102892BC1F0CE0182
:105520000E94652EFFEF21EE84E0F1502040804084
:10553000E1F700C000000E944F2C09C0612FCE018E
:105540000E94E91704C0612FCE010E948529612FB6
:10555000CE010E94652ECDB7DEB7E6E00C947C3517
:1055600090938D0380938C0308950E945A158111A6
:1055700003C080918B030895E0918C03F0918D031B
:10558000309729F00190F081E02D0995089580E091
:105590000895E0918C03F0918D03309721F0028003
:1055A000F381E02D09950895E0910001F09101014A
:1055B000329697E080E0915029F021912223D9F38F
:1055C0008F5FF9CF0895882371F020910001309109
:1055D0000101F9013296285F3F4F9191891729F017
:1055E000E217F307D1F780E0089581E008959C0168
:1055F000FC0132969FEF80E04191461789F09F3F72
:1056000019F4411101C0982F8F5F8630A9F79F3F91
:1056100039F0F901E90FF11D97FDFA9562830895BC
:1056200008959C012A5F3F4FFC014281461301C04F
:105630001282019682179307B9F70895682F809117
:105640000001909101010E94F72A0895682F80912E
:105650000001909101010E94112B0895E091000139
:10566000F0910101329686E0DF011D928A95E9F7FB
:10567000089508950E94392B089583E080938E0346
:105680000E943A2B0895811102C081E001C082E09E
:1056900080938E030E943A2B08950E94432B089515
:1056A00081E080938E030E943A2B08950E94502B34
:1056B000089508950E94592B08950E945A2B089529
:1056C0000E94592B08950E94592B08950E94592B2E
:1056D0000895CF930E94632B0E94D3140E94602BE5
:1056E000C0E08C2F0E949E13811104C0CF5FCA308E
:1056F000C1F701C081E0CF91089585B7806885BF6B
:1057000085B7806885BF08951F920F920FB60F92DC
:1057100011248F939F93AF93BF9380918F03811137
:1057200013C080912C0490912D04A0912E04B0916F
:105730002F044196A11DB11D80932C0490932D043C
:10574000A0932E04B0932F04BF91AF919F918F919E
:105750000F900FBE0F901F901895809134048430E5
:1057600031F10E94A20410928F0320E488E190E0BE
:105770000FB6F894A895809360000FBE2093600048
:1057800083B7817F846083BF83B7816083BF789450
:10579000889583B78E7F83BF0FB6F894A8958091C4
:1057A0006000886180936000109260000FBE0895D1
:1057B0000E94F7050E94A704089582E084BD93E04B
:1057C00095BD9AEF97BD80936E0008952FB7F8941A
:1057D00080912C0490912D04A0912E04B0912F045F
:1057E0002FBF08952FB7F89460912C0470912D0469
:1057F00080912E0490912F042FBF08959C014FB7E4
:10580000F89480912C0490912D04A0912E04B091D5
:105810002F044FBF821B930B0895CF92DF92EF921C
:10582000FF922FB7F894C0902C04D0902D04E090F4
:105830002E04F0902F042FBFA7019601261B370BD3
:10584000480B590BCA01B901FF90EF90DF90CF9040
:10585000089578941F920F920FB60F9211248F9390
:105860009F93AF93BF9380912C0490912D04A091AE
:105870002E04B0912F040196A11DB11D80932C041C
:1058800090932D04A0932E04B0932F04BF91AF9159
:105890009F918F910F900FBE0F901F90189587E7E3
:1058A00097E790930108809300089AE088E10FB68B
:1058B000F894A895809360000FBE90936000FFCF8E
:1058C0009AE088E10FB6F894A895809360000FBE27
:1058D00090936000FFCF8EE14A9B02C08150E1F7B8
:1058E0004A9BFECF08955A9880E28A95F1F75A9A1A
:1058F0000895FC012AE02A95F1F728E090E080E085
:1059000031E040E14A95F1F7880F4A9B02C081607F
:10591000932700C0000040E14A95F1F7215089F734
:1059200020E12A95F1F729B100C0000030E13A9555
:10593000F1F722FB222720F992272081920F9083F2
:105940000895A1E0B0E0E7EAFCE20C94603519822A
:105950008C017C01E60EF11C0E151F0551F00E9412
:105960006B2CCE0101960E94792CF80181938F0156
:10597000F3CF81E09981911180E02196E6E00C94CB
:105980007C35529A5A9A089552985A9AEA9AE9E6B8
:10599000F0E080818F7C80830895615091E001C0A8
:1059A000990F6A95EAF720E031E0992361F0492FD9
:1059B000482319F05A9A232701C05A9840E24A9581
:1059C000F1F79695F2CF222311F05A9A01C05A9816
:1059D00080E28A95F1F75A980895FF920F931F93EA
:1059E000CF93DF93EC018C01060F111DC017D10777
:1059F00041F0F9900E94732C68E08F2D0E94CD2C0D
:105A0000F5CFCDB7DEB7E5E00C947D351F920F9250
:105A10000FB60F9211240F931F932F933F934F9321
:105A20005F936F937F938F939F93AF93BF93EF9306
:105A3000FF93CF93DF931F92CDB7DEB719820E94F9
:105A40006B2CCE0101960E94792C082F06950695A5
:105A50000695902F96959570202F2570920F292FDF
:105A6000237096959695920F877089135FC08981F0
:105A700081115CC0043008F059C080E18A95F1F7CB
:105A80005A9A529A82E08A95F1F700C05A9888E0B3
:105A9000089F80011124D801AD5FBE4F1696ED918D
:105AA000FC9117973097A9F06091410170914201E4
:105AB00014962D913C911597260F371F11968D91B5
:105AC0009C911297680F791F13964C9113978C91A4
:105AD0000995F801ED5FFE4F6381662351F08091D7
