:100000000C943B020C9458020C9458020C94101F50
:100010000C9458020C9458020C9458020C945802F8
:100020000C9458020C9458020C9409270C94DD2768
:100030000C9433210C9458020C9458020C945802DE
:100040000C9458020C9458020C9458020C945802C8
:100050000C9458020C94D6210C9458020C9458021B
:100060000C9458020C9458020C9458020C945802A8
:100070000C9458020C9458020C9458020C94580298
:100080000C9458020C9458020C9458020C94580288
:100090000C9458020C9458020C9458020C94580278
:1000A0000C9458020C9458020C9458020000220040
:1000B000210020001F001E0029000000170015006D
:1000C00008001A001400490000000A000900070097
:1000D000160004002B0020000500190006001B007C
:1000E0001D0049001E002C412C00E300E200E0004E
:1000F000E1000000230024002500260027002A003C
:1001000000001C0018000C00120013002A00000060
:100110000B000D000E000F002D0028002100110023
:10012000100036003700520038001F002C422C000F
:10013000E400500051004F00000022002100200088
:100140001F001E00290000002200210020001F00C7
:100150001E002B0000002202210220021F021E02AC
:10016000E0002000670054005500560057000000D2
:100170001E002C412C00E300E200E000E100000042
:10018000230024002500260027002A000000230069
:1001900024002500260027002A0000002302240254
:1001A00025022602270228002100350089002F128F
:1001B00030122D12E5001F002C422C00E4005000EC
:1001C00051004F0000002200210020001F001E00EF
:1001D000290000003E003D003C003B003A002B009F
:1001E000000034003312330031001F02E000200011
:1001F000C75CC65CC55CC35CC25C00001E002C41D1
:100200002C00E300E200E000E100000023002400F5
:100210002500260027002A0000003F004000410082
:10022000420043004C0000005000510052004F00BB
:100230002E0028002100C85CC95C2F00300031006E
:10024000E5001F002C422C00E400500051004F003C
:1002500000000000000000002A2B28000000000021
:100260000000000000000000000000290000000065
:100270002C1E3420212224342627252E362D3738D3
:10028000271E1F202122232425263333362E3738DC
:100290001F0405060708090A0B0C0D0E0F1011129A
:1002A000131415161718191A1B1C1D2F3130232D66
:1002B000350405060708090A0B0C0D0E0F10111264
:1002C000131415161718191A1B1C1D2F3130354C15
:1002D000000000000000000000000000000000001E
:1002E000000000000000000000000000000000000E
:1002F000000000007E0F00D4FFFFFFC70000007861
:10030000100363006F006F006C003600360034008D
:1003100000001403740065006C007A006F00320066
:1003200030003000300000000403090409025B00C3
:10033000030100A0FA0904000001030101000921E2
:100340001101000122400007058103080001090492
:100350000100020300000009211101000122220016
:10036000070582032000010705030320000109049B
:1003700002000103000000092111010001227B009D
:100380000705840320000112010002000000084359
:100390004D64060100010200010660FF0961A10130
:1003A0000962150026FF0095207508810209631572
:1003B0000026FF00952075089102C005010902A1E1
:1003C0000185020901A10005091901290815002567
:1003D0000195087501810205010930093115812552
:1003E0007F95027508810609381581257F9501756D
:1003F000088106050C0A38021581257F95017508CC
:100400008106C0C005010980A101850319012AB731
:1004100000150126B700950175108100C0050C0973
:1004200001A101850419012AA002150126A0029547
:100430000175108100C005010906A101050719E039
:1004400029E71500250195087501810295017508B8
:1004500081010507190029FF150026FF0095067583
:100460000881000508190129059505750191029576
:100470000175039101C011241FBECFEFDAE0DEBF8A
:10048000CDBF11E0A0E0B1E0EAE0F5E502C00590E3
:100490000D92A03EB107D9F722E0A0EEB1E001C075
:1004A0001D92A83FB207E1F70E9476140C945A2AD5
:1004B0000C94000083E0089581E0089581E00895A0
:1004C0000E945E02089508950E9463020895A5E0C7
:1004D000B0E0EDE6F2E00C94C62949835A833091EE
:1004E000E70189819A81311119C0662399F022238D
:1004F00089F00E945608182F682F89819A810E94DE
:10050000320869817A81812F0E94D81C2596E3E008
:100510000C94E2290E944408182FF3CF0E94560839
:1005200069817A81F1CFFC01262F4081518162815E
:10053000738184810E946702089581E00895CF93BA
:10054000DF93EC0160E00E949302BE010E9464020E
:10055000DF91CF910895E1E0F0E0DF0102C0AA0F42
:10056000BB1F6A95E2F7BD01DF0102C0AA0FBB1FE6
:100570004A95E2F76A2B01C0EE0F2A95EAF7962F0B
:100580009823961302C08E2B0895E0958E2308952C
:10059000242F462F682F809103020E94AB020E94F5
:1005A000920708950E944E1008950E9452100895D7
:1005B00008950E9424070E94D8022FEF84E39CE054
:1005C000215080409040E1F700C0000008950E9453
:1005D000D9020E94FA2108950E94D9020E940B229A
:1005E00008950F931F93CF93DF938C0161E00E94D6
:1005F0009302EC01B8010E946C17811106C080E0E3
:10060000DF91CF911F910F910895B801CE010E9403
:1006100060028823A1F3B801CE010E941E1E882328
:1006200071F3B801CE010E947318882341F3B80119
:10063000CE010E94901D882311F3F8018281882346
:1006400061F0CA35FDE5DF0701F158F4C115ECE5AD
:10065000DE0791F0CE3DDC4591F0C8010E945C02BE
:10066000CFCFCC358DE5D80769F090F0C73ADD459E
:10067000A1F70E94EC02C3CF0E94E702C0CF0E9404
:100680000F0DF7CF0E94490CE8CF0E94530CE5CF25
:100690000E94570CE2CF0E9410210E946803089527
:1006A0000E946C030E941521089508950E9455032D
:1006B000089581E008950E94590308950895CF9305
:1006C000C82F0E9456038C2F0E945B03CF91089580
:1006D00080E00E945F0308950E9436200E945F031D
:1006E0000895CF930E943620C82F8091E2018C1785
:1006F00079F0C093E2010E949F216093E30170931F
:10070000E4018093E5019093E6018C2F0E945F0342
:10071000CF910895ABE0B0E0E0E9F3E00C94C72995
:100720004F83588769877A878B8761110E94940B62
:100730001E821D8285E0FE013796DE011196019032
:100740000D928A95E1F78C819D81892B61F4498115
:100750005A816B817C818D819E810E94BD0A2B967E
:10076000E2E00C94E32989819A8189238F3F79F310
:10077000CE0101960E949D028111E9CFF0CFFC01CC
:10078000808191810E9483080895CF93C82F882388
:10079000C9F08238C9F40E94362081FD13C089E374
:1007A0000E944C0B0E94B50B2FEF87EE93E0215077
:1007B00080409040E1F700C0000089E30E94540BA4
:1007C0000E94B50BCF9108958338A1F40E94362082
:1007D00080FDF8CF83E50E944C0B0E94B50B2FEFF4
:1007E00081EE94E0215080409040E1F700C000008D
:1007F00083E5E4CF8438A1F40E94362082FDE2CF65
:1008000087E40E944C0B0E94B50B2FEF81EE94E021
:10081000215080409040E1F700C0000087E4CECF37
:100820008CEF8C0F813A90F46C2F809100019091A5
:1008300001010E94A120882329F08C2F0E94540BD3
:100840000E94B50B8C2F0E944C0BBACF80E28C0F0C
:10085000883048F4C77081E001C0880FCA95EAF774
:100860000E94770BADCFEBE5EC0FE33040F4F0E006
:10087000EA57FE4F808190E00E946320A3CFE8E515
:10088000EC0FE73150F4F0E0EE0FFF1FE85AFE4F97
:10089000808191810E94792095CFC03F08F492CF4A
:1008A0008C2F0E94FA140E94CD158CCF882309F456
:1008B00055C0823879F40E94362081FF4FC089E309
:1008C0000E944C0B0E94B50B89E30E94540B0E94BE
:1008D000B50B0895833859F40E94362080FF3EC03E
:1008E00083E50E944C0B0E94B50B83E5EECF843864
:1008F00059F40E94362082FF31C087E40E944C0BDD
:100900000E94B50B87E4E1CF9CEF980F913AE8F293
:1009100090E2980F983050F4877091E001C0990FE1
:100920008A95EAF7892F0E947D0BD1CF9BE5980F1E
:10093000933028F490E080E00E946320089598E5C9
:10094000980F973128F490E080E00E947920089574
:10095000803F20F00E9454150E94CD1508951F93EA
:10096000CF93DF93182FEB010E94C503209739F432
:10097000812F0E945604DF91CF911F9108958FE936
:100980009FE00197F1F700C000002197EFCF70E0E2
:1009900060E0893311F460E570E00E94AF040895CF
:1009A000882321F00E94770B0E94B50B08958823BD
:1009B00021F00E947D0B0E94B50B0895B0E0A0E0ED
:1009C000E4EEF4E00C94C0296C01D62FC72FFC0193
:1009D0001281F580F2949FE0F9220E946D0BE82EBF
:1009E0008823B9F0E12E1123A1F08C2F807F803471
:1009F00021F080E28D0F8830D0F08091D00282FF0C
:100A000016C082E00E94180C0E946D0B91E0E82E47
:100A1000E926BC2EB2948FE0B822FBE0FB1508F467
:100A200068C0EB2DF0E0E45AF54D0C94AA29E12CB6
:100A3000F0CF0C2F0F70C07F11F00295007F1123B3
:100A400099F0002359F080E28D0F883010F0D11119
:100A500007C0802F0E94770B0E94B50B8D2F41C0DD
:100A6000802F0E94870BF8CF8D2F0E945604002301
:100A700009F43FC080E28D0F883010F0D11104C01E
:100A8000802F0E947D0B03C0802F0E948D0B0E943F
:100A9000B50B2FC00C2F0F70C07FC03211F0029524
:100AA000007FDD2381F0D13009F463C0112309F404
:100AB0006DC0FF2009F463C0F601858180FFCECFB1
:100AC0008F7085835CC08091D00282FD33C011237A
:100AD00059F0002329F0802F0E94770B0E94B50B5C
:100AE00080E00E94C50305C080E00E945604011109
:100AF000C7CFEB2DE850FF0B349720F40E9436202F
:100B00000E945F03EE2089F00E94690B80FD0DC0FA
:100B1000F60112820E94630B0E94A607C6010E9482
:100B2000E4060E94630B0E94B207CDB7DEB7E9E08E
:100B30000C94DC29112389F0F11006C00E94970B58
:100B4000802B0E94D004D5CF21E0F212F7CF0E9473
:100B5000970B802B0E949E0BCCCFF11006C00E94F9
:100B6000AB0B802F0E94D704C4CF31E0F31609F2FB
:100B7000F6CF112331F085E08F1508F4BACF802F1E
:100B8000E0CF94E09F1508F4B4CFEBCFFF2049F3FA
:100B9000D93349F4FFEF27EE33E0F15020403040E5
:100BA000E1F700C000008D2F0E945604A2CF8C2FC9
:100BB00086958695837069F0813009F09ACF8D2FE4
:100BC0009C2F9370111102C090E080E00E94792068
:100BD00090CF8D2F9C2F9370111102C090E080E078
:100BE0000E94632086CF8D2F112329F00E94FA14D2
:100BF0000E94CD157ECF0E945415FACF8C2F8370A2
:100C000079F5111176CF4D2F429546954770440FD7
:100C1000440F8D2F8F70042E01C0880F0A94EAF7BD
:100C20002D2F2071D4FF07C02FE030E001C0220F2C
:100C30004A95EAF72095C695C695C370822BC230B7
:100C400049F058F4C13019F00E94800752CF0E9439
:100C50007A074FCF0E9486074CCF0E94770749CF73
:100C60008695112311F08C2F8170882309F441CFD0
:100C70004D2F429546954770440F440F8D2F8F702E
:100C8000042E01C0880F0A94EAF72D2F2071D4FF9B
:100C900007C02FE030E001C0220F4A95EAF7209507
:100CA000C695C695C370822BC23049F058F4C13046
:100CB00019F00E94D1071DCF0E94CB071ACF0E94C6
:100CC000D70717CF0E94920714CFCF70112329F0B6
:100CD0008C2F0E94A6078D2F34CF8D2F0E94D70412
:100CE0008C2F0E94B20705CFD23F51F160F4D03F64
:100CF000B9F0D13F81F0112309F449C0F110AECE13
:100D00008C2F8F7121C0D33F11F1D43FA1F7809177
:100D1000D00282FD26C08C2F8F71112311F314C0D5
:100D2000112349F084E08F1508F4E3CE8C2F8F71E6
:100D30000E94BF07DECE95E09F1508F4DACEF6CF0D
:100D40008C2F8F711111CDCF0E94A607D2CE112307
:100D500029F08C2F8F710E949D07CBCE0E9499079E
:100D6000C8CE112349F0CF718C2F0E94A60763E0F3
:100D70008C2F0E94FA0BBDCE81E00E94180CE1E09E
:100D8000EF1508F0B6CE82E00E94180CB2CEF1103A
:100D9000FFCE8C2F8F71A5CF0F931F93CF93DF932F
:100DA000EC01688179818A810E948E088C010E9401
:100DB000DD070E947607B801CE010E94DE04DF91B4
:100DC000CF911F910F910895CF93DF93EC018B8109
:100DD0009C81892B29F08881998189238F3F51F447
:100DE000DF91CF910895CE010E94CC06CE010E94E2
:100DF0009F02F6CFCE010E94F1028111F4CF0E9432
:100E00006D0B882369F38A81882351F38091D00286
:100E100082FFE6CF82E00E94180CE2CF90E080E0F3
:100E20000E94632090E080E00E9479200E94940B51
:100E30000E94B50B0E94E9150E94CD1508950E94ED
:100E40005C0B0E940E0708950E94840B0E941F07EE
:100E5000089592959F70963091F058F4925F9F702C
:100E6000923058F4803F19F030F4883E30F481E03D
:100E700008959A5FF4CF843FD1F380E00895883ECF
:100E8000B0F3813FD1F7F3CFFC0183819481892BAB
:100E900029F08081918189238F3F11F480E00895AA
:100EA000808191810E9483080E9429070895A5E00E
:100EB000B0E0EDE5F7E00C94C7292596E2E00C944C
:100EC000E329A6E0B0E0E7E6F7E00C94C729269610
:100ED000E2E00C94E32908950E946B0708950E94B4
:100EE0006C07809304020E940E07089508950E94E3
:100EF0006F07089590910402892B0E946F0708954F
:100F00009091040289230E946F0708959091040232
:100F100089270E946F0708950E946B0708950E9419
:100F20008C0708950E948F07809303020E940E078A
:100F3000089580E00E949207089591E001C0990F02
:100F40008A95EAF7892F0E949207089521E030E000
:100F500001C0220F8A95EAF780910302822B0E943A
:100F60009207089521E030E001C0220F8A95EAF748
:100F700020958091030282230E949207089521E028
:100F800030E001C0220F8A95EAF7809103028227A0
:100F90000E949207089590910302892B0E94920764
:100FA00008959091030289230E94920708959091D9
:100FB000030289270E94920708950895262F27701B
:100FC00091E001C0990F2A95EAF723E0769567959D
:100FD0002A95E1F7FB01EE0FFF1FE60FF71FE40F65
:100FE000F51F50E040E0682F70E08191DF0111971C
:100FF0009B01042E02C0369527950A94E2F72170D2
:1010000021952827292328272C934F5F5F4F4330B2
:10101000510559F70895A82FA77023E09695879555
:101020002A95E1F7FC01EE0FFF1FE80FF91FE60F0D
:10103000F71F50E040E080E0219130E00A2E02C02E
:10104000369527950A94E2F721703327042E01C0C4
:10105000220F0A94EAF7822B4F5F5F4F433051050E
:1010600059F70895262F9A3070F4873060F4682F6E
:1010700070E087E0989F600D711D112448EE51E0EB
:10108000822F0E94DE070895292F9A3068F4873056
:1010900058F490E068EE71E037E0239F800D911DD9
:1010A00011240E940B08089580E00895CF92DF92EA
:1010B000FF920F931F93CF93DF936C010091030274
:1010C00080910402082BC7E0D0E010E0FC2EC8019C
:1010D0000C2E02C0959587950A94E2F780FD0CC00E
:1010E0002197A0F7F12C8F2DDF91CF911F910F91B8
:1010F000FF90DF90CF900895B6018C2F0E94EC0EE8
:10110000019771F3F0CFCF93DF93EC010E94560863
:10111000BE010E94EC0EDF91CF9108951F93CF93F3
:10112000DF93EB019091E701992339F0CB010E9405
:101130008308DF91CF911F910895882369F0CB0137
:101140000E945608182F682FCE010E943208BE0157
:10115000812F0E94EC0EEDCFCB010E944408182F86
:10116000F6CF1F93CF93DF93C091050216E08091D5
:1011700006028C1304C0DF91CF911F910895D0E037
:101180001C9FF0011D9FF00D1124E95FFD4F408170
:10119000518162817381848195810E9461072196CA
:1011A000C770E5CF40913702509138026091390203
:1011B00070913A0280913B0290913C020E9461073B
:1011C00008951F93CF93DF9380913C02807F09F0B5
:1011D00049C080913902882309F444C080910502F6
:1011E000C09106026091370270913802A0913A02D4
:1011F000B0913B02D62FD72316E0C81799F190E0A3
:10120000109711F0DF3F19F401968770F6CF189F01
:101210009001199F300D1124F901E95FFD4F4181C3
:101220004713F2CF40814613EFCF42814111ECCFFB
:10123000438154814A1B5B0B483C510528F7809140
:101240003C028F70806180933C02F901E45FFD4FA6
:1012500080818F708061808387E392E00E94E40642
:101260000E94B108DF91CF911F910895A1E1B0E0F4
:10127000ECE3F9E00C94BF298C0185E0F801DE0174
:101280001D9601900D928A95E1F7F801E28087E3BF
:10129000C82E82E0D82E60913A0270913B0261150F
:1012A000710509F44EC19091370220913802892FBF
:1012B00082238F3F09F445C140815181A380B480CE
:1012C000F0903902F501E61BF70BFF2009F4EAC0A4
:1012D00080913C02382F307FE83CF10508F0A3C034
:1012E00031116DC0FE2C251316C0941314C0E110EB
:1012F00012C08F70806180933C020E94D208C601A8
:101300000E94E40680913C02F80185838F2D61964E
:10131000EAE00C94DB29A114B10429F0842F852381
:101320008F3F09F027C180E0F82FF170DF2E80FF9A
:101330003CC0809105022091060236E0821315C060
:101340004D875E878D859E850E948308292F229573
:101350002F702230F0F0243018F59F70F1F0F80172
:101360009581907FD1F4D12C1EC090E0389FF00180
:10137000399FF00D1124E95FFD4F6181651306C0AF
:101380006081641303C06281E6120FC0019687700A
:10139000D5CF9F7011F0882331F3805E883018F329
:1013A000C8010E94E406FD2CB1CFEE2009F4AECFB7
:1013B00080913C02816080933C02F12CA7CF2513E1
:1013C00006C0941304C0F801EE2009F487C0C801D8
:1013D0000E944407882319F1EE2009F180913C0214
:1013E000803270F0209137023091380238872F8395
:1013F0001986BB86AA868C87CE0107960E94E406D2
:1014000086E0F801A7E3B2E001900D928A95E1F73A
:101410000E94E1080E94D208FF24F39477CFC8010C
:101420000E94E406F9CF311113C07A2DB98AA88A37
:101430006E2D89890E94570787E392E00E94E40697
:1014400086E0F60111928A95E9F70E94D208B5CF9D
:1014500025130FC094130DC0E1100BC0F801858354
:10146000C8010E94E40686E0F60111928A95E9F728
:101470004DCFC8010E944407882389F2EE2079F2FB
:1014800080913C02803208F4BBCF2091370230912A
:1014900038023A8329831B82BD82AC828E83CE01BF
:1014A0000196ACCFE83CF10508F03EC0FE2CEE20E2
:1014B00009F4B5CF25132AC0941328C080913C02AB
:1014C00080FD1BC0982F907FC1F0F8018583903F6D
:1014D00031F0982F907F905F8F70892B8583C801A2
:1014E0000E94E40686E0F801A7E3B2E001900D92C5
:1014F0008A95E1F70E94D20809CF86E0F801A7E3B8
:10150000B2E001900D928A95E1F700CFC8010E94E8
:101510004407811175CF80913C02816080933C0229
:10152000C8010E94E406F2CE7A2DB98AA88A6E2DEF
:1015300089890E94570786E0F60111928A95E9F79A
:10154000D9CFEE2009F46BCFC8010E944407F82ED2
:10155000882309F464CF86E0F801A7E3B2E00190A4
:101560000D928A95E1F787E392E00E94BF030E9403
:10157000E108C0CF81E08E25D7CEACE0B0E0E3EC4F
:10158000FAE00C94C6294F83588769877A878B873E
:101590009C87CE0107960E943609882369F08A85C8
:1015A0009B85892B39F04F815885842F85238F3F68
:1015B00009F06BC016E05FC086E0FE013796DE01E1
:1015C000119601900D928A95E1F78A859B85892B6A
:1015D00089F38F81988589238F3F61F320910602DB
:1015E00030E0C9010196877099274091050248179C
:1015F000190671F40E942407109206021092050247
:1016000086E0E7E3F2E0DF011D928A95E9F7D2CFA9
:1016100096E0929FD001939FB00D1124A95FBD4F1A
:10162000FE01319601900D929A95E1F780930602A2
:101630000E94B108BFCF819FC0011124895F9D4FD7
:101640000E9436098823E9F0E09105021E9FF0010F
:101650001124E95FFD4F4081518162817381848152
:1016600095810E9461078091050290E00196877044
:1016700099278093050280910502909106028913B3
:10168000DACF2C96E3E00C94E22969857A858B8584
:101690009C850E9461078ECF682F809100019091F8
:1016A00001010E94D7200895682F80910001909138
:1016B00001010E94DA2008958091000190910101BA
:1016C0000E94DD2008958091450285958595859538
:1016D0000895809145028770089590914502977012
:1016E00081E009F480E0089580915002089590917E
:1016F0005002892B8093500208958095909150025A
:10170000982390935002089510925002089590915A
:101710004F02892B80934F020895809590914F023C
:10172000982390934F02089510924F02089580914C
:101730004602089508950E949A0B08959091D00250
:1017400092FF08C090914602981721F080934602BC
:101750000E949B0B089580914602882329F01092E5
:10176000460280E00E949B0B0895CF93DF93E091A7
:101770000001F0910101809150028083E09100010D
:10178000F0910101808190914F02892B808390918B
:101790004602992381F0E0910001F09101018081DE
:1017A000892B808380910001909101010E948F20FC
:1017B00081110E94AB0BC0910001D091010148E062
:1017C00050E06DE372E0CE010E94022A892B59F0AD
:1017D00088E0FE01ADE3B2E001900D928A95E1F759
:1017E000CE010E944A20DF91CF91089508950E9472
:1017F000F60B08959091D00292FF11C098E0899F56
:1018000090011124622B609345020E94A6078091EB
:1018100045028595859585950E94F70B08950E9450
:10182000A60708951092450280E00E94F70B0895E4
:10183000909145028095892380934502282F277037
:1018400091F4282F082E000C330B9217130659F031
:101850009091D00292FF07C08595859585950E944D
:10186000B2070E94120C08959091D00292FB222799
:1018700020F9281769F080FB92F99093D0028091AB
:10188000CF029091D0020E94860C82E00E94180C38
:1018900008958091D00282FB882780F991E0892702
:1018A0000E94340C089581E00E94340C089580E079
:1018B0000E94340C08956FEF7FEF90E080E00E946B
:1018C000442A089590E080E00E94202A883E9E4F9E
:1018D00019F40E940717089580E0089582E090E0CF
:1018E0000E94182A089583E090E00E94182A089523
:1018F000CF9384E090E00E94182AC82F82E290E003
:101900000E94182A982F8C2FCF910895CF93C92F1A
:10191000682F84E090E00E94262A6C2F82E290E0FB
:101920000E94262ACF910895AB01BC018FE090E080
:101930000E94382A0895AB01BC0183E190E00E9427
:10194000382A089560E070E0CB010E949B0C089556
:1019500060E070E0CB010E94940C0E94A20C0895FC
:1019600068EE7EEF90E080E00E94442A60E082E032
:1019700090E00E94262A60E083E090E00E94262A00
:101980001092040260E084E090E00E94262A64E065
:1019900082E290E00E94262A60E085E090E00E94CA
:1019A000262A60E086E090E00E94262A6FEF87E01A
:1019B00090E00E94262A40E050E0BA0188E090E0E2
:1019C0000E94382A60E08DE090E00E94262A40E0E4
:1019D00050E0BA0188E190E00E94382A60E087E197
:1019E00090E00E94262A40E050E0BA018CE190E0AD
:1019F0000E94382A70E060E080E290E00E94442A71
:101A000040E050E0BA0188E190E00E94382A80E08E
:101A10000E9420170E944F170E94A80C08950E9450
:101A2000B00C0895682F8EE090E00E94262A089559
:101A30000E949F2160936502709366028093670203
:101A400090936802609361027093620280936302D4
:101A50009093640208950E949F21609365027093A1
:101A60006602809367029093680260935D027093B0
:101A70005E0280935F029093600208950895089536
:101A80000E943F0D089508950E94430D089586E138
:101A900090E10E942C200E943E0D0E94400D08956E
:101AA0000E942B120895089508950E94530D0E94DC
:101AB000540D08950E9432100E945E0308950E9402
:101AC0008A210E94D60F0E945F170E9446120E9430
:101AD00055110E945A0D0E945B180E94B01A0E9474
:101AE00050120E94440D0895AAE0B0E0EAE7FDE03C
:101AF0000C94BF290E94AF1183E5A82E82E0B82E76
:101B0000750110E0F70101917F01812F0E945510AE
:101B10001F5F1A3009F440C00817A1F380916902D1
:101B200081FD0E945B100E94500DC82E10E0812F95
:101B30000E945510082FF50181915F01081731F1BE
:101B4000D02ED826F12CEE24E3948D2D8E21B1F0E9
:101B5000CC20A1F0FE821F8391E0802F8E2109F41A
:101B600090E098870E9493218160782F9A878987D7
:101B70004E815F8168858A850E948A03F394EE0C0A
:101B8000F7E0FF12E2CFF501319700831F5F1A30B3
:101B900071F60E94180D20C00813C0CF0E94932137
:101BA0008C01809151029091520208171907A1F0FF
:101BB0008FEF89838A831B820E9493218160782F13
:101BC0009D838C8349815A816B818D810E948A0318
:101BD00010935202009351020E942B120E94321B5A
:101BE00081110E942B0D0E940B160E9471032A96F0
:101BF000EAE00C94DB29CF93DF930E94F10EEC0115
:101C0000811521E5920708F042C0811530E5930760
:101C100008F09FC0883E910530F5803E910508F0A0
:101C200094C0883A910588F4853A910508F086C0F9
:101C30008130910509F489C0009709F486C00497A2
:101C400008F083C0D0E0C0E080C08F3B9105D0F7A2
:101C5000C85AD0E0CC0FDD1FC757DE4F0990D8819E
:101C6000C02DD46472C0811540E2940750F4C115B0
:101C700081E0D80708F069C0C03FD10518F3D065EE
:101C800064C081159044F0F2DF70D06A5EC08115A7
:101C900035E5930718F5811544E5940708F085C0EC
:101CA000C11583E5D80708F06CC0C11522E5D2073D
:101CB00008F462C0CE018370992721E030E002C0B1
:101CC000220F331F8A95E2F7C695C69580E2C89F1A
:101CD000E0011124C22BD32BDC6837C0811539E514
:101CE0009307A8F4811548E5940708F063C0C1156F
:101CF00086E5D80708F0A6CF8C2F0E94930FC82F37
:101D0000D0E0DC2FCC27CC27DF71D0621EC081153C
:101D10002AE5920708F453C090568115904208F0C6
:101D200091CF8D2F8F710E94930F90E0982F88276D
:101D300088279F719C012C2BE901E7CFC55AD0E081
:101D4000C954DE4FC881D0E0D064CE01DF91CF917D
:101D500008958370992721E030E002C0220F331FDD
:101D60008A95E2F7C695C69540E2C49FE00111242A
:101D7000C22BD32BDD68E9CFDC2FCC27C16FD06A13
:101D8000E4CFCE018370992721E030E002C0220F1A
:101D9000331F8A95E2F7C695C69540E2C49FE001DD
:101DA0001124C22BD32BDA68D0CFD82FCC27C46F05
:101DB000D06ACBCFD82FCC27C06FD06AC6CF8F7058
:101DC0000E94930F34E0D695C7953A95E1F7CF700E
:101DD0009C2FEC01D069B9CF0E94D81C0E94FB0D4A
:101DE000089582389105B9F1B0F48133910509F471
:101DF0007DC048F48932910509F46DC08A3291059D
:101E000009F47BC008958533910509F45FC08933D7
:101E1000910509F10895833E9105D9F138F4803E8A
:101E2000910529F1823E910579F10895863E91054B
:101E3000D9F1873E910509F43EC0843E910541F5F4
:101E40002091D00221FF24C08091CF0284FD19C0CF
:101E500087EE90E008952091CF02237009F05AC0D8
:101E60002091D00223FF14C089E290E008952091D0
:101E7000CF0220FD38C03091D00230FF09C024FFCE
:101E800043C090E080E008952091CF0222FDF7CF7B
:101E900008952091CF0222FD3AC03091D00230FD4A
:101EA00039C024FFF5CFEDCF2091CF0223FFF0CF33
:101EB00024FDE7CFCDCF2091CF0223FD2EC030915E
:101EC000D00231FFEECF84EE90E008952091CF0252
:101ED00025FFDECFC9CF2091CF0225FD21C0209163
:101EE000D00223FFD5CF89E390E0D2CF2091CF025B
:101EF00026FFCECF8AE290E008952091CF0226FF00
:101F0000C7CF81E390E0089583EE90E0089582EEDC
:101F100090E0089580EE90E0089586EE90E00895B8
:101F200085E390E008959091CF0292FF06C0282F9C
:101F300028712830F9F4877F846093FF06C0282F2A
:101F400028712831F1F4877E84612091D00220FF2E
:101F500006C0382F38713830D9F4877F816021FF6F
:101F600006C0282F28712831D1F4877E816194FD25
:101F7000877E0895282F24712430F9F68B7F88609E
:101F8000DCCF282F2471243101F78B7E8861DDCFCF
:101F9000382F3171313019F78E7F8860E0CF282FCC
:101FA0002171213121F78E7E8861E1CF1092CB0221
:101FB0001092CC021092CD021092CE020895CF92D0
:101FC000DF92EF92FF926B017C010E942B12811134
:101FD0000EC00E949F21C61AD70AE80AF90AC092C9
:101FE000CB02D092CC02E092CD02F092CE02FF90D2
:101FF000EF90DF90CF9008950F931F930E942B12C4
:10200000882329F00E949F211F910F9108950E941B
:102010009F210091CB021091CC022091CD023091F2
:10202000CE02600F711F821F931FEECF80E00895D4
:102030000E945B0C08950E94AF118FE39CE9019709
:10204000F1F700C000000E94AF1180E00E9455101F
:1020500080FF04C00E9418100E94FA2108950E9477
:102060001B1008950E94620C811102C00E940F0D86
:102070000E946E0C809369020E94780C9093D002AB
:102080008093CF020E942F100E94730C0E9477074A
:10209000809103020E948F07089508950E944D10B9
:1020A000089508950E9451100895E82FF0E0E45239
:1020B000FD4F80810895089580EA8A95F1F708958B
:1020C00000C008950E945C10089508950E94651054
:1020D0000895A5E0B0E0EFE6F0E10C94C3290E947A
:1020E0002B12F82E6091E602882309F440C085E0A7
:1020F000E82E8E010F5F1F4FF8018E2D11928A95E9
:10210000E9F7862F90E0B80184529D4F0E945E123D
:102110008823B9F08091D10290E045E050E0B80109
:1021200084529D4F0E94022A21E020936A02892B4B
:1021300091F4F12C0E94D5028F2D2596E6E00C94A7
:10214000DF2980916A028823A1F3F8011192EA94B1
:10215000E9F710926A02A091D102B0E0A452BD4FFB
:1021600085E0F80101900D928A95E1F7E3CF70E0E8
:1021700064527D4F8091D10290E084529D4F0E9425
:10218000E5120E946610D8CFF894E82FE295EF7020
:10219000F0E031A1282F2F7081E090E001C0880F7E
:1021A0002A95EAF7982F9095932391A392A1892BD2
:1021B00082A378940895CF93DF93C9E0D1E0899109
:1021C0008F3F11F00E94C41081E0CE30D807B9F7DC
:1021D000C2E0D1E089918F3F11F00E94C41081E0EC
:1021E000C930D807B9F7DF91CF910895B0E0A0E0EA
:1021F000ECEFF0E10C94C129EC01D62E062F10E093
:10220000C801875F9E4F7C01FC0180818F3F09F4EC
:1022100045C0F894E82FE295EF70F0E091A18F703F
:1022200021E030E001C0220F8A95EAF7892F822B46
:1022300081A382A12095282322A378940E94601074
:10224000E2E0F1E049E051E031E0C12C21912F3F83
:1022500051F1A22FA295AF70B0E090968C9190E0D2
:102260002F7002C0959587952A95E2F780FD1BC0D7
:10227000832FC82A330F4E175F0741F7F70180817C
:102280008F3F11F00E94C41061E0C11001C060E0F6
:102290008D2D0E946210C00FD11FC882CDB7DEB74E
:1022A000E8E00C94DD2980E0E4CFACE0B0E0EBE5C1
:1022B000F1E10C94C72980910E0181112CC085E0B9
:1022C000ECE4F1E0DE01189601900D928A95E1F7B9
:1022D000888580930901898580930A018A85809386
:1022E0000B018B8580930C018C8580930D0187E019
:1022F000E1E5F1E0DE01119601900D928A95E1F79A
:10230000FE013196A2E0B1E0CE01089621912D9315
:10231000E817F907D9F780910E0195E0811190E057
:102320009093E60285E0891B8093D1020E94DB1026
:102330008AE0ECEDF2E0DF01982F1D929A95E9F723
:10234000E2EDF2E0DF011D928A95E9F785E00E9457
:10235000ED110E94D2022C96E2E00C94E329AAE04F
:10236000B0E0E5EBF1E10C94C4298E010F5F1F4F43
:102370008AE0F80111928A95E9F7F12C6F2DC801D6
:102380000E94F610F394F5E0FF12F8CF4AE050E017
:10239000B80182ED92E00E94022A21E0009709F440
:1023A00020E0892B41F08AE0F801A2EDB2E0019033
:1023B0000D928A95E1F76091E60270E064527D4FDC
:1023C00045E082ED92E00E94EE11182F0E94691004
:1023D000812B2A96E5E00C94E0290895CF92DF92B4
:1023E000EF92FF920F931F93CF936C017B01042F09
:1023F000222349F081E080936D020E949321909303
:102400006C0280936B02C0916D02C1110AC0C0E0E2
:102410008C2FCF911F910F91FF90EF90DF90CF9075
:10242000089580916B0290916C020E94AB210597F8
:1024300070F310E0A801B601C7010E94022A892B9F
:1024400041F0A801B601C7010E940F2A10926D0247
:10245000DFCFC0E0FBCF80917002811107C00E94E6
:102460008929882351F081E08093700281E0909166
:102470007002913009F080E0089582E0809370024C
:102480000E948429F3CF0E942B1208950E944312C8
:1024900080930E010E942B1281110E9494120895C4
:1024A0000E942B12811102C00E949712089581E0B0
:1024B000909171029A3008F080E008950F931F9375
:1024C000CF93DF93EC018B01809171028A30B8F4D5
:1024D000B801CE010E94E212C82F811122C0809162
:1024E00071028F3FB9F40E94932190936F02809301
:1024F0006E028C2FDF91CF911F910F9108958091E3
:102500006E0290916F020E94AB21843F914000F7D0
:10251000C0E0EFCF8F5F809371028A3020F7C1E077
:10252000E8CF10927102E5CF0E94CA1E08950E9462
:10253000CD1E0895B0E0A0E0E0EAF2E10C94C229DB
:102540007901C82F880FDD0B41155105A9F0FE0157
:1025500093E0EE0FFF1F9A95E1F7E15FFE4F818157
:1025600092818E589D4F208130E04217530708F426
:102570009A01A9010E940F2ACE010E94B61FD82EEF
:102580008823D1F001151105B9F083E0CC0FDD1FD0
:102590008A95E1F7FE01E15FFE4F438150E00417A9
:1025A000150708F4A801C15FDE4F6C817D816E586C
:1025B0007D4FC7010E940F2A8D2DCDB7DEB7E7E012
:1025C0000C94DE290E94FE1308950E941F140895A2
:1025D000A4E0B0E0EEEEF2E10C94C5296091900227
:1025E0007091910280919202909193020E94BA217F
:1025F00011E0643671058105910518F10E94FC0F08
:102600006E5F7F4F8F4F9F4F69837A838B839C834D
:1026100010E000E030E020E044E050E0BE016F5FF9
:102620007F4F84E00E949A12182F882351F00E9455
:102630009F216093900270939102809392029093F5
:102640009302812F2496E4E00C94E129A1E0B0E00C
:10265000ECE2F3E10C94BC29762E4A0159016801A1
:1026600001E010E09E012F5F3F4F50E040E070E03E
:1026700060E00E949A12182F882399F1F40160817A
:102680007181828193810E94BA216436710581052E
:10269000910500F18701950150E040E070E060E0B5
:1026A000872D0E949A12B82EB701C6010E945C18AD
:1026B00011E09981981310E01B2139F00E949F21AD
:1026C000F4016083718382839383812F2196EDE0EF
:1026D0000C94D829B701C6010E945C18998189130E
:1026E000D9CFA701B601C5010E940F2AEECFA2E003
:1026F000B0E0EDE7F3E10C94C3290091BA01109129
:10270000BB01095F1F4F82E0E82EF12C9E012F5F75
:102710003F4F4CE852E063E082E00E942613182FFE
:10272000882321F0CE0101960E94C21B812F2296A0
:10273000E6E00C94DF29A5E0B0E0E1EAF3E10C94D7
:10274000C1296B010091BA011091BB010F5F1F4FAE
:1027500085E0E82EF12C9E012F5F3F4F48E852E0C4
:1027600061E080E00E942613882349F095E0FE0195
:102770003196A3E8B2E001900D929A95E1F795E0C9
:10278000E3E8F2E0D60101900D929A95E1F72596E3
:10279000E8E00C94DD29B0E0A0E0E1EDF3E10C9479
:1027A000BF297C015B016A010E94571201E010E021
:1027B000882311F00AE010E0C1E0D0E0B501C701C4
:1027C000F6010995811104C021960C171D072CF400
:1027D000CDB7DEB7EAE00C94DB29CC9F9001CD9F0A
:1027E000300D300D112490E080E045E34A95F1F77B
:1027F0000000019682179307C1F7E0CF0F931F9354
:10280000CF93DF93EC018B014BE953E10E94CB1393
:10281000811106C080E0DF91CF911F910F91089543
:1028200047E753E1B801CE010E94CB13882391F30F
:1028300048EE52E1B801CE010E94CB13ECCFA2E0EA
:10284000B0E0E5E2F4E10C94C5290091BA011091E1
:10285000BB01C801019625E0FB01DC0101900D924E
:102860002A95E1F765E070E00E945C18F80180832A
:10287000CE0101960E94B71B89819A81F801908749
:10288000878362E070E0CE0101960E945C18F80137
:102890008683618572858385948500917F0210917E
:1028A00080022091810230918202601771078207B5
:1028B000930751F060937F027093800280938102AE
:1028C000909382020E94DF0F2296E4E00C94E129AB
:1028D0000E94E3230E945F0D0E94F02308950E944E
:1028E000F5230E94740D0E940F2408950E942C214C
:1028F0000E94C9230E94470D0E9468140E946F1411
:102900000E94550DFBCF80919A0280FF0DC060910F
:102910003C0170E0660F771F6038710570F5611536
:10292000710569F1862F089581FF07C060913C0110
:1029300084E0689FB0011124EFCF60913C0182FDDB
:102940000AC0809199028823A9F020913B016091EF
:102950003C01821710F088E0ECCF869FC001112463
:1029600033E0880F991F3A95E1F7622F70E00E94DB
:102970009629D2CF68E070E0D5CF8FE7089581E047
:10298000089580919A0280FF0CC06091380170E038
:1029900075956795759567956115710549F1862F50
:1029A000089581FF06C06091380170E075956795C4
:1029B000F3CF6091380182FD0BC09091980299236A
:1029C000A1F06091370180913801961738F0682F97
:1029D00070E06038710500F38FE70895899FC001AA
:1029E000112470E00E949629F4CF61E070E0D7CF07
:1029F00081E00895803F31F40E9483148195809393
:102A00009E020895813F19F40E948314F8CF823FFB
:102A100031F40E948314819580939D020895833F31
:102A200019F40E948314F8CF893F29F40E94C1143D
:102A300080939F0208958A3F21F40E94C1148195DA
:102A4000F7CF8B3F31F40E94C11481958093A0028F
:102A500008958C3F19F40E94C114F8CF9CE0980FA0
:102A6000953070F4845F990B21E030E001C0220FB3
:102A70008A95EAF780919C02822B80939C020895AC
:102A80008D3F31F480919A02816080939A0208957B
:102A90008E3F21F480919A028260F7CF8F3FB9F781
:102AA00080919A028460F1CF40919D02803F59F459
:102AB00080919E0287FF0DC010929E0241110BC0B3
:102AC0001092990208C0813F81F480919E021816ED
:102AD0009CF3442381F080919F029091A002892B66
:102AE00009F05AC0109298020895823F49F447FFB6
:102AF000F0CF10929D0280919E028111ECCFE0CF29
:102B0000833F19F41416ACF3E4CF90919F02893FF0
:102B100029F41916F4F610929F02DBCF8A3F19F4BC
:102B200097FFD7CFF8CF9091A0028B3F29F497FF62
:102B3000D0CF1092A002CDCF8C3F19F41916CCF350
:102B4000C8CF9CE0980F953090F4845F990B21E0FA
:102B500030E0B90102C0660F771F8A95E2F7CB011A
:102B6000809590919C02892380939C02B2CF8D3FE7
:102B700031F480919A028E7F80939A02AACF8E3F81
:102B800021F480919A028D7FF7CF8F3F09F0A1CF7A
:102B900080919A028B7FF0CF08950E9493219C012F
:102BA00090919D0280919E02982B21F03093970284
:102BB0002093960290919F028091A002982B21F081
:102BC00030939502209394028BE992E00E94552065
:102BD000089586E0EBE9F2E0DF011D928A95E9F7BE
:102BE000109299021092980210929A020895FC0194
:102BF000828181110EC0838181110BC0848181117A
:102C000008C091E08581811101C090E0892F817019
:102C1000089581E0FCCFA6E0B0E0E1E1F6E10C949C
:102C2000C62986E0EBE9F2E0DE01119601900D92F3
:102C30008A95E1F710929D0210929E0210929F02D7
:102C40001092A0028B819C81892B89F08091960241
:102C5000909197020E94AB21AC0190919902992327
:102C6000C9F180913D018417150608F440C08D819B
:102C70009E81892B91F080919402909195020E94FF
:102C8000AB21AC0190919802992309F471C0809115
:102C900039018417150608F479C0BE016F5F7F4FB4
:102CA0008BE992E00E94E420811105C08BE992E05B
:102CB0000E94F71581110E94CD1586E0FE01319624
:102CC000ABE9B2E001900D928A95E1F72696E3E038
:102CD0000C94E22920913E018AE0289F9001112462
:102CE0002417350720F69F5F9093990202C09F3FFB
:102CF000D1F71B81112359F00E9483149FEF111605
:102D00000CF491E0899F802D112480939D021C81F9
:102D1000112359F00E9483149FEF11160CF491E0D7
:102D2000899F802D112480939E0230919D02332330
:102D300009F49DCF20919E02222309F498CF45EB00
:102D40003403C0011124992359F090939D0245EB5F
:102D5000240390011124332339F030939E0287CF4E
:102D600081E080939D02F3CF81E080939E027FCF2C
:102D700020913A018AE0289F9001112424173507F9
:102D800008F08BCF9F5F9093980202C09F3FD1F7CE
:102D90001D81112359F00E94C1149FEF11160CF4EC
:102DA00091E0899F802D112480939F021E81112321
:102DB00059F00E94C1149FEF11160CF491E0899F05
:102DC000802D11248093A00230919F02332309F4B7
:102DD00064CF2091A002222309F45FCF45EB340396
:102DE000C0011124992359F090939F0245EB2403CD
:102DF00090011124332339F03093A0024ECF81E0AB
:102E000080939F02F3CF81E08093A00246CF83E2BC
:102E100090E00E94182A823289F484E290E00E94B5
:102E2000182A813159F485E290E00E94182A91E035
:102E3000883009F090E0892F8170089580E0FCCF00
:102E4000CF93C82F6FEF811162E283E290E00E947E
:102E5000262A6FEFC11161E184E290E00E94262AE8
:102E60006FEFC11168E085E290E00E94262ACF91C1
:102E70000895089586E290E00E94182A682F70E075
:102E800090E080E008950895CF93C62F0E944317E5
:102E90006C2F86E290E00E94262ACF91089580E070
:102EA0000E94201760E070E0CB010E9444170E944E
:102EB000561C0E94351D81E00E94201708950E9433
:102EC00039170E943A170E9443170E940717811171
:102ED00002C00E944F170895CF93FB01C281CC23FB
:102EE00009F19C0122513F452031310520F58251E5
:102EF0000E94451DC0E08C2FCF91089581E00E9473
:102F0000A60743E062E081E00E94C802F3CF81E0BF
:102F10000E94B20743E062E081E00E94C802EBCF6A
:102F200082E0F6CF8031FFE59F0789F381319F452D
:102F3000B9F3C1E0E0CF8031EFE59E07F9F28131CE
:102F40009F45C9F682E0DBCF2FEFFC012083089577
:102F5000EF92FF920F931F93CF93DF93EC01062F15
:102F6000E881E150E33108F05DC0F0E0E859F54D4B
:102F70000C94AA2919828AE08A83602FCE010E94CC
:102F80009C22CDB7DEB7E6E00C94DF298981823040
:102F900069F0833071F08130D9F40E949F210E9442
:102FA000B0296A837B838C839D83E7CF0E943A1785
:102FB000F6CF7E0182E0E80EF11C10E0812F0E9426
:102FC0005510F70181937F011F5F1A30B9F7D5CFF4
:102FD000602FCE010E94A417D0CF89818230C1F723
:102FE0006A817B818C819D810E94B0290E94441757
:102FF000C4CF4B816A8189810E94181C9827892738
:1030000098279D838C83B9CF2C813D81322723273C
:1030100032274B816A8189810E943A1CAECF0E947F
:10302000561CABCF8FEF8883A8CF0E94E61C898304
:10303000A4CF0E94E81C9827892798279A83898320
:103040009CCF6B8170E089819A81AE014C5F5F4FAC
:103050009827892798270E94EB1C8FCF6B8170E0FF
:1030600089819A81AE014C5F5F4F98278927982705
:103070000E94101D82CF0E94351D7FCF0E94061C2A
:10308000D6CF6B8170E089819A81AE014C5F5F4F32
:103090009827892798270E94901C6FCF6B8170E03A
:1030A00089819A81AE014C5F5F4F982789279827C5
:1030B0000E94B41C62CF0895FC01680F791F8FEF46
:1030C00091E36E177F0709F408952191822728E084
:1030D00030E087FF06C0880F892721503109C9F7E2
:1030E000F0CF880FFACFCF93DF93EC01FB01828101
:1030F000882309F464C1C330FDE5DF07E0F5CA3F6A
:103100009CE5D90730F49E0122503C45243131051D
:10311000D8F50E94780C9093D0028093CF02C231F0
:10312000ECE5DE0709F41FC108F06EC0C9308CE57C
:10313000D80709F4F2C008F03FC0C530ECE5DE075F
:1031400009F4DBC058F5C3308CE5D80709F4CDC0CD
:1031500008F0CFC08091CF028160C230DC4509F415
:10316000AEC08091CF029091D0020E94860C0E9446
:10317000240780E009C0C53AEDE5DE0751F238F4D6
:10318000C1369DE5D90729F2DF91CF9108959E01BF
:103190002D5A3D4523303105B8F7BBCF8091CF0282
:1031A0008062C730FCE5DF0709F489C008F4B1C0CC
:1031B0008091CF02806483C0CD309CE5D90709F4AB
:1031C000BAC070F48091CF028E7FCB30FCE5DF0770
:1031D00009F475C008F4A7C08091CF028D7F6FC03D
:1031E000CF309CE5D90709F4B6C008F4A8C0C031B7
:1031F000FCE5DF0709F4B3C0C131DC4509F0B1CF0C
:103200008091CF028F7B5BC0CF3F9CE5D90709F44B
:10321000B4C098F5CA3FFCE5DF0709F472C0B8F402
:10322000C4319CE5D90709F4B6C008F4A2C0C53181
:10323000DC4509F096CF8091CF0282FB992790F967
:1032400021E0922790FB82F990FB83F938C0CC3FB4
:103250008CE5D80709F477C008F457C0CD3FECE5FA
:10326000DE0709F474C08091D0028360CE3FDC4554
:1032700009F077CF8093D00274CFC1368DE5D8079F
:1032800009F496C068F4C130EDE5DE0709F48CC09E
:1032900008F477C0C230DD4509F063CF80E085C017
:1032A000CD3A9DE5D907E9F068F49091CF02892FD6
:1032B0008E7F90FF8160C53ADD4509F052CF809343
:1032C000CF024FCFCE3A8DE5D80789F1CF3ADD4511
:1032D00009F047CF9091D002892F877F93FF8860B4
:1032E000C9CF8091D0028860C5CF8091CF02826023
:1032F000E6CF8091CF028460E2CF8091CF028860D8
:10330000DECF8091D0028160B5CF8091D002826003
:10331000B1CF8091CF028061D2CF0E9424078091EB
:10332000CF028068CCCF8091CF028C60C8CF8091D3
:10333000D002877F9FCF8091CF028B7FC0CF8091BB
:10334000CF02877FBCCF8091D0028E7F93CF8091B8
:10335000D0028D7F8FCF8091CF028F7EB0CF8091B2
:10336000CF028F7DACCF0E9424078091CF028F7750
:10337000A6CF8091CF02837FA2CF8091D0028C7F95
:1033800079CF8091D002982F909591708E7F892B64
:1033900090FB81F96FCF0E9424079091CF02892F73
:1033A00097FB87F980588BCF81E00E94120DD9CE10
:1033B0009091CF02892F8F7E94FF806180CF81E032
:1033C000E3CEB0E0A0E0E7EEF9E10C94C229E82FEB
:1033D000F0E0E05BFD4FD490282F269526952695AA
:1033E00030E0F901E051FD4F0491877010E0082EA4
:1033F00002C0159507950A94E2F701701127F901AB
:10340000E052FD4FE490F12C082E02C0F594E794B1
:103410000A94E2F791E0E922FF24F901E053FD4F1D
:10342000C491D0E002C0D595C7958A95E2F7C170E6
:10343000DD270115110519F081EE0E94C503E11485
:10344000F10419F086EE0E94C5038D2D0E94C70479
:10345000E114F10419F086EE0E94560401151105DD
:1034600019F081EE0E945604CD2B19F08CE20E94D7
:10347000C704CDB7DEB7E7E00C94DE29EF92FF92E8
:103480000F931F93CF93DF93EC01162F0AE08881EF
:10349000882309F454C0813009F04EC089818130FD
:1034A00099F47E0122E0E20EF11C8A810E94C70499
:1034B000E7012196812F815050F3EFE9FFE031972A
:1034C000F1F700C00000F7CF823041F47E0182E0C6
:1034D000E80EF11C8A810E94C503EACF833041F4D3
:1034E0007E01E2E0EE0EF11C8A810E945604E0CFDC
:1034F000843011F02196DDCF2A81229690E080E081
:10350000AE014F5F5F4F2053330B2A30310548F037
:10351000019778F2EFE9FFE03197F1F700C0000082
:10352000F7CF089FB001099F700D1124C901860FC4
:10353000971F2981EA01E4CF0E94E119BACFCDB7E4
:10354000DEB7E6E00C94DF298FE891E00197F1F710
:1035500000C00000089581E008950E94AB1A08950C
:10356000FF920F931F93CF93DF9380910E0192E010
:10357000811190E09093A70282E0282F291B2093CD
:10358000A60290910E018093A80290910E01809363
:10359000A5020EEC11E0CCECD1E0AE01D80121E0A7
:1035A00030E08D91E82FE295EF70F0E0F1A08F70A0
:1035B000B90101C0660F8A95EAF7962F90959F2171
:1035C00091A382A1862B82A3FA018191AF01E82FFA
:1035D000E295EF70F0E0F1A08F70B90101C0660FC5
:1035E0008A95EAF7962F90959F2191A382A1862B29
:1035F00082A3F1E0A03DBF07A1F60E94A41A60914A
:10360000A8024DEA52E0FA018E2F841B861728F09B
:10361000CDB7DEB7E5E00C94E029D8012D918D01FE
:10362000A22FA295AF70B0E090968C9190E02F7091
:1036300002C0959587952A95E2F781709991A92FF7
:10364000A295AF70B0E090962C9130E09F7002C0D0
:10365000359527959A95E2F790E020FD92E0892B29
:103660008193D2CFCF92DF92FF920F931F93CF938C
:10367000DF9310E000E084E0C82ED12C8091A802F6
:10368000181748F0802FDF91CF911F910F91FF9075
:10369000DF90CF900895C12FD0E0FE01E253FE4F9E
:1036A0008081E82FE295EF70F0E0E0A1F0E08F700C
:1036B00002C0F595E7958A95E2F7E170DE01A45323
:1036C000BE4F4C91A42FA295AF70B0E090968C9114
:1036D00090E04F7002C0959587954A95E2F780FD7E
:1036E00044C080E08E2BDE01A355BD4FEC919E2F90
:1036F00093709817C1F1EE0FEE0FE82BEC93F0905A
:10370000A702F10EEF70F0E0E454FE4FC755DD4F15
:1037100080819881890F888320E0843064F0EF2DC8
:10372000F0E0EF55FD4F80818F5F808360E08F2D4B
:103730000E94AD1A21E088818D3F64F4EF2DF0E006
:10374000EF55FD4F80818150808361E08F2D0E9475
:10375000AD1A21E08881082E000C990BB6010E9459
:1037600096298883022B1F5F89CF82E0BBCF4091CF
:10377000A80250E06091A70270E06F557D4F0E9453
:103780000F2A0895B0E0A0E0E8ECFBE10C94C12919
:103790006C01D0E080E09091A502D91740F0811132
:1037A0000E942B0DCDB7DEB7E8E00C94DD29F09038
:1037B000A602FD0E0F2D10E00F551D4FF601ED0F67
:1037C000F11DC081F8019081C91BEC2E1E1444F03C
:1037D0009C2FC7FD90E0C91BC1110DC0DF5FDBCF7F
:1037E000EA94F80180818F5F808360E08F2D0E94D2
:1037F000AD1A81E0EBCFCF5FF801808181508083EB
:1038000061E08F2D0E94AD1A81E0E6CF84E008953B
:1038100050E0440F551F9EE0699F400D511D11243B
:103820009CE8899F400D511D1124CA018796089577
:103830000F931F93CF93DF938430C8F46A30B8F4AA
:103840004730A8F40E94081C8C010E94182AC82F37
:10385000D0E0DC2FCC27C80101960E94182A9E01D7
:10386000282BC901DF91CF911F910F91089590E00E
:1038700080E0F8CF0F931F93CF93DF93122F032F86
:10388000843078F46A3068F4473058F40E94081C99
:10389000EC01602F0E94262A612FCE0101960E9422
:1038A000262ADF91CF911F910F910895B0E0A0E0FB
:1038B000ECE5FCE10C94BF298CEAC82E80E0D82E00
:1038C000D0E0C0E0760110E01CC00E945A0221E066
:1038D00030E08C171D0621F01CF0F5012591349184
:1038E000402F612F8C2F0E943A1C82E0A80EB11C41
:1038F0000F5F073051F71F5F8EE0E80EF11C1A30A2
:1039000019F0570100E0E1CF21968CE8C80ED11CD8
:10391000C430D105B9F6CDB7DEB7EAE00C94DB29A7
:10392000EF92FF920F931F93CF93DF93EC018A01E5
:103930007C01E60EF71ECE018796CE15DF0529F431
:10394000CDB7DEB7E6E00C94DF29C03322E0D20722
:1039500040F40E94182AF80180830F5F1F4F2196C0
:10396000EACFF8011082F9CFB0E0A0E0EAEBFCE189
:103970000C94C1297C016A018C01060F171FEC0110
:10398000CE018796C017D10729F4CDB7DEB7E8E09E
:103990000C94DD29C03322E0D20740F4FE01EE1979
:1039A000FF09EC0DFD1D60810E94262A2196E8CFBB
:1039B000462F843040F47A3030F4673020F4672F9B
:1039C0000E94181C089590E080E0089580E1089519
:1039D00089EA91E00895EF92FF920F931F93CF939E
:1039E000DF93EC018A017C01E60EF71ECE01895AB5
:1039F0009D4FCE15DF0529F4CDB7DEB7E6E00C9478
:103A0000DF29C93A21E0D20740F40E94182AF801C0
:103A100080830F5F1F4F2196E9CFF8011082F9CF05
:103A2000B0E0A0E0E6E1FDE10C94C1297C016A016F
:103A30008C01060F171FEC01CE01895A9D4FC0174C
:103A4000D10729F4CDB7DEB7E8E00C94DD29C93AF7
:103A500021E0D20740F4FE01EE19FF09EC0DFD1D37
:103A600060810E94262A2196E7CFCF93DF93C7E596
:103A7000D2E060E0CE010E94262A2196C11584E0A2
:103A8000D807B9F7DF91CF910895A4E0B0E0EBE457
:103A9000FDE10C94C229F82E8FE08F1548F18FEFCD
:103AA00093E00E94182A811123C007E512E0F1106B
:103AB00023C019821A821B821C82DD24D3947801D0
:103AC0008FEFE81AF80AC8010E94182A89831A821F
:103AD000882371F09FEF980F9330D8F48A83D982AE
:103AE0000E5F1F4FC7010E94182A8B83811112C0DD
:103AF0002496E7E00C94DE29011584E01807C1F351
:103B0000C8010E94182A811101C0FA940F5F1F4F4B
:103B1000CECF870160E0CE0101960E943E1ACFCF42
:103B2000CF93DF93EB0186319C4511F50E94740B16
:103B30009A81992399F08A7A91E009F490E0909320
:103B4000B102811109C089E20E944C0B0E94B50BA1
:103B500080E0DF91CF91089585E3F6CF8091B102A7
:103B6000811104C089E20E94540BF0CF85E3FBCFA2
:103B700081E0EFCF0F931F93CF93DF93C42FD22F0A
:103B8000FC0182818823C9F04093B4020E949321F2
:103B90009093B3028093B20280E28C0F883040F49D
:103BA000C77081E001C0880FCA95EAF70E94D0046F
:103BB000DF91CF911F910F9108951091B4021413CA
:103BC00032C08091B2029091B3020E94AB21883C36
:103BD000910548F5C0E2CD0F1D17B9F080E2810FC5
:103BE000883040F4177081E001C0880F1A95EAF719
:103BF0000E94D704C83048F481E09D2F977001C01F
:103C0000880F9A95EAF70E94D004802F0E94C7047B
:103C1000C83070F6D77081E001C0880FDA95EAF7F6
:103C20000E94D704C5CF80E28C0F883008F6C77099
:103C300081E001C0880FCA95EAF7F2CF0F939C018B
:103C4000CB01233F4CE5340759F1A8F4283DFCE5AE
:103C50003F0701F1293D4CE53407D1F1273D3C45B3
:103C600091F406E221EE41EE67ED7CE50E94BA1D7B
:103C700080E00F910895253FFCE53F07E9F0B0F0A3
:103C8000263F3C45F9F0FC018281882339F11092EE
:103C9000B402EFCF07E225EE45EE68ED7CE5E6CF16
:103CA00006E221EE40EE63EF7CE5E0CF07E225EE91
:103CB00044EE64EF7CE5DACF06E221EE42EE65EFFA
:103CC0007CE5D4CF07E225EE46EE66EF7CE5CECF6D
:103CD00008E221E045EE69ED7CE5C8CF81E0C9CF7F
:103CE0008EE14A9B02C08150E1F74A9BFECF0895C6
:103CF0005A9880E28A95F1F75A9A0895FC013BE0C0
:103D00003A95F1F798E020E080E031E040E14A9513
:103D1000F1F7880F4A9B02C08160232742E04A9551
:103D2000F1F7000040E14A95F1F7915079F790E101
:103D30009A95F1F799B132E03A95F1F7000040E138
:103D40004A95F1F792FB992790F992272081920FDB
:103D500090830895A1E0B0E0E0EBFEE10C94C3296C
:103D600019828C017C01E60EF11C0E151F0541F431
:103D700081E09981911180E02196E6E00C94DF29A1
:103D80000E94701ECE0101960E947E1EF801819352
:103D90008F01EBCF529A5A9A089552985A9AEA9AFA
:103DA000E9E6F0E080818F7C808308956150770B95
:103DB00091E001C0990F6A95EAF720E031E0911196
:103DC00008C0222391F05A9A80E28A95F1F75A9816
:103DD0000895492F482339F05A9A232740E24A95FB
:103DE000F1F79695ECCF5A98F9CF5A98EDCFFF920C
:103DF0000F931F93CF93DF93EC018C01060F111DDE
:103E0000C017D10729F4CDB7DEB7E5E00C94E0295F
:103E1000F9900E94781E68E08F2D0E94D61EF0CF88
:103E20001F920F920FB60F9211240F931F932F938F
:103E30003F934F935F936F937F938F939F93AF9332
:103E4000BF93EF93FF93CF93DF930F92CDB7DEB77E
:103E500019820E94701ECE0101960E947E1E082FBC
:103E6000069506950695282F22952570902F95701A
:103E7000290F922F937026952695920F9827977069
:103E80008981982B09F05CC0063008F059C080E1A8
:103E90008A95F1F75A9A529A82E08A95F1F700C012
:103EA0005A9888E0089F80011124D801A15FBE4F75
:103EB0001696ED91FC9117973097A9F06091BA0191
:103EC0007091BB0114962D913C911597260F371FC9
:103ED00011968D919C911297680F791F13964C91B2
:103EE00013978C910995F801E15FFE4F638166237A
:103EF00051F02091BA013091BB0184819581820FEC
:103F0000931F0E94F71E0E94781E80E18A95F1F7A8
:103F10005A9852985A9A80E18A95F1F7F801E15F30
:103F2000FE4F6081662351F02091BA013091BB01B0
:103F300081819281820F931F0E94AA1E0E94701E8F
:103F40000F90DF91CF91FF91EF91BF91AF919F9132
:103F50008F917F916F915F914F913F912F911F9121
:103F60000F910F900FBE0F901F9018950F931F93F6
:103F7000CF93DF93EC0106970CF04CC0F894529A63
:103F80005A9885E08A95F1F700009C2F96959570D8
:103F90008C2F8570980F892F83709695969523E0C6
:103FA000CC0FDD1F2A95E1F7980F8E01092B0E9497
:103FB000781E00C068E0802F0E94D61E80E18A959E
:103FC000F1F752985A9A4A9B1EC087E090E04A99AE
:103FD0001CC0FE01E15FFE4F63816623F9F0209172
:103FE000BA013091BB0184819581820F931F0E9499
:103FF000AA1E811113C0529A5A9A7894DF91CF91D8
:104000001F910F91089500C0DECF019729F4529AB5
:104010005A9A789480E0F2CF00C0D9CF0E94701EE7
:1040200080E28A95F1F75A98529A80E18A95F1F7E1
:10403000C15FDE4F6881662351F02091BA01309153
:10404000BB0189819A81820F931F0E94F71E0E94F3
:10405000781E789481E0D2CF9093E1018093E001C3
:1040600008959093BB028093BA0208950E942B1288
:10407000811103C08091B5020895E091BA02F091D8
:10408000BB02309729F00190F081E02D0995089549
:1040900080E00895E091BA02F091BB02309721F0E0
:1040A0000280F381E02D09950895E091BA02F09124
:1040B000BB02309739F022E0DC012C930480F581BB
:1040C000E02D099508952091B8023091B902281782
:1040D000390771F09093B9028093B802E091BA0267
:1040E000F091BB02309721F00680F781E02D099511
:1040F00008952091B6023091B7022817390771F060
:104100009093B7028093B602E091BA02F091BB029D
:10411000309721F00084F185E02D099508959C01E8
:104120002E5F3F4FAC01485F5F4F80E0241735079B
:1041300009F40895F90191919F019923B9F38F5FD3
:10414000F5CF662349F0FC01329608962191261797
:1041500029F0E817F907D1F780E0089581E0089584
:104160009C01FC0132969FEF80E04191461751F08F
:104170009F3F19F4411101C0982F8F5F8630A9F736
:104180009F3F09F40895290F311D97FD3A95F901D4
:1041900062830895FC01329608962191261303C08C
:1041A000DF0111971C92E817F907B9F708950E94EB
:1041B000B02008950E94CA200895029626E0FC01CE
:1041C00011922A95E9F7089546E050E00E94022AEC
:1041D00021E0892B09F420E0822F089508950E94A0
:1041E000EE200895811106C081E08093BC020E94F8
:1041F000EF20089582E0F9CF83E08093BC020E9413
:10420000EF2008950E94F220089581E08093BC027F
:104210000E94EF2008950E940521089508950895B1
:104220000E940F210895089508950E940E21089577
:10423000CF930E9413210E94AF110E941421C0E06D
:104240008C2F0E945510811105C0CF5FCA30C1F775
:10425000CF91089581E0FCCF85B7806885BF85B791
:10426000806885BF08951F921FB61F9211248F93F7
:104270009F93AF93BF938091BD02811113C0809132
:10428000E7029091E802A091E902B091EA0241961A
:10429000A11DB11D8093E7029093E802A093E9026B
:1042A000B093EA02BF91AF919F918F911F901FBE73
:1042B0001F9018958091EF02843031F10E944B03DA
:1042C0001092BD0288E190E020E40FB6F894A89522
:1042D000809360000FBE2093600083B7817F84606D
:1042E00083BF83B7816083BF7894889583B78E7FBF
:1042F00083BF0FB6F894A895809160008861809381
:104300006000109260000FBE08950E9424070E9472
:104310005003089582E084BD93E095BD9AEF97BD68
:1043200080936E0008952FB7F8948091E7029091E2
:10433000E802A091E902B091EA022FBF08952FB7D9
:10434000F8946091E7027091E8028091E9029091FF
:10435000EA022FBF08959C014FB7F8948091E702BD
:104360009091E802A091E902B091EA024FBF821B4E
:10437000930B0895CF92DF92EF92FF922FB7F894AC
:10438000C090E702D090E802E090E902F090EA02E3
:104390002FBFA7019601261B370B480B590BCA01EB
:1043A000B901FF90EF90DF90CF90089578941F921D
:1043B0001FB61F9211248F939F93AF93BF93809149
:1043C000E7029091E802A091E902B091EA02019619
:1043D000A11DB11D8093E7029093E802A093E9022A
:1043E000B093EA02BF91AF919F918F911F901FBE32
:1043F0001F90189587E797E790930108809300082E
:1044000088E19AE00FB6F894A895809360000FBEFB
:1044100090936000FFCF88E19AE00FB6F894A895DA
:10442000809360000FBE90936000FFCF8091C9021F
:10443000089508959C0184E08093E9009FEF8091A6
:10444000E800915085FD06C085ED8A95F1F70000E2
:104450009111F5CF8091E80085FF0CC050E040E05D
:1044600066E070E0C9010E94AE248091E8008E777A
:104470008093E8000895CF93DF93EC0181E080936F
:10448000E9008FEF9091E800815095FD06C095ED11
:104490009A95F1F700008111F5CF8091E80085FF32
:1044A00014C050E040E068E070E0CE010E94AE240D
:1044B0008091E8008E778093E80088E0FE01A1EC0F
:1044C000B2E001900D928A95E1F7DF91CF910895C6
:1044D0008093BE027093C0026093BF028091EF028E
:1044E0008430F9F48093E9008FEF9091E8008150D7
:1044F00095FD06C095ED9A95F1F700008111F5CF75
:104500008091E80085FF0DC050E040E063E070E07E
:104510008EEB92E00E94AE248091E8008E7780932B
:10452000E8000895BC0184E00E9468220895BC015F
:1045300083E00E9468220895CF93FC01603221F548
:104540008091EF02843001F5C091E900CF70209195
:10455000EC00922F917020FD90E8C92B82E08093AF
:10456000E9008091E80080FF0CC050E040E060E28C
:1045700070E0CF010E94AE248091E8008E77809396
:10458000E800CF70C093E900CF9108958091EE02CA
:10459000811109C00E948D260E94EA268091E200C6
:1045A00084608093E20008951092EE0208950E94C4
:1045B000052108956091EB0281E0611101C080E066
:1045C0000E94FC2008959091EF0281E0943009F060
:1045D00080E06091EB020E940221089542E061ECCC
:1045E00081E00E94092642E261EC84E00E940926F3
:1045F00042E261EC82E00E94092642E260EC83E044
:104600000E9409269091EF0281E0943009F080E049
:104610006091EB020E94F22008958091F1028330B4
:1046200009F463C030F48130E1F1823009F4A0C0B4
:1046300008958A3009F48CC08B3009F471C0893038
:1046400009F052C08091F002813209F04DC0809192
:10465000F4029091F502009719F0029709F044C016
:104660008091E800877F8093E8008091E80082FFD6
:1046700037C09091F3008091F200029731F480915D
:10468000F100813011F0863021F48091F1008093A7
:10469000C9028091E8008B778093E8000E943D2654
:1046A00023C08091F002813AF9F48091E800877F7D
:1046B0008093E8008091F4029091F502892B61F4D7
:1046C00068E081EC92E070E00E944C258091E80067
:1046D0008B778093E800089560E090E080E0F3CF6E
:1046E0008091EF028111C1CF08958091F002813A4B
:1046F000D9F78091F4029091F502892BA9F7809166
:10470000E800877F8093E8008091E80080FFFCCF7D
:1047100080914B018093F1008091E8008E77BCCFAF
:104720008091F002813201F78091F4029091F502BC
:10473000892BD1F68091E800877F8093E8000E9462
:104740003D268091F20280934B010E942407089538
:104750008091F002813241F68091E800877F80935A
:10476000E8000E943D268091F3028093CA020895DA
:104770008091F002813A09F0B7CF8091E800877FFD
:104780008093E8008091E80080FFFCCF8091CA020E
:10479000C1CF84B7877F84BF0FB6F894A895809166
:1047A0006000886180936000109260000FBE80E816
:1047B00090E00FB6F89480936100909361000FBE73
:1047C0000E940B2108950E948D260E94EA26E2EEA7
:1047D000F0E080818460808378940E946929089544
:1047E0008FE391E00E94312008958091EF0285309F
:1047F00031F48091EF02853019F00E9485210895EF
:104800000E945A218091ED02882399F30E94182179
:10481000882379F30E9498240E942407EACFA0E21B
:10482000B0E0E5E1F4E20C94C7298091EF02843016
:1048300009F583E08093E9008091E80082FF1AC0C7
:104840008091E80090E085FF09C050E040E060E220
:1048500070E0CE0101960E94FD2491E08091E80075
:104860008B778093E800992329F060E2CE010196CE
:104870000E94A817A096E2E00C94E3290E9441242C
:104880000895292F33272330310521F168F4213091
:10489000310509F443C02230310509F444C090E0E9
:1048A00080E030E020E026C02132310551F1223293
:1048B0003105A9F76330710590F7FB01EE0FFF1F7B
:1048C000ED52FE4F2081318160537E4FFB0180818C
:1048D00090E010C099278130910581F0009729F070
:1048E0000297E9F6E0E0F3E002C0E8E2F3E0849149
:1048F00090E09F01FA01318320830895E2E1F3E023
:10490000F6CF6330710558F6660F771FFB01E7524B
:10491000FE4F2081318189E090E0ECCF82E190E090
:1049200027E833E0E7CF8BE590E02CE233E0E2CFFD
:1049300080E189BD82E189BD09B400FEFDCF80918F
:10494000D8008F7D8093D8008091E00082608093B2
:10495000E0008091E00081FDFCCF0895AF92BF920E
:10496000CF92DF92FF920F931F93CF93DF936C014F
:10497000EB018A010E945C26F82E811123C00115EB
:10498000110539F0F80180819181C81BD90BC80E3F
:10499000D91EB12CA12C2097A9F08091E80085FDAB
:1049A00022C08091E8008E778093E8000115110500
:1049B000A1F0F80180819181A80EB91EB182A08278
:1049C00085E0F82E8F2DDF91CF911F910F91FF90F1
:1049D000DF90CF90BF90AF9008950E945C2688230F
:1049E000D1F2F82EEFCFF60181916F018093F100A3
:1049F0002197FFEFAF1ABF0ACECFAF92BF92CF92EF
:104A0000DF92FF920F931F93CF93DF936C01EB0123
:104A10008A010E945C26F82E811123C00115110520
:104A200039F0F80180819181C81BD90BC80ED91EBD
:104A3000B12CA12C2097A9F08091E80085FD22C01F
:104A40008091E8008B778093E80001151105A1F0B3
:104A5000F80180819181A80EB91EB182A08285E003
:104A6000F82E8F2DDF91CF911F910F91FF90DF9046
:104A7000CF90BF90AF9008950E945C268823D1F21A
:104A8000F82EEFCF8091F100F60181936F0121970D
:104A9000FFEFAF1ABF0ACECFFC018091F6029091D2
:104AA000F70286179707A0F06115710529F4909118
:104AB000E8009E779093E80090E06115710551F44D
:104AC000911108C08091E80082FF34C080E0089511
:104AD000BC01F2CF8091EF028823C1F18530C1F192
:104AE0008091E80083FD30C08091E80082FDEACF2C
:104AF0008091E80080FFE1CF8091F3002091F200E7
:104B0000382F6115710519F02830310558F091E002
:104B10002830310509F090E02091E8002E772093AD
:104B2000E800CBCF81918093F100615071092F5F34
:104B30003F4FE7CF8091EF02882341F0853041F06D
:104B40008091E80083FFBECF81E0089582E0089560
:104B500083E00895FC018091F6029091F702861798
:104B60009707A0F06115710529F48091E8008E7710
:104B70008093E80090E06115710551F4911108C02F
:104B80008091E80082FF35C080E00895BC01F2CF3B
:104B90008091EF028823C9F18530C9F18091E80046
:104BA00083FD31C08091E80082FDEACF8091E8006A
:104BB00080FFE1CF8091F3002091F200382F611542
:104BC000710519F02830310558F091E02830310591
:104BD00009F090E08091E8008E778093E800CBCFD9
:104BE00084918093F1003196615071092F5F3F4F9E
:104BF000E6CF8091EF02882341F0853041F080912B
:104C0000E80083FFBDCF81E0089582E0089583E04E
:104C10000895982F973028F08F708093E90081E0F5
:104C200008959093E900242F762F50E0981731F0E3
:104C30007091EC002091ED005091F00021FD02C038
:104C40009F5FE8CF3091EB003E7F3093EB003091D7
:104C5000ED003D7F3093ED003091EB0031603093FB
:104C6000EB007093EC002093ED005093F000209146
:104C7000EE0027FDE5CF80E008958091F00287FFE8
:104C800013C08091E80082FF06C08091E8008B7716
:104C90008093E80004C08091EF028111F2CF089563
:104CA0008091EF028823D9F38091E80080FFF8CF4C
:104CB0008091E8008E77ECCF2091E4003091E50000
:104CC00095E6A9012091EC00822F817020FF06C09B
:104CD0008091E80080FF06C080E008952091E80000
:104CE00022FD1AC08091EF02882389F0853089F077
:104CF0008091EB0085FD0FC02091E4003091E5002C
:104D000042175307F9F29150E1F684E0089582E0EA
:104D1000089583E0089581E008950E94FC260E9492
:104D20000427E0EEF0E0808181608083E8EDF0E030
:104D300080818F77808319BCA7EDB0E08C918E7F46
:104D40008C9380818F7E80831092EE0208950F9362
:104D50001F93CF93DF930E94FC260E940427C8ED87
:104D6000D0E088818F778883888180688883888174
:104D70008F7D888319BC1092EF021092EB02109283
:104D8000ED021092EC0200EE10E0F80180818B7FC2
:104D9000808388818160888342E060E080E00E94B7
:104DA0000926E1EEF0E080818E7F8083E2EEF0E084
:104DB000808181608083808188608083F801808128
:104DC0008E7F8083888180618883DF91CF911F915E
:104DD0000F910895E8EDF0E080818F7E8083E7ED0C
:104DE000F0E080818160808384E082BF81E08093F5
:104DF000EE020E94A7260895E8EDF0E080818E7F04
:104E000080831092E20008951092DA001092E1007F
:104E100008951F920F920FB60F9211242F933F9374
:104E20004F935F936F937F938F939F93AF93BF93B2
:104E3000EF93FF938091E10082FF0BC08091E2002D
:104E400082FF07C08091E1008B7F8093E1000E9488
:104E500068298091DA0080FF19C08091D80080FF16
:104E600015C08091DA008E7F8093DA008091D9009E
:104E700080FF96C080E189BD82E189BD09B400FE52
:104E8000FDCF81E08093EF020E94C6228091E10075
:104E900080FF19C08091E20080FF15C08091E20080
:104EA0008E7F8093E2008091E20080618093E20037
:104EB0008091D80080628093D80019BC85E08093EF
:104EC000EF020E94DA228091E10084FF2BC08091E2
:104ED000E20084FF27C080E189BD82E189BD89B5F8
:104EE000982F917080FFFBCF8091D8008F7D8093A9
:104EF000D8008091E1008F7E8093E1008091E200F4
:104F00008F7E8093E2008091E20081608093E200D6
:104F10008091EB02882309F449C084E08093EF027A
:104F20000E94E3228091E10083FF29C08091E2008A
:104F300083FF25C08091E100877F8093E10082E0BC
:104F40008093EF021092EB028091E1008E7F8093BC
:104F5000E1008091E2008E7F8093E2008091E20088
:104F600080618093E20042E060E080E00E940926D8
:104F70008091F00088608093F0000E94D722FF911A
:104F8000EF91BF91AF919F918F917F916F915F91C1
:104F90004F913F912F910F900FBE0F901F9018953A
:104FA00019BC1092EF020E94D42270CF8091E300CE
:104FB00087FD93E09093EF02B3CF1F920F920FB64D
:104FC0000F9211242F933F934F935F936F937F938F
:104FD0008F939F93AF93BF93CF93DF93EF93FF9301
:104FE000D091E900DF708091EC00C82FC17080FD86
:104FF000C0E81092E9008091F000877F8093F00074
:1050000078940E9421281092E9008091F000886035
:105010008093F000CD2BCF70C093E900FF91EF910A
:10502000DF91CF91BF91AF919F918F917F916F91C0
:105030005F914F913F912F910F900FBE0F901F9056
:105040001895AAE2B0E0E7E2F8E20C94C62980EFF6
:1050500092E02091F100FC012193CF01F2E0883F22
:105060009F07B9F70E940D238091E80083FF1EC1BE
:105070008091F0029091F1029A3008F017C1E92F67
:10508000F0E0E558F54D0C94AA29803899F0823863
:1050900009F00CC18091F4028F70873008F006C1CE
:1050A0008093E9008091EB0085FB882780F91092BE
:1050B000E90006C08091EC029091ED0291118260AE
:1050C0009091E800977F9093E8008093F100109210
:1050D000F1008091E8008E77E5C0882309F4D3C001
:1050E000823009F0E3C08091F2028111D6C0809134
:1050F000F4028F702FEF280F263008F0D7C080936E
:10510000E9002091EB0020FFC8C0933031F480917A
:10511000EB0080628093EB00C0C09091EB00906147
:105120009093EB0021E030E001C0220F8A95EAF76E
:105130002093EA001092EA008091EB008860EACFA9
:105140008111B4C01091F2021F778091E300807842
:10515000812B8093E3008091E800877F8093E800B3
:105160000E943D268091E80080FFFCCF8091E30003
:1051700080688093E30082E0111183E08093EF0266
:1051800095C08058823008F091C08091F2029091D1
:10519000F3028C3D23E09207A1F583E08A838AE243
:1051A00089834FB7F894DE01139620E03EE051E288
:1051B000E32FF0E050935700E49120FF03C0E29505
:1051C000EF703F5FEF708E2F90E0EA30C0F0C7962F
:1051D0008D939D932F5F243159F74FBF8091E80045
:1051E000877F8093E8006AE270E0CE0101960E941A
:1051F0004C258091E8008B778093E80057C0C096DB
:10520000E7CF6091F4027091F502AE014F5F5F4FFE
:105210000E943E24BC01892B09F448C09091E8000B
:10522000977F9093E80089819A810E94AA25E1CF17
:105230008038E1F58091E800877F8093E8008091D5
:10524000EB028093F10045CF811130C09091F202C2
:10525000923060F58091E800877F8093E80090931A
:10526000EB020E943D268091EB02882311F084E03E
:1052700005C08091E30087FDFACF81E08093EF02C3
:105280000E94EE2213C08091F202813079F481E015
:10529000933009F080E08093ED021092E900809154
:1052A000E800877F8093E8000E943D268091E80017
:1052B00083FF0AC08091E800877F8093E800809197
:1052C000EB0080628093EB00AA96E3E00C94E22965
:1052D0000895CF938091EF028823A1F0C091E90057
:1052E000CF709091EC00892F817090FD80E8C82BE1
:1052F0001092E9008091E80083FD0E942128CF7080
:10530000C093E900CF9108950E948D261092EF027C
:105310000895E8EDF0E08081806180838AE18A95DC
:10532000F1F700C08091D9008170089597FB072E96
:1053300016F4009407D077FD09D00E94EE2907FCEF
:1053400005D03EF4909581959F4F08957095619595
:105350007F4F0895EE0FFF1F0590F491E02D099403
:1053600069279627692778278727782708952F9216
:105370003F924F925F926F927F928F929F92AF92E5
:10538000BF92CF92DF92EF92FF920F931F93CF9332
:10539000DF93CDB7DEB7CA1BDB0B0FB6F894DEBFC9
:1053A0000FBECDBF09942A88398848885F846E84EF
:1053B0007D848C849B84AA84B984C884DF80EE8039
:1053C000FD800C811B81AA81B981CE0FD11D0FB642
:1053D000F894DEBF0FBECDBFED010895AA1BBB1B25
:1053E00051E107C0AA1FBB1FA617B70710F0A61BE5
:1053F000B70B881F991F5A95A9F780959095BC0106
:10540000CD010895FB01DC0104C08D91019080194C
:1054100021F441505040C8F7881B990B0895FB01B7
:10542000DC0102C001900D9241505040D8F7089520
:10543000F999FECF92BD81BDF89A992780B508955C
:10544000A8E1B0E042E050E00C944C2A262FF999F4
:10545000FECF92BD81BDF89A019700B4021639F0D3
:105460001FBA20BD0FB6F894FA9AF99A0FBE0895A4
:105470000396272F0E94272A0E94262A252F0E9462
:10548000272A242F0C94272A0196272F0E94272AA7
:105490000C94262ADC01CB01FC01F999FECF06C051
:1054A000F2BDE1BDF89A319600B40D9241505040E2
:1054B000B8F70895F894FFCF190519054A054A056C
:1054C000D705F30579057905FE05650674067406AA
:1054D000BA17C617ED17F91704180F181218121873
:1054E0001218121812181518191821182E183B180E
:1054F0003E1841184E1845286D2856296D28562902
:0A550000A028C128562918292429E3
:10550A00470233946697C63435919032363101009A
:10551A00000001000000000000000501000000007A
:10552A00000001060000000000000207000000045D
:10553A0009000000000000280850011E0A14011684
:10554A00223B221A22972292221922019190323664
:10555A003133946697C63435E200E900EA00B500B3
:10556A00B600B700CD008301CC008A0192019401F4
:10557A002102230224022502260227022A02B3005C
:10558A00B4006F007000818283E200E900EA00B58E
:10559A0000B600B700CD008301CC008A01920194C5
:1055AA00012102230224022502260227022A02B32B
:1055BA0000B4006F007000818283720200FF010054
:1055CA00010000FFFF0000010001FF00F5F7F4F6FB
:1055DA0040227B36049903BB033E0357037703003B
:00000001FF
